000L2014071504136RENTAL CONNECT PTY LTD        000035000000                                                                                                                       2363                
020L04A8551407151407151407151407150000016338BATCH     YY                                                                                                                                              
020L1033560904084166276A85500000133560904084166616100000820000140715880   RAWSONPROPRC162657556         FIXTRADE 58 (PTY) LTD         00000000000000000000                21                          
020L1233560904084166276A85500000233560904084166276100000820000140715100000RAWSONPROPCONTRA6410                                                                                                        
020L92A855000001000002140715140715000001000001000001000000820000000000820000008168332892                                                                                                              
020L04A8551407151407151407151407150000036339BATCH     YY                                                                                                                                              
020L1033560904084166276A85500000325400562223889091100000139200140715880   RAWSONPROPBG0001              FIXTRADE 58 PTY LTD           00000000000000000000                21                          
020L1233560904084166276A85500000433560904084166276100000139200140715100000RAWSONPROPCONTRA6411                                                                                                        
020L92A855000003000004140715140715000001000001000001000000139200000000139200066308055367                                                                                                              
020L04A8551407151407151407151407150000056340BATCH     YY                                                                                                                                              
020L1033560904084166276A85500000505100100074146866200000360800140715880   RAWSONPROPBG0001 JULY         A W MARAIS                    00000000000000000000                21                          
020L1233560904084166276A85500000633560904084166276100000360800140715100000RAWSONPROPCONTRA6412                                                                                                        
020L92A855000005000006140715140715000001000001000001000000360800000000360800004158313142                                                                                                              
020L04A8551407151407151407151407150000076341BATCH     YY                                                                                                                                              
020L1063200504083387001A85500000763200504056584569100000084100140715880   RAWSONPROP211111105           CAPE TOWN ADMINISTRATION      00000000000000000000                21                          
020L1263200504083387001A85500000863200504083387001100000084100140715100000RAWSONPROPCONTRA6420                                                                                                        
020L92A855000007000008140715140715000001000001000001000000084100000000084100008139971570                                                                                                              
020L04A8551407151407151407151407150000096342BATCH     YY                                                                                                                                              
020L1063200504083387001A85500000963200504056584569100000012173140715880   RAWSONPROP205521324           CAPE TOWN ADMINISTRATION      00000000000000000000                21                          
020L1263200504083387001A85500001063200504083387001100000012173140715100000RAWSONPROPCONTRA6421                                                                                                        
020L92A855000009000010140715140715000001000001000001000000012173000000012173008139971570                                                                                                              
020L04A8551407151407151407151407150000116343BATCH     YY                                                                                                                                              
020L1063200504083387001A85500001163200504056584569100000002405140715880   RAWSONPROP205521324           CAPE TOWN ADMINISTRATION      00000000000000000000                21                          
020L1263200504083387001A85500001263200504083387001100000002405140715100000RAWSONPROPCONTRA6422                                                                                                        
020L92A855000011000012140715140715000001000001000001000000002405000000002405008139971570                                                                                                              
020L04A8551407151407151407151407150000136344BATCH     YY                                                                                                                                              
020L1063200504083387001A85500001363200504055905940100000015000140715880   RAWSONPROPL/F 26 KETTLEY      BLUE PLATINUM BUSINESS ACCOUNT00000000000000000000                21                          
020L1263200504083387001A85500001463200504083387001100000015000140715100000RAWSONPROPCONTRA6423                                                                                                        
020L92A855000013000014140715140715000001000001000001000000015000000000015000008139292941                                                                                                              
020L04A8551407151407151407151407150000156345BATCH     YY                                                                                                                                              
020L1063200504083387001A85500001563200504056584569100000002513140715880   RAWSONPROP205521324           CAPE TOWN ADMINISTRATION      00000000000000000000                21                          
020L1263200504083387001A85500001663200504083387001100000002513140715100000RAWSONPROPCONTRA6424                                                                                                        
020L92A855000015000016140715140715000001000001000001000000002513000000002513008139971570                                                                                                              
020L04A8551407151407151407151407150000176346BATCH     YY                                                                                                                                              
020L1063200504083387001A85500001763200504056584569100000041450140715880   RAWSONPROP220325564           CAPE TOWN ADMINISTRATION      00000000000000000000                21                          
020L1263200504083387001A85500001863200504083387001100000041450140715100000RAWSONPROPCONTRA6440                                                                                                        
020L92A855000017000018140715140715000001000001000001000000041450000000041450008139971570                                                                                                              
020L04A8551407151407151407151407150000196347BATCH     YY                                                                                                                                              
020L1063200504083387001A85500001963200504055905940100000004000140715880   RAWSONPROPLOD SHANNONS        BLUE PLATINUM VENTURES 43 (PTY00000000000000000000                21                          
020L1263200504083387001A85500002063200504083387001100000004000140715100000RAWSONPROPCONTRA6441                                                                                                        
020L92A855000019000020140715140715000001000001000001000000004000000000004000008139292941                                                                                                              
020L04A8551407151407151407151407150000216348BATCH     YY                                                                                                                                              
020L1063200504083387001A85500002163200504056584569100000000083140715880   RAWSONPROP220325564           CAPE TOWN ADMINISTRATION      00000000000000000000                21                          
020L1263200504083387001A85500002263200504083387001100000000083140715100000RAWSONPROPCONTRA6442                                                                                                        
020L92A855000021000022140715140715000001000001000001000000000083000000000083008139971570                                                                                                              
020L04A8551407151407151407151407150000236349BATCH     YY                                                                                                                                              
020L1063200504083387001A85500002363200504055905940100000030000140715880   RAWSONPROPAPP FEES            BLUE PLATINUM BUSINESS ACCOUNT00000000000000000000                21                          
020L1263200504083387001A85500002463200504083387001100000030000140715100000RAWSONPROPCONTRA6446                                                                                                        
020L92A855000023000024140715140715000001000001000001000000030000000000030000008139292941                                                                                                              
020L04A8551407151407151407151407150000256350BATCH     YY                                                                                                                                              
020L1063200504079322530A85500002563200504079329299100001237500140715880   RAWSONPROPRC162662585         KIH TRADING (PTY) LTD         00000000000000000000                21                          
020L1263200504079322530A85500002663200504079322530100001237500140715100000RAWSONPROPCONTRA6425                                                                                                        
020L92A855000025000026140715140715000001000001000001000001237500000001237500008158651829                                                                                                              
020L04A8551407151407151407151407150000276351BATCH     YY                                                                                                                                              
020L1063200504079322530A85500002702620900332817407100000100000140715880   RAWSONPROPL/A FEE LNL030      KIH TRADING (PTY)LTD          00000000000000000000                21                          
020L1263200504079322530A85500002863200504079322530100000100000140715100000RAWSONPROPCONTRA6426                                                                                                        
020L92A855000027000028140715140715000001000001000001000000100000000000100000004412139937                                                                                                              
020L04A8551407151407151407151407150000296352BATCH     YY                                                                                                                                              
020L1063200504079322530A85500002902620900332817407100000363538140715880   RAWSONPROPCOMMISSION          KIH TRADING (PTY) LTD         00000000000000000000                21                          
020L1263200504079322530A85500003063200504079322530100000363538140715100000RAWSONPROPCONTRA6427                                                                                                        
020L92A855000029000030140715140715000001000001000001000000363538000000363538004412139937                                                                                                              
020L04A8551407151407151407151407150000316353BATCH     YY                                                                                                                                              
020L1063200504079322530A85500003102620900370830555100000095000140715880   RAWSONPROPACE MANAGEMENT      C AND E HOLDINGS(PTY) LTD     00000000000000000000                21                          
020L1263200504079322530A85500003263200504079322530100000095000140715100000RAWSONPROPCONTRA6438                                                                                                        
020L92A855000031000032140715140715000001000001000001000000095000000000095000004450153085                                                                                                              
020L04A8551407151407151407151407150000336354BATCH     YY                                                                                                                                              
020L1063200504079322530A85500003305100100071707719100004405000140715880   RAWSONPROP6 MONTHS U/F        KWESI DZAPONG LWAZI PRAH      00000000000000000000                21                          
020L1263200504079322530A85500003463200504079322530100004405000140715100000RAWSONPROPCONTRA6439                                                                                                        
020L92A855000033000034140715140715000001000001000001000004405000000004405000004151030249                                                                                                              
020L04A8551407151407151407151407150000356355BATCH     YY                                                                                                                                              
020L1063200504084166234A85500003563200504084166593100000819268140715880   RAWSONPROPRC162660201         TRESSO TRADING 1044           00000000000000000000                21                          
020L1263200504084166234A85500003663200504084166234100000819268140715100000RAWSONPROPCONTRA6428                                                                                                        
020L92A855000035000036140715140715000001000001000001000000819268000000819268008168332827                                                                                                              
020L04A8551407151407151407151407150000376356BATCH     YY                                                                                                                                              
020L1063200504084166234A85500003763200504084166593100000810910140715880   RAWSONPROPRC162669074         TRESSO TRADING 1044           00000000000000000000                21                          
020L1263200504084166234A85500003863200504084166234100000810910140715100000RAWSONPROPCONTRA6429                                                                                                        
020L92A855000037000038140715140715000001000001000001000000810910000000810910008168332827                                                                                                              
020L04A8551407151407151407151407150000396357BATCH     YY                                                                                                                                              
020L1063200504084166234A85500003963200504084166593100002356116140715880   RAWSONPROPRC162665775         TRESSO TRADING 1044           00000000000000000000                21                          
020L1263200504084166234A85500004063200504084166234100002356116140715100000RAWSONPROPCONTRA6430                                                                                                        
020L92A855000039000040140715140715000001000001000001000002356116000002356116008168332827                                                                                                              
020L04A8551407151407151407151407150000416358BATCH     YY                                                                                                                                              
020L1063200504084166234A85500004163200504084166593100000530000140715880   RAWSONPROPRC162663754         TRESSO TRADING 1044           00000000000000000000                21                          
020L1263200504084166234A85500004263200504084166234100000530000140715100000RAWSONPROPCONTRA6432                                                                                                        
020L92A855000041000042140715140715000001000001000001000000530000000000530000008168332827                                                                                                              
020L04A8551407151407151407151407150000436359BATCH     YY                                                                                                                                              
020L1063200504084166234A85500004363200504084166593100000707502140715880   RAWSONPROPRC162668267         TRESSO TRADING 1044           00000000000000000000                21                          
020L1263200504084166234A85500004463200504084166234100000707502140715100000RAWSONPROPCONTRA6433                                                                                                        
020L92A855000043000044140715140715000001000001000001000000707502000000707502008168332827                                                                                                              
020L04A8551407151407151407151407150000456360BATCH     YY                                                                                                                                              
020L1063200504084166234A85500004563200504084166593100000667005140715880   RAWSONPROPRC162667995         TRESSO TRADING 1044           00000000000000000000                21                          
020L1263200504084166234A85500004663200504084166234100000667005140715100000RAWSONPROPCONTRA6434                                                                                                        
020L92A855000045000046140715140715000001000001000001000000667005000000667005008168332827                                                                                                              
020L04A8551407151407151407151407150000476361BATCH     YY                                                                                                                                              
020L1063200504084166234A85500004763200504084166593100000789125140715880   RAWSONPROPRC162664289         TRESSO TRADING 1044           00000000000000000000                21                          
020L1263200504084166234A85500004863200504084166234100000789125140715100000RAWSONPROPCONTRA6435                                                                                                        
020L92A855000047000048140715140715000001000001000001000000789125000000789125008168332827                                                                                                              
020L04A8551407151407151407151407150000496362BATCH     YY                                                                                                                                              
020L1063200504084166234A85500004963200504084166593100000912275140715880   RAWSONPROPRC162660289         TRESSO TRADING 1044           00000000000000000000                21                          
020L1263200504084166234A85500005063200504084166234100000912275140715100000RAWSONPROPCONTRA6436                                                                                                        
020L92A855000049000050140715140715000001000001000001000000912275000000912275008168332827                                                                                                              
020L04A8551407151407151407151407150000516363BATCH     YY                                                                                                                                              
020L1063200504084166234A85500005163200504084166593100000800000140715880   RAWSONPROPRC162662332         TRESSO TRADING 1044           00000000000000000000                21                          
020L1263200504084166234A85500005263200504084166234100000800000140715100000RAWSONPROPCONTRA6437                                                                                                        
020L92A855000051000052140715140715000001000001000001000000800000000000800000008168332827                                                                                                              
020L04A8551407151407151407151407150000536364BATCH     YY                                                                                                                                              
020L1063200504079323625A85500005363200504059585754100000057000140715880   RAWSONPROP4 LA RUE DE COMM    SWEETWATER PROPERTIES 12CC    00000000000000000000                21                          
020L1263200504079323625A85500005463200504079323625100000057000140715100000RAWSONPROPCONTRA6443                                                                                                        
020L92A855000053000054140715140715000001000001000001000000057000000000057000008138909379                                                                                                              
020L04A8551407151407151407151407150000556365BATCH     YY                                                                                                                                              
020L1063200504079323625A85500005501800500021665265100000443000140715880   RAWSONPROP4 LA RUE DES RENT   RT ATKINSON                   00000000000000000000                21                          
020L1263200504079323625A85500005663200504079323625100000443000140715100000RAWSONPROPCONTRA6444                                                                                                        
020L92A855000055000056140715140715000001000001000001000000443000000000443000004100988890                                                                                                              
999L000000114                                                                                                                                                                                         