00000000000000000000P2012052110831RENTAL CONNECT PTY LTD        10831                                                                                                                                                                                                                                                                                                                                                                                                                                                              000000016                          
10000000004079058521000170000120120520                          +000000000000000-00000000000015138                                                                                    AA0A                                                                                                                                                                                                                                                                                                                                         000000016                          
2000000000407905852100017000012012052020120520000000000000000000+000000000000000-00000000000015138GEEN/NO TRAN                                                                    AA9AAA9A+000000000 +000000000+000000000 000000000000000003000000000000000000000000000000000000000                                             000000000000000                                                                                                   0000000000000000                0000000000000000000                              0000000160000                      
89999999999999999999                                            +00000000000000000                                                                                                           0000000003                                                                                                                                                                                                                                                                                                                            000000016                          
99999999999999999999P20120521                                                                                                                                                                0000000005                                                                                                                                                                                                                                                                                                                            000000016                          
