000L2014070900000RENTAL CONNECT PTY LTD        000118004136                                                                                                                                           
010LA855000002309                                                                                                                                                                                     
011LA85563200500000040833870010120140708                                                                                                                                                              
013L1020140708000213000000000006235555489300000705000RAWSONPROPREFUND D ORDER      89981046000213                JOHANNES FAASEN                                                                      
014L0000000000000000010000000623555548930000000000000000000000705000                                                                                                                                  
019L0000000000000000010000000623555548930000000000000000000000705000                                                                                                                                  
999L000000007                                                                                                                                                                                         