000L2014072604136RENTAL CONNECT PTY LTD        000036900000                                                                                                                       2431                
020L04A8551407261407261407261407260000016535BATCH     YY                                                                                                                                              
020L1063200504079323748A85500000125400562270571576100000225194140726880   RAWSONPROP001701              LA HABANA BODY CORPORATE      00000000000000000000                21                          
020L1263200504079323748A85500000263200504079323748100000225194140726100000RAWSONPROPCONTRA6631                                                                                                        
020L92A855000001000002140726140726000001000001000001000000225194000000225194066349895324                                                                                                              
999L000000006                                                                                                                                                                                         