000L2014073004136RENTAL CONNECT PTY LTD        000037300000                                                                                                                       2461                
020L04A8551407301407301407301407300000036604BATCH     YY                                                                                                                                              
020L1063200504083387954A85500000325065562190670531100000565000140730880   RAWSONPROP5 THE SANDS         GW JONES                      00000000000000000000                21                          
020L1263200504083387954A85500000463200504083387954100000565000140730100000RAWSONPROPCONTRA6617                                                                                                        
020L92A855000003000004140730140730000001000001000001000000565000000000565000066274058485                                                                                                              
020L04A8551407301407301407301407300000056605BATCH     YY                                                                                                                                              
020L1063200504083387954A85500000525250550310089939100001070440140730880   RAWSONPROP39 AVALON           ARUN GOVIND                   00000000000000000000                21                          
020L1263200504083387954A85500000663200504083387954100001070440140730100000RAWSONPROPCONTRA6618                                                                                                        
020L92A855000005000006140730140730000001000001000001000001070440000001070440054393477893                                                                                                              
020L04A8551407301407301407301407300000076606BATCH     YY                                                                                                                                              
020L1063200504083387954A85500000705100100032434359100000737661140730880   RAWSONPROP92 SHAMWARI/OWNER   ZOLA MKUMLA                   00000000000000000000                21                          
020L1263200504083387954A85500000863200504083387954100000737661140730100000RAWSONPROPCONTRA6641                                                                                                        
020L92A855000007000008140730140730000001000001000001000000737661000000737661004115822313                                                                                                              
020L04A8551407301407301407301407300000096607BATCH     YY                                                                                                                                              
020L1063200504083387954A85500000905100100271006218100000950000140730880   RAWSONPROP4 VILLA REGINA      MR A.J MANS                   00000000000000000000                21                          
020L1263200504083387954A85500001063200504083387954100000950000140730100000RAWSONPROPCONTRA6642                                                                                                        
020L92A855000009000010140730140730000001000001000001000000950000000000950000004354394172                                                                                                              
020L04A8551407301407301407301407300000116608BATCH     YY                                                                                                                                              
020L1063200504083387954A85500001163200508046181680400000502273140730880   RAWSONPROP14 DEOHART HOF      BG AND I CHRISTODOULOU        00000000000000000000                21                          
020L1263200504083387954A85500001263200504083387954100000502273140730100000RAWSONPROPCONTRA6716                                                                                                        
020L92A855000011000012140730140730000001000001000001000000502273000000502273012129569634                                                                                                              
020L04A8551407301407301407301407300000136609BATCH     YY                                                                                                                                              
020L1063200504083387954A85500001325400562095350379100000776317140730880   RAWSONPROP31 SHAMWARI         L.A ALMOND                    00000000000000000000                21                          
020L1263200504083387954A85500001463200504083387954100000776317140730100000RAWSONPROPCONTRA6720                                                                                                        
020L92A855000013000014140730140730000001000001000001000000776317000000776317066178738333                                                                                                              
020L04A8551407301407301407301407300000156610BATCH     YY                                                                                                                                              
020L1063200504083387954A85500001519876501051657482200000837444140730880   RAWSONPROP2 BRACKEN MEWS      MRS M.H I                     00000000000000000000                21                          
020L1263200504083387954A85500001663200504083387954100000837444140730100000RAWSONPROPCONTRA6721                                                                                                        
020L92A855000015000016140730140730000001000001000001000000837444000000837444005135045436                                                                                                              
020L04A8551407301407301407301407300000176611BATCH     YY                                                                                                                                              
020L1063200504083387954A85500001705100100008951284100000739380140730880   RAWSONPROP12 RICHFIELD        DEIRDRE ANDERSON              00000000000000000000                21                          
020L1263200504083387954A85500001863200504083387954100000739380140730100000RAWSONPROPCONTRA6723                                                                                                        
020L92A855000017000018140730140730000001000001000001000000739380000000739380004092339238                                                                                                              
020L04A8551407301407301407301407300000196612BATCH     YY                                                                                                                                              
020L1063200504083387954A85500001925400562423691460100000004707140730880   RAWSONPROP39 AVALON SHORT PAY JOE POTGIETER PROPERTY MANAGEM00000000000000000000                21                          
020L1263200504083387954A85500002063200504083387954100000004707140730100000RAWSONPROPCONTRA6737                                                                                                        
020L92A855000019000020140730140730000001000001000001000000004707000000004707066507079414                                                                                                              
020L04A8551407301407301407301407300000216613BATCH     YY                                                                                                                                              
020L1063200504083387954A85500002125420562423691460100000026854140730880   RAWSONPROPCOMMISSION          JOE POTGIETER PROPERTY MANAGEM00000000000000000000                21                          
020L1263200504083387954A85500002263200504083387954100000026854140730100000RAWSONPROPCONTRA6746                                                                                                        
020L92A855000021000022140730140730000001000001000001000000026854000000026854066507079414                                                                                                              
020L04A8551407301407301407301407300000236614BATCH     YY                                                                                                                                              
020L1063200504083387954A85500002325420562423691460100000040313140730880   RAWSONPROPCOMMISSION          JOE POTGIETER PROPERTY MANAGEM00000000000000000000                21                          
020L1263200504083387954A85500002463200504083387954100000040313140730100000RAWSONPROPCONTRA6747                                                                                                        
020L92A855000023000024140730140730000001000001000001000000040313000000040313066507079414                                                                                                              
020L04A8551407301407301407301407300000256615BATCH     YY                                                                                                                                              
020L1063200504083387954A85500002525420562423691460100000045186140730880   RAWSONPROPCOMMISSION          JOE POTGIETER PROPERTY MANAGEM00000000000000000000                21                          
020L1263200504083387954A85500002663200504083387954100000045186140730100000RAWSONPROPCONTRA6748                                                                                                        
020L92A855000025000026140730140730000001000001000001000000045186000000045186066507079414                                                                                                              
020L04A8551407301407301407301407300000276616BATCH     YY                                                                                                                                              
020L1063200504083387954A85500002725420562423691460100000044300140730880   RAWSONPROPCOMMISSION          JOE POTGIETER PROPERTY MANAGEM00000000000000000000                21                          
020L1263200504083387954A85500002863200504083387954100000044300140730100000RAWSONPROPCONTRA6749                                                                                                        
020L92A855000027000028140730140730000001000001000001000000044300000000044300066507079414                                                                                                              
020L04A8551407301407301407301407300000296617BATCH     YY                                                                                                                                              
020L1063200504083387954A85500002925420562423691460100000026580140730880   RAWSONPROPCOMMISSION          JOE POTGIETER PROPERTY MANAGEM00000000000000000000                21                          
020L1263200504083387954A85500003063200504083387954100000026580140730100000RAWSONPROPCONTRA6750                                                                                                        
020L92A855000029000030140730140730000001000001000001000000026580000000026580066507079414                                                                                                              
020L04A8551407301407301407301407300000316618BATCH     YY                                                                                                                                              
020L1063200504083387954A85500003125420562423691460100000031010140730880   RAWSONPROPCOMMISSION          JOE POTGIETER PROPERTY MANAGEM00000000000000000000                21                          
020L1263200504083387954A85500003263200504083387954100000031010140730100000RAWSONPROPCONTRA6751                                                                                                        
020L92A855000031000032140730140730000001000001000001000000031010000000031010066507079414                                                                                                              
020L04A8551407301407301407301407300000336619BATCH     YY                                                                                                                                              
020L1063200504083387954A85500003325420562423691460100000026580140730880   RAWSONPROPCOMMISSION          JOE POTGIETER PROPERTY MANAGEM00000000000000000000                21                          
020L1263200504083387954A85500003463200504083387954100000026580140730100000RAWSONPROPCONTRA6752                                                                                                        
020L92A855000033000034140730140730000001000001000001000000026580000000026580066507079414                                                                                                              
020L04A8551407301407301407301407300000356620BATCH     YY                                                                                                                                              
020L1063200504083387954A85500003525420562423691460100000221500140730880   RAWSONPROPCOMMISSION          JOE POTGIETER PROPERTY MANAGEM00000000000000000000                21                          
020L1263200504083387954A85500003663200504083387954100000221500140730100000RAWSONPROPCONTRA6753                                                                                                        
020L92A855000035000036140730140730000001000001000001000000221500000000221500066507079414                                                                                                              
020L04A8551407301407301407301407300000376621BATCH     YY                                                                                                                                              
020L1063200504083387572A85500003705100100060673303100000490000140730880   RAWSONPROPHADEDA PRK71 RENT   N. NAIR                       00000000000000000000                21                          
020L1263200504083387572A85500003863200504083387572100000490000140730100000RAWSONPROPCONTRA6722                                                                                                        
020L92A855000037000038140730140730000001000001000001000000490000000000490000004144060875                                                                                                              
020L04A8551407301407301407301407300000396622BATCH     YY                                                                                                                                              
020L1063200504083387572A85500003905773000364701536100000450000140730880   RAWSONPROPCEDAR PARK 41 RENT  P.G. BUTHELEZI                00000000000000000000                21                          
020L1263200504083387572A85500004063200504083387572100000450000140730100000RAWSONPROPCONTRA6725                                                                                                        
020L92A855000039000040140730140730000001000001000001000000450000000000450000004448089108                                                                                                              
020L04A8551407301407301407301407300000416623BATCH     YY                                                                                                                                              
020L1063200504083387572A85500004105803000060332034100000900000140730880   RAWSONPROPKLIPVIS 10 RENT     G.S. NAIR                     00000000000000000000                21                          
020L1263200504083387572A85500004263200504083387572100000900000140730100000RAWSONPROPCONTRA6732                                                                                                        
020L92A855000041000042140730140730000001000001000001000000900000000000900000004143719606                                                                                                              
020L04A8551407301407301407301407300000436624BATCH     YY                                                                                                                                              
020L1063200504083387572A85500004322083062410696168100000066920140730880   RAWSONPROPCOMMISSION          BRAVOSAT 383 CC               00000000000000000000                21                          
020L1263200504083387572A85500004463200504083387572100000066920140730100000RAWSONPROPCONTRA6733                                                                                                        
020L92A855000043000044140730140730000001000001000001000000066920000000066920066494083740                                                                                                              
020L04A8551407301407301407301407300000456625BATCH     YY                                                                                                                                              
020L1063200504083387572A85500004522083062410696168100000088600140730880   RAWSONPROPCOMMISSION          BRAVOSAT 383 CC               00000000000000000000                21                          
020L1263200504083387572A85500004663200504083387572100000088600140730100000RAWSONPROPCONTRA6734                                                                                                        
020L92A855000045000046140730140730000001000001000001000000088600000000088600066494083740                                                                                                              
020L04A8551407301407301407301407300000476626BATCH     YY                                                                                                                                              
020L1063200504083387572A85500004722083062410696168100000035440140730880   RAWSONPROPCOMMISSION          BRAVOSAT 383 CC               00000000000000000000                21                          
020L1263200504083387572A85500004863200504083387572100000035440140730100000RAWSONPROPCONTRA6735                                                                                                        
020L92A855000047000048140730140730000001000001000001000000035440000000035440066494083740                                                                                                              
020L04A8551407301407301407301407300000496627BATCH     YY                                                                                                                                              
020L1063200504083387572A85500004922083062410696168100000044300140730880   RAWSONPROPCOMMISSION          BRAVOSAT 383 CC               00000000000000000000                21                          
020L1263200504083387572A85500005063200504083387572100000044300140730100000RAWSONPROPCONTRA6736                                                                                                        
020L92A855000049000050140730140730000001000001000001000000044300000000044300066494083740                                                                                                              
020L04A8551407301407301407301407300000516628BATCH     YY                                                                                                                                              
020L1063200504079323853A85500005125065562361203690100000489500140730880   RAWSONPROPDALSIG RENT         JH VAN ZYL                    00000000000000000000                21                          
020L1263200504079323853A85500005263200504079323853100000489500140730100000RAWSONPROPCONTRA6738                                                                                                        
020L92A855000051000052140730140730000001000001000001000000489500000000489500066440527543                                                                                                              
020L04A8551407301407301407301407300000536629BATCH     YY                                                                                                                                              
020L1063200504079323853A85500005363200504056584569100000028008140730880   RAWSONPROP161800816           CITY OF CAPE TOWN MUNICIPALITY00000000000000000000                21                          
020L1263200504079323853A85500005463200504079323853100000028008140730100000RAWSONPROPCONTRA6740                                                                                                        
020L92A855000053000054140730140730000001000001000001000000028008000000028008008135908422                                                                                                              
020L04A8551407301407301407301407300000556630BATCH     YY                                                                                                                                              
020L1063200504079323853A85500005525065551510010138100000306014140730880   RAWSONPROPDUVORAK RENT        HM ZIETSMAN                   00000000000000000000                21                          
020L1263200504079323853A85500005663200504079323853100000306014140730100000RAWSONPROPCONTRA6741                                                                                                        
020L92A855000055000056140730140730000001000001000001000000306014000000306014055589333991                                                                                                              
020L04A8551407301407301407301407300000576631BATCH     YY                                                                                                                                              
020L1063200504079323853A85500005763200504077781520100000407560140730880   RAWSONPROPRENT STRASOHOF      M BIERMANN                    00000000000000000000                21                          
020L1263200504079323853A85500005863200504079323853100000407560140730100000RAWSONPROPCONTRA6743                                                                                                        
020L92A855000057000058140730140730000001000001000001000000407560000000407560008157105373                                                                                                              
020L04A8551407301407301407301407300000596632BATCH     YY                                                                                                                                              
020L1063200504079323853A85500005963200508071098454400000354400140730880   RAWSONPROP30 BERGVREDE RENT   JWJ SMALL BROERS TRUST        00000000000000000000                21                          
020L1263200504079323853A85500006063200504079323853100000354400140730100000RAWSONPROPCONTRA6744                                                                                                        
020L92A855000059000060140730140730000001000001000001000000354400000000354400012150422307                                                                                                              
020L04A8551407301407301407301407300000616633BATCH     YY                                                                                                                                              
020L1063200504079323853A85500006125065562244574655100000519288140730880   RAWSONPROPRENT AND UTILITY    CJ BRAND                      00000000000000000000                21                          
020L1263200504079323853A85500006263200504079323853100000519288140730100000RAWSONPROPCONTRA6745                                                                                                        
020L92A855000061000062140730140730000001000001000001000000519288000000519288066323898508                                                                                                              
020L04A8551407301407301407301407300000636634BATCH     YY                                                                                                                                              
020L1063200504079323853A85500006363200504044540458200000276224140730880   RAWSONPROPAPOLLO RENT         M LOUW                        00000000000000000000                21                          
020L1263200504079323853A85500006463200504079323853100000276224140730100000RAWSONPROPCONTRA6754                                                                                                        
020L92A855000063000064140730140730000001000001000001000000276224000000276224008123864311                                                                                                              
020L04A8551407301407301407301407300000656635BATCH     YY                                                                                                                                              
020L1063200504079323853A85500006563200504056584569100000030000140730880   RAWSONPROP201793468           CITY OF CAPE TOWN MUNICIPALITY00000000000000000000                21                          
020L1263200504079323853A85500006663200504079323853100000030000140730100000RAWSONPROPCONTRA6755                                                                                                        
020L92A855000065000066140730140730000001000001000001000000030000000000030000008135908422                                                                                                              
020L04A8551407301407301407301407300000676636BATCH     YY                                                                                                                                              
020L1063200504079323853A85500006725065562158702954100000362321140730880   RAWSONPROPLINK RENT           SR KYDD                       00000000000000000000                21                          
020L1263200504079323853A85500006863200504079323853100000362321140730100000RAWSONPROPCONTRA6756                                                                                                        
020L92A855000067000068140730140730000001000001000001000000362321000000362321066238026807                                                                                                              
020L04A8551407301407301407301407300000696637BATCH     YY                                                                                                                                              
020L1063200504079323853A85500006920380962413592230100000119951140730880   RAWSONPROP846111              TAFELSEE BODY CORP            00000000000000000000                21                          
020L1263200504079323853A85500007063200504079323853100000119951140730100000RAWSONPROPCONTRA6757                                                                                                        
020L92A855000069000070140730140730000001000001000001000000119951000000119951066492916083                                                                                                              
020L04A8551407301407301407301407300000716638BATCH     YY                                                                                                                                              
020L1063200504079323853A85500007163200500626101798200000269889140730880   RAWSONPROPTAFELSIG RENT       S LANDMAN                     00000000000000000000                21                          
020L1263200504079323853A85500007263200504079323853100000269889140730100000RAWSONPROPCONTRA6758                                                                                                        
020L92A855000071000072140730140730000001000001000001000000269889000000269889004705425651                                                                                                              
020L04A8551407301407301407301407300000736639BATCH     YY                                                                                                                                              
020L1063200504079323853A85500007363200504061127433100000066200140730880   RAWSONPROPPV122               PARKSIG VILLAS BODY CORP      00000000000000000000                21                          
020L1263200504079323853A85500007463200504079323853100000066200140730100000RAWSONPROPCONTRA6759                                                                                                        
020L92A855000073000074140730140730000001000001000001000000066200000000066200008140451286                                                                                                              
020L04A8551407301407301407301407300000756640BATCH     YY                                                                                                                                              
020L1063200504079323853A85500007525065562206352221100000192760140730880   RAWSONPROPPARKSIG RENT        ALEX STALS                    00000000000000000000                21                          
020L1263200504079323853A85500007663200504079323853100000192760140730100000RAWSONPROPCONTRA6760                                                                                                        
020L92A855000075000076140730140730000001000001000001000000192760000000192760066285676074                                                                                                              
020L04A8551407301407301407301407300000776641BATCH     YY                                                                                                                                              
020L1063200504079323853A85500007712771601277312931100000354400140730880   RAWSONPROPD12 MOUNT VIEW RENT ASJ TRUST                     00000000000000000000                21                          
020L1263200504079323853A85500007863200504079323853100000354400140730100000RAWSONPROPCONTRA6761                                                                                                        
020L92A855000077000078140730140730000001000001000001000000354400000000354400005356636784                                                                                                              
020L04A8551407301407301407301407300000796642BATCH     YY                                                                                                                                              
020L1063200504079323853A85500007963200504056584569100000041837140730880   RAWSONPROP161800816           CITY OF CAPE TOWN MUNICIPALITY00000000000000000000                21                          
020L1263200504079323853A85500008063200504079323853100000041837140730100000RAWSONPROPCONTRA6762                                                                                                        
020L92A855000079000080140730140730000001000001000001000000041837000000041837008135908422                                                                                                              
020L04A8551407301407301407301407300000816643BATCH     YY                                                                                                                                              
020L1063200504079323853A85500008163200504056584569100000010939140730880   RAWSONPROP211226907           CITY OF CAPE TOWN MUNICIPALITY00000000000000000000                21                          
020L1263200504079323853A85500008263200504079323853100000010939140730100000RAWSONPROPCONTRA6765                                                                                                        
020L92A855000081000082140730140730000001000001000001000000010939000000010939008135908422                                                                                                              
020L04A8551407301407301407301407300000836644BATCH     YY                                                                                                                                              
020L1063200504079323853A85500008325065562313409543100000375664140730880   RAWSONPROPRENTAL              KYLE ENGELBRECHT              00000000000000000000                21                          
020L1263200504079323853A85500008463200504079323853100000375664140730100000RAWSONPROPCONTRA6766                                                                                                        
020L92A855000083000084140730140730000001000001000001000000375664000000375664066392733396                                                                                                              
020L04A8551407301407301407301407300000856645BATCH     YY                                                                                                                                              
020L1063200504083387823A85500008563200504083415034100001582474140730880   RAWSONPROPPLIMN               PROPATIQUE CORP 53CC          00000000000000000000                21                          
020L1263200504083387823A85500008663200504083387823100001582474140730100000RAWSONPROPCONTRA6739                                                                                                        
020L92A855000085000086140730140730000001000001000001000001582474000001582474008166802857                                                                                                              
020L04A8551407301407301407301407300000876646BATCH     YY                                                                                                                                              
020L1063200504083387823A85500008763200504083415034100001900000140730880   RAWSONPROP3A58N               PROPATIQUE CORP 53CC          00000000000000000000                21                          
020L1263200504083387823A85500008863200504083387823100001900000140730100000RAWSONPROPCONTRA6742                                                                                                        
020L92A855000087000088140730140730000001000001000001000001900000000001900000008166802857                                                                                                              
020L04A8551407301407301407301407300000896647BATCH     YY                                                                                                                                              
020L1033560904084166276A85500008925400562082132384100000089840140730880   RAWSONPROPNG018B MARAIS       NATURES GATE 1                00000000000000000000                21                          
020L1233560904084166276A85500009033560904084166276100000089840140730100000RAWSONPROPCONTRA6763                                                                                                        
020L92A855000089000090140730140730000001000001000001000000089840000000089840066166298660                                                                                                              
020L04A8551407301407301407301407300000916648BATCH     YY                                                                                                                                              
020L1033560904084166276A85500009163200504056584569100000018906140730880   RAWSONPROP217677644           CITY OF CAPE TOWN             00000000000000000000                21                          
020L1233560904084166276A85500009233560904084166276100000018906140730100000RAWSONPROPCONTRA6764                                                                                                        
020L92A855000091000092140730140730000001000001000001000000018906000000018906008140750845                                                                                                              
020L04A8551407301407301407301407300000936649BATCH     YY                                                                                                                                              
020L1033560904084166276A85500009325400562223889091100000056088140730880   RAWSONPROP18 NATURES GATE COMMFIXTRADE 58 PTY LTD           00000000000000000000                21                          
020L1233560904084166276A85500009433560904084166276100000056088140730100000RAWSONPROPCONTRA6774                                                                                                        
020L92A855000093000094140730140730000001000001000001000000056088000000056088066308055367                                                                                                              
020L04A8551407301407301407301407300000956650BATCH     YY                                                                                                                                              
020L1033560904084166276A85500009505100100074146866200000245166140730880   RAWSONPROP18 NATURES GATE RAWSA W MARAIS                    00000000000000000000                21                          
020L1233560904084166276A85500009633560904084166276100000245166140730100000RAWSONPROPCONTRA6775                                                                                                        
020L92A855000095000096140730140730000001000001000001000000245166000000245166004158313142                                                                                                              
020L04A8551407301407301407301407300000976651BATCH     YY                                                                                                                                              
020L1063200504083387514A85500009763200504069925508100000300000140730880   RAWSONPROPRENT DE OUDE WERF 89DEO LABIRI (PTY) LTD          00000000000000000000                21                          
020L1263200504083387514A85500009863200504083387514100000300000140730100000RAWSONPROPCONTRA6767                                                                                                        
020L92A855000097000098140730140730000001000001000001000000300000000000300000008153313022                                                                                                              
020L04A8551407301407301407301407300000996652BATCH     YY                                                                                                                                              
020L1063200504083387514A85500009905021000072218010100000017921140730880   RAWSONPROPCOMMISSION          LANO PROP CC T/A RAWSON PAARL 00000000000000000000                21                          
020L1263200504083387514A85500010063200504083387514100000017921140730100000RAWSONPROPCONTRA6768                                                                                                        
020L92A855000099000100140730140730000001000001000001000000017921000000017921004155605524                                                                                                              
020L04A8551407301407301407301407300001016653BATCH     YY                                                                                                                                              
020L1063200504083387514A85500010163200504069925508100000360000140730880   RAWSONPROPDE OUDE WERF 66 RENTDEO LABIRI (PTY) LTD          00000000000000000000                21                          
020L1263200504083387514A85500010263200504083387514100000360000140730100000RAWSONPROPCONTRA6769                                                                                                        
020L92A855000101000102140730140730000001000001000001000000360000000000360000008153313022                                                                                                              
020L04A8551407301407301407301407300001036654BATCH     YY                                                                                                                                              
020L1063200504083387514A85500010305021000072218010100000033800140730880   RAWSONPROPCOMMISSION          LANO PROP CC T/A RAWSON PAARL 00000000000000000000                21                          
020L1263200504083387514A85500010463200504083387514100000033800140730100000RAWSONPROPCONTRA6770                                                                                                        
020L92A855000103000104140730140730000001000001000001000000033800000000033800004155605524                                                                                                              
020L04A8551407301407301407301407300001056655BATCH     YY                                                                                                                                              
020L1063200504083386720A85500010505100100001787438100000062185140730880   RAWSONPROPMUNICIPAL SERVICES  BP RAYNER                     00000000000000000000                21                          
020L1263200504083386720A85500010663200504083386720100000062185140730100000RAWSONPROPCONTRA6771                                                                                                        
020L92A855000105000106140730140730000001000001000001000000062185000000062185004085174158                                                                                                              
020L04A8551407301407301407301407300001076656BATCH     YY                                                                                                                                              
020L1063200504083386720A85500010763200509277234661100000140000140730880   RAWSONPROP14 DOLPHIN CRESCENT LONGBEACH DRYWALLS            00000000000000000000                21                          
020L1263200504083386720A85500010863200504083386720100000140000140730100000RAWSONPROPCONTRA6772                                                                                                        
020L92A855000107000108140730140730000001000001000001000000140000000000140000013360621381                                                                                                              
020L04A8551407301407301407301407300001096657BATCH     YY                                                                                                                                              
020L1063200504083386720A85500010925065550150018487100000428491140730880   RAWSONPROPMONTHLY RENT        BARBARA PIERSON               00000000000000000000                21                          
020L1263200504083386720A85500011063200504083386720100000428491140730100000RAWSONPROPCONTRA6773                                                                                                        
020L92A855000109000110140730140730000001000001000001000000428491000000428491054233405207                                                                                                              
020L04A8551407301407301407301407300001116658BATCH     YY                                                                                                                                              
020L1063200504083387001A85500011105100100272272167100000003427140730880   RAWSONPROPELEC PAID           SC ADDINALL                   00000000000000000000                21                          
020L1263200504083387001A85500011263200504083387001100000003427140730100000RAWSONPROPCONTRA6776                                                                                                        
020L92A855000111000112140730140730000001000001000001000000003427000000003427004355659168                                                                                                              
020L04A8551407301407301407301407300001136659BATCH     YY                                                                                                                                              
020L1063200504083387001A85500011363200504045066443100000022300140730880   RAWSONPROPBAY 29 ELEC         S SCHONKNECHT                 00000000000000000000                21                          
020L1263200504083387001A85500011463200504083387001100000022300140730100000RAWSONPROPCONTRA6777                                                                                                        
020L92A855000113000114140730140730000001000001000001000000022300000000022300008128453444                                                                                                              
020L04A8551407301407301407301407300001156660BATCH     YY                                                                                                                                              
020L1063200504083387001A85500011563200504056584569100000012961140730880   RAWSONPROP2029556635          CAPE TOWN ADMINISTRATION      00000000000000000000                21                          
020L1263200504083387001A85500011663200504083387001100000012961140730100000RAWSONPROPCONTRA6778                                                                                                        
020L92A855000115000116140730140730000001000001000001000000012961000000012961008139971570                                                                                                              
020L04A8551407301407301407301407300001176661BATCH     YY                                                                                                                                              
020L1063200504083387001A85500011763200504056584569100000001984140730880   RAWSONPROP202956635           CAPE TOWN ADMINISTRATION      00000000000000000000                21                          
020L1263200504083387001A85500011863200504083387001100000001984140730100000RAWSONPROPCONTRA6779                                                                                                        
020L92A855000117000118140730140730000001000001000001000000001984000000001984008139971570                                                                                                              
020L04A8551407301407301407301407300001196662BATCH     YY                                                                                                                                              
020L1063200504083387001A85500011905100100270069461100000040000140730880   RAWSONPROPELEC 8B GREY CLOSE  M C SOLOMON                   00000000000000000000                21                          
020L1263200504083387001A85500012063200504083387001100000040000140730100000RAWSONPROPCONTRA6780                                                                                                        
020L92A855000119000120140730140730000001000001000001000000040000000000040000004353456462                                                                                                              
020L04A8551407301407301407301407300001216663BATCH     YY                                                                                                                                              
020L1063200504083387001A85500012105100100076633578200000005533140730880   RAWSONPROPMUN ACC FORTUNA     NICOLE PETERSEN               00000000000000000000                21                          
020L1263200504083387001A85500012263200504083387001100000005533140730100000RAWSONPROPCONTRA6781                                                                                                        
020L92A855000121000122140730140730000001000001000001000000005533000000005533004160020579                                                                                                              
020L04A8551407301407301407301407300001236664BATCH     YY                                                                                                                                              
020L1063200504083387001A85500012305100100374288666200000005533140730880   RAWSONPROPMUN ACC FORTUNA     K PETERSEN                    00000000000000000000                21                          
020L1263200504083387001A85500012463200504083387001100000005533140730100000RAWSONPROPCONTRA6782                                                                                                        
020L92A855000123000124140730140730000001000001000001000000005533000000005533004457675667                                                                                                              
999L000000246                                                                                                                                                                                         