000L2012041012345TESTTEST                      000000100000                                                                                                                                           
030L0000001506                                                                                                                                                                                        
031L00000010000000090765462816570367799950JVAJEFFREY VAN ASWEGEN                                         00000000AHV70                                                                                
031L00000020000000090765462814956965800383JVAJEFFREY VAN ASWEGEN                                         00000000AHV73                                                                                
039L0000002000000018153092562                                                                                                                                                                         
030L0000002506                                                                                                                                                                                        
031L00000010000000045304958348008456465340RC RC TRANSACTIONAL                                            00000000AHV67                         250255000060LD00000000000000000                        
031L00000020000000039243424238008456465340RC RC DEPOSIT                                                  00000000AHV68                         250255000060LD00000000000000000                        
031L00000030000000620973636704662871445971DA DOUGLAS ANDERSON                                            00000000AHV69                         250655000060LD00000000000000000                        
031L00000040000000000704402131345940529631PDVPETER DE VILLIERS                                           00000000AHV71                         020009000060LD00000000000000000                        
031L00000050000000620973636704285493033498DA DOUGLAS ANDERSON                                            00000000AHV72                         250655000060LD00000000000000000                        
031L00000060000000000704402131116501771108PDVPETER DE VILLIERS                                           00000000AHV74                         020009000060LD00000000000000000                        
039L0000006000000132790446023                                                                                                                                                                         
999L000000014                                                                                                                                                                                         
