000L2014080404136RENTAL CONNECT PTY LTD        000037600000                                                                                                                       2593                
020L04A8551408041408041408041408040000016955BATCH     YY                                                                                                                                              
020L1033560904084166234A85500000119876501972049356100000440000140804880   RAWSONPROP44 THE VIEW         T MASHIGO                     00000000000000000000                21                          
020L1233560904084166234A85500000233560904084166234100000440000140804100000RAWSONPROPCONTRA6562                                                                                                        
020L92A855000001000002140804140804000001000001000001000000440000000000440000006056215590                                                                                                              
020L04A8551408041408041408041408040000036956BATCH     YY                                                                                                                                              
020L1033560904084166234A85500000319876501972049356100000060000140804880   RAWSONPROP44 THE VIEW OVERPAIDT MASHIGO                     00000000000000000000                21                          
020L1233560904084166234A85500000433560904084166234100000060000140804100000RAWSONPROPCONTRA6563                                                                                                        
020L92A855000003000004140804140804000001000001000001000000060000000000060000006056215590                                                                                                              
020L04A8551408041408041408041408040000056957BATCH     YY                                                                                                                                              
020L1033560904084166234A85500000505100100023341890100000227808140804880   RAWSONPROPRGE0379A            WHITFIELDS - RIVERGLADES      00000000000000000000                21                          
020L1233560904084166234A85500000633560904084166234100000227808140804100000RAWSONPROPCONTRA6583                                                                                                        
020L92A855000005000006140804140804000001000001000001000000227808000000227808004107508124                                                                                                              
020L04A8551408041408041408041408040000076958BATCH     YY                                                                                                                                              
020L1033560904084166234A85500000725065562357772732100000472192140804880   RAWSONPROP379 RIVERGLADES     J VAN DER MERWE               00000000000000000000                21                          
020L1233560904084166234A85500000833560904084166234100000472192140804100000RAWSONPROPCONTRA6587                                                                                                        
020L92A855000007000008140804140804000001000001000001000000472192000000472192066441938966                                                                                                              
020L04A8551408041408041408041408040000096959BATCH     YY                                                                                                                                              
020L1033560904084166234A85500000900001301282834088100000564000140804880   RAWSONPROP27 THE STRAIGHT     TRISHANA SINGH                00000000000000000000                21                          
020L1233560904084166234A85500001033560904084166234100000564000140804100000RAWSONPROPCONTRA6678                                                                                                        
020L92A855000009000010140804140804000001000001000001000000564000000000564000005367000322                                                                                                              
020L04A8551408041408041408041408040000116960BATCH     YY                                                                                                                                              
020L1033560904084166234A85500001133560904084166593100000078000140804880   RAWSONPROP47N1L               TRESSO TRADING 1044           00000000000000000000                21                          
020L1233560904084166234A85500001233560904084166234100000078000140804100000RAWSONPROPCONTRA6896                                                                                                        
020L92A855000011000012140804140804000001000001000001000000078000000000078000008168332827                                                                                                              
020L04A8551408041408041408041408040000136961BATCH     YY                                                                                                                                              
020L1033560904084166234A85500001325490551441106791100000531000140804880   RAWSONPROP11 PINEWOOD         P.D. PHILI                    00000000000000000000                21                          
020L1233560904084166234A85500001433560904084166234100000531000140804100000RAWSONPROPCONTRA6899                                                                                                        
020L92A855000013000014140804140804000001000001000001000000531000000000531000055525273025                                                                                                              
020L04A8551408041408041408041408040000156962BATCH     YY                                                                                                                                              
020L1063200504083387742A85500001510441001044048840100000295800140804880   RAWSONPROPRENT 91 LA PALMA    THE ROYAL TRUST               00000000000000000000                21                          
020L1263200504083387742A85500001663200504083387742100000295800140804100000RAWSONPROPCONTRA6582                                                                                                        
020L92A855000015000016140804140804000001000001000001000000295800000000295800005127436582                                                                                                              
020L04A8551408041408041408041408040000176963BATCH     YY                                                                                                                                              
020L1063200504083387742A85500001763200504056584569100000054352140804880   RAWSONPROP162469282           CITY OF CAPE TOWN             00000000000000000000                21                          
020L1263200504083387742A85500001863200504083387742100000054352140804100000RAWSONPROPCONTRA6584                                                                                                        
020L92A855000017000018140804140804000001000001000001000000054352000000054352008139972311                                                                                                              
020L04A8551408041408041408041408040000196964BATCH     YY                                                                                                                                              
020L1063200504083387742A85500001963200504056584569100000011055140804880   RAWSONPROP162469282 RATES     CITY OF CAPE TOWN             00000000000000000000                21                          
020L1263200504083387742A85500002063200504083387742100000011055140804100000RAWSONPROPCONTRA6585                                                                                                        
020L92A855000019000020140804140804000001000001000001000000011055000000011055008139972311                                                                                                              
020L04A8551408041408041408041408040000216965BATCH     YY                                                                                                                                              
020L1063200504083387742A85500002122142550050089190200000282773140804880   RAWSONPROPRENT 20 CARWELL     Q MAKALUZA                    00000000000000000000                21                          
020L1263200504083387742A85500002263200504083387742100000282773140804100000RAWSONPROPCONTRA6586                                                                                                        
020L92A855000021000022140804140804000001000001000001000000282773000000282773054133476932                                                                                                              
020L04A8551408041408041408041408040000236966BATCH     YY                                                                                                                                              
020L1063200504083387742A85500002305010100040477096100000318960140804880   RAWSONPROPRENT 108 LA PALMA   WESTINRYK DELWERYE BK         00000000000000000000                21                          
020L1263200504083387742A85500002463200504083387742100000318960140804100000RAWSONPROPCONTRA6679                                                                                                        
020L92A855000023000024140804140804000001000001000001000000318960000000318960004123864838                                                                                                              
020L04A8551408041408041408041408040000256967BATCH     YY                                                                                                                                              
020L1063200504083387742A85500002519600501058543997200000581030140804880   RAWSONPROPRENT 6 BELLHOME     NOLAN TROMP                   00000000000000000000                21                          
020L1263200504083387742A85500002663200504083387742100000581030140804100000RAWSONPROPCONTRA6680                                                                                                        
020L92A855000025000026140804140804000001000001000001000000581030000000581030005141931739                                                                                                              
020L04A8551408041408041408041408040000276968BATCH     YY                                                                                                                                              
020L1063200504083387742A85500002758010510011027847200000800000140804880   RAWSONPROPRENT 45 PAUL KRUGER T SCOTT                       00000000000000000000                21                          
020L1263200504083387742A85500002863200504083387742100000800000140804100000RAWSONPROPCONTRA6681                                                                                                        
020L92A855000027000028140804140804000001000001000001000000800000000000800000014094415589                                                                                                              
020L04A8551408041408041408041408040000296969BATCH     YY                                                                                                                                              
020L1063200504083387742A85500002963200509078301223200000498700140804880   RAWSONPROPRENT 33 GROENVLEI   RACHEL DYERS                  00000000000000000000                21                          
020L1263200504083387742A85500003063200504083387742100000498700140804100000RAWSONPROPCONTRA6682                                                                                                        
020L92A855000029000030140804140804000001000001000001000000498700000000498700013161688965                                                                                                              
020L04A8551408041408041408041408040000316970BATCH     YY                                                                                                                                              
020L1063200504083387742A85500003158010550003623606100000550000140804880   RAWSONPROPRENT 4 CARLI CRES   CHRIS TRUST                   00000000000000000000                21                          
020L1263200504083387742A85500003263200504083387742100000550000140804100000RAWSONPROPCONTRA6683                                                                                                        
020L92A855000031000032140804140804000001000001000001000000550000000000550000054087011348                                                                                                              
020L04A8551408041408041408041408040000336971BATCH     YY                                                                                                                                              
020L1063200504083387742A85500003302490900071341587100000513880140804880   RAWSONPROPRENT 15 NAPLES      LOUISE CANTIN                 00000000000000000000                21                          
020L1263200504083387742A85500003463200504083387742100000513880140804100000RAWSONPROPCONTRA6684                                                                                                        
020L92A855000033000034140804140804000001000001000001000000513880000000513880004154729329                                                                                                              
020L04A8551408041408041408041408040000356972BATCH     YY                                                                                                                                              
020L1063200504083387742A85500003505100100360460453400000292380140804880   RAWSONPROPRENT 202 TWINPALMS  ROYAL SQUARE INVESTMENTS      00000000000000000000                21                          
020L1263200504083387742A85500003663200504083387742100000292380140804100000RAWSONPROPCONTRA6685                                                                                                        
020L92A855000035000036140804140804000001000001000001000000292380000000292380004443848195                                                                                                              
020L04A8551408041408041408041408040000376973BATCH     YY                                                                                                                                              
020L1063200504083387742A85500003705010100040477096100000318960140804880   RAWSONPROPHUUR 76 LA PALMA    WESTINRYK DELWERYE BK         00000000000000000000                21                          
020L1263200504083387742A85500003863200504083387742100000318960140804100000RAWSONPROPCONTRA6686                                                                                                        
020L92A855000037000038140804140804000001000001000001000000318960000000318960004123864838                                                                                                              
020L04A8551408041408041408041408040000396974BATCH     YY                                                                                                                                              
020L1063200504083387742A85500003963200504056584569100000020000140804880   RAWSONPROP 206983086 RATES    CITY OF CAPE TOWN             00000000000000000000                21                          
020L1263200504083387742A85500004063200504083387742100000020000140804100000RAWSONPROPCONTRA6687                                                                                                        
020L92A855000039000040140804140804000001000001000001000000020000000000020000008139972311                                                                                                              
020L04A8551408041408041408041408040000416975BATCH     YY                                                                                                                                              
020L1063200504083387742A85500004163200504043753614200000388000140804880   RAWSONPROPRENT 54 SILVERMINE  C HUMAN                       00000000000000000000                21                          
020L1263200504083387742A85500004263200504083387742100000388000140804100000RAWSONPROPCONTRA6688                                                                                                        
020L92A855000041000042140804140804000001000001000001000000388000000000388000008127141356                                                                                                              
020L04A8551408041408041408041408040000436976BATCH     YY                                                                                                                                              
020L1063200504083387742A85500004363200509260505596200000035000140804880   RAWSONPROPRENEWAL FEES 74 LIMABAYPOINT TRADING 157CC        00000000000000000000                21                          
020L1263200504083387742A85500004463200504083387742100000035000140804100000RAWSONPROPCONTRA6691                                                                                                        
020L92A855000043000044140804140804000001000001000001000000035000000000035000013343893338                                                                                                              
020L04A8551408041408041408041408040000456977BATCH     YY                                                                                                                                              
020L1063200504083387742A85500004515540501554018323100000306730140804880   RAWSONPROPRENT 74 LIMA        LUNGISA GAQA                  00000000000000000000                21                          
020L1263200504083387742A85500004663200504083387742100000306730140804100000RAWSONPROPCONTRA6692                                                                                                        
020L92A855000045000046140804140804000001000001000001000000306730000000306730005637406065                                                                                                              
020L04A8551408041408041408041408040000476978BATCH     YY                                                                                                                                              
020L1063200504083387742A85500004763200509066348976100000334400140804880   RAWSONPROPHUUR 5 HAROSE       DESMOND FOURIE                00000000000000000000                21                          
020L1263200504083387742A85500004863200504083387742100000334400140804100000RAWSONPROPCONTRA6695                                                                                                        
020L92A855000047000048140804140804000001000001000001000000334400000000334400013149736718                                                                                                              
020L04A8551408041408041408041408040000496979BATCH     YY                                                                                                                                              
020L1063200504083387742A85500004963200504056584569100000020000140804880   RAWSONPROP205943550 RATES     CITY OF CAPE TOWN             00000000000000000000                21                          
020L1263200504083387742A85500005063200504083387742100000020000140804100000RAWSONPROPCONTRA6697                                                                                                        
020L92A855000049000050140804140804000001000001000001000000020000000000020000008139972311                                                                                                              
020L04A8551408041408041408041408040000516980BATCH     YY                                                                                                                                              
020L1063200504083387742A85500005125535562331738784100000388864140804880   RAWSONPROPRENT 24 NEWLANDS    MORNE H RHODE                 00000000000000000000                21                          
020L1263200504083387742A85500005263200504083387742100000388864140804100000RAWSONPROPCONTRA6699                                                                                                        
020L92A855000051000052140804140804000001000001000001000000388864000000388864066415126526                                                                                                              
020L04A8551408041408041408041408040000536981BATCH     YY                                                                                                                                              
020L1063200504083387742A85500005363200504056584569100000020445140804880   RAWSONPROP215758546 RATES     CITY OF CAPE TOWN             00000000000000000000                21                          
020L1263200504083387742A85500005463200504083387742100000020445140804100000RAWSONPROPCONTRA6700                                                                                                        
020L92A855000053000054140804140804000001000001000001000000020445000000020445008139972311                                                                                                              
020L04A8551408041408041408041408040000556982BATCH     YY                                                                                                                                              
020L1063200504083387742A85500005547001001362466326200000573555140804880   RAWSONPROPRENT  23 CAVESSON   INSHAAF MUSARURWA             00000000000000000000                21                          
020L1263200504083387742A85500005663200504083387742100000573555140804100000RAWSONPROPCONTRA6701                                                                                                        
020L92A855000055000056140804140804000001000001000001000000573555000000573555005445854068                                                                                                              
020L04A8551408041408041408041408040000576983BATCH     YY                                                                                                                                              
020L1063200504083387742A85500005763200504056584569100000050000140804880   RAWSONPROP162326052           CITY OF CAPE TOWN             00000000000000000000                21                          
020L1263200504083387742A85500005863200504083387742100000050000140804100000RAWSONPROPCONTRA6702                                                                                                        
020L92A855000057000058140804140804000001000001000001000000050000000000050000008139972311                                                                                                              
020L04A8551408041408041408041408040000596984BATCH     YY                                                                                                                                              
020L1063200504083387742A85500005904562600302765670200000602500140804880   RAWSONPROPRENT 11 POPLAR      B M JEFFERIES                 00000000000000000000                21                          
020L1263200504083387742A85500006063200504083387742100000602500140804100000RAWSONPROPCONTRA6703                                                                                                        
020L92A855000059000060140804140804000001000001000001000000602500000000602500004386153412                                                                                                              
020L04A8551408041408041408041408040000616985BATCH     YY                                                                                                                                              
020L1063200504083387742A85500006163200504056584569100000012000140804880   RAWSONPROP215383828 RATES     CITY OF CAPE TOWN             00000000000000000000                21                          
020L1263200504083387742A85500006263200504083387742100000012000140804100000RAWSONPROPCONTRA6724                                                                                                        
020L92A855000061000062140804140804000001000001000001000000012000000000012000008139972311                                                                                                              
020L04A8551408041408041408041408040000636986BATCH     YY                                                                                                                                              
020L1063200504083387742A85500006305100100045395845200000438000140804880   RAWSONPROPRENT 51 KENSINGTON  PM ZAZA                       00000000000000000000                21                          
020L1263200504083387742A85500006463200504083387742100000438000140804100000RAWSONPROPCONTRA6726                                                                                                        
020L92A855000063000064140804140804000001000001000001000000438000000000438000004128783587                                                                                                              
020L04A8551408041408041408041408040000656987BATCH     YY                                                                                                                                              
020L1063200504083387742A85500006502660900272041629100000292380140804880   RAWSONPROPRENT 71 LA PALMA    A M PRESENCE                  00000000000000000000                21                          
020L1263200504083387742A85500006663200504083387742100000292380140804100000RAWSONPROPCONTRA6727                                                                                                        
020L92A855000065000066140804140804000001000001000001000000292380000000292380004355429371                                                                                                              
020L04A8551408041408041408041408040000676988BATCH     YY                                                                                                                                              
020L1063200504083387742A85500006763200504056584569100000015000140804880   RAWSONPROP202597173 RATES     CITY OF CAPE TOWN             00000000000000000000                21                          
020L1263200504083387742A85500006863200504083387742100000015000140804100000RAWSONPROPCONTRA6728                                                                                                        
020L92A855000067000068140804140804000001000001000001000000015000000000015000008139972311                                                                                                              
020L04A8551408041408041408041408040000696989BATCH     YY                                                                                                                                              
020L1063200504083387742A85500006963200504057979167100000370450140804880   RAWSONPROPRENT 5 FLINTLOCK    BAYPOINT TRADING              00000000000000000000                21                          
020L1263200504083387742A85500007063200504083387742100000370450140804100000RAWSONPROPCONTRA6729                                                                                                        
020L92A855000069000070140804140804000001000001000001000000370450000000370450008141366909                                                                                                              
020L04A8551408041408041408041408040000716990BATCH     YY                                                                                                                                              
020L1063200504083387742A85500007120111062089773264200000280500140804880   RAWSONPROPRENT 73 LA PALMA    A CUPIDO                      00000000000000000000                21                          
020L1263200504083387742A85500007263200504083387742100000280500140804100000RAWSONPROPCONTRA6730                                                                                                        
020L92A855000071000072140804140804000001000001000001000000280500000000280500066173161006                                                                                                              
020L04A8551408041408041408041408040000736991BATCH     YY                                                                                                                                              
020L1063200504083387742A85500007347001001334547864200000290150140804880   RAWSONPROPRENT 51 SANTIAGO    E DLAMINI                     00000000000000000000                21                          
020L1263200504083387742A85500007463200504083387742100000290150140804100000RAWSONPROPCONTRA6731                                                                                                        
020L92A855000073000074140804140804000001000001000001000000290150000000290150005417935606                                                                                                              
020L04A8551408041408041408041408040000756992BATCH     YY                                                                                                                                              
020L1063200504083387742A85500007502660900272041629100000292380140804880   RAWSONPROPRENT 33 LA PALMA    A M PRESENCE                  00000000000000000000                21                          
020L1263200504083387742A85500007663200504083387742100000292380140804100000RAWSONPROPCONTRA6889                                                                                                        
020L92A855000075000076140804140804000001000001000001000000292380000000292380004355429371                                                                                                              
020L04A8551408041408041408041408040000776993BATCH     YY                                                                                                                                              
020L1063200504083387742A85500007702660900272041629100000292380140804880   RAWSONPROPRENT 38 LA PALMA    A M PRESENCE                  00000000000000000000                21                          
020L1263200504083387742A85500007863200504083387742100000292380140804100000RAWSONPROPCONTRA6950                                                                                                        
020L92A855000077000078140804140804000001000001000001000000292380000000292380004355429371                                                                                                              
020L04A8551408041408041408041408040000796994BATCH     YY                                                                                                                                              
020L1063200504083387742A85500007963200504041612638100000247500140804880   RAWSONPROPRENT 99 LA PALMA    PETER VAN AS                  00000000000000000000                21                          
020L1263200504083387742A85500008063200504083387742100000247500140804100000RAWSONPROPCONTRA7187                                                                                                        
020L92A855000079000080140804140804000001000001000001000000247500000000247500008125000380                                                                                                              
020L04A8551408041408041408041408040000816995BATCH     YY                                                                                                                                              
020L1063200504083387742A85500008163200504056584569100000026720140804880   RAWSONPROP208055064 RATES     CITY OF CAPE TOWN             00000000000000000000                21                          
020L1263200504083387742A85500008263200504083387742100000026720140804100000RAWSONPROPCONTRA7188                                                                                                        
020L92A855000081000082140804140804000001000001000001000000026720000000026720008139972311                                                                                                              
020L04A8551408041408041408041408040000836996BATCH     YY                                                                                                                                              
020L1063200504083387742A85500008320111062089773264200000620680140804880   RAWSONPROPRENT 65 PALOMINO    A CUPIDO                      00000000000000000000                21                          
020L1263200504083387742A85500008463200504083387742100000620680140804100000RAWSONPROPCONTRA7189                                                                                                        
020L92A855000083000084140804140804000001000001000001000000620680000000620680066173161006                                                                                                              
020L04A8551408041408041408041408040000856997BATCH     YY                                                                                                                                              
020L1063200504083387742A85500008525065500000000000400000600000140804880   RAWSONPROPRENT 9 MAGNUM       PRUDENCE MATAKANE             00000003000013265126                21                          
020L1263200504083387742A85500008663200504083387742100000600000140804100000RAWSONPROPCONTRA7190                                                                                                        
020L92A855000085000086140804140804000001000001000001000000600000000000600000004096652868                                                                                                              
020L04A8551408041408041408041408040000876998BATCH     YY                                                                                                                                              
020L1063200504083387742A85500008758010510011201728100000467500140804880   RAWSONPROPRENT 12 ROMAN       ANASTACIA ROSSOUW             00000000000000000000                21                          
020L1263200504083387742A85500008863200504083387742100000467500140804100000RAWSONPROPCONTRA7191                                                                                                        
020L92A855000087000088140804140804000001000001000001000000467500000000467500014094589470                                                                                                              
020L04A8551408041408041408041408040000896999BATCH     YY                                                                                                                                              
020L1063200504083387742A85500008963200504056584569100000013500140804880   RAWSONPROP162689388 RATES     CITY OF CAPE TOWN             00000000000000000000                21                          
020L1263200504083387742A85500009063200504083387742100000013500140804100000RAWSONPROPCONTRA7192                                                                                                        
020L92A855000089000090140804140804000001000001000001000000013500000000013500008139972311                                                                                                              
020L04A8551408041408041408041408040000917000BATCH     YY                                                                                                                                              
020L1063200504083387742A85500009102000900070237263100000288620140804880   RAWSONPROPRENT 50 NORMANDIE   NOYENA MGADI                  00000000000000000000                21                          
020L1263200504083387742A85500009263200504083387742100000288620140804100000RAWSONPROPCONTRA7193                                                                                                        
020L92A855000091000092140804140804000001000001000001000000288620000000288620004153625005                                                                                                              
020L04A8551408041408041408041408040000937001BATCH     YY                                                                                                                                              
020L1063200504083387742A85500009363200509208566184200000643233140804880   RAWSONPROPRENT 68 KAVALIER    M B ROBERTSON                 00000000000000000000                21                          
020L1263200504083387742A85500009463200504083387742100000643233140804100000RAWSONPROPCONTRA7195                                                                                                        
020L92A855000093000094140804140804000001000001000001000000643233000000643233013291953926                                                                                                              
020L04A8551408041408041408041408040000957002BATCH     YY                                                                                                                                              
020L1063200504083387742A85500009563200504056584569100000019148140804880   RAWSONPROP162514351           CITY OF CAPE TOWN             00000000000000000000                21                          
020L1263200504083387742A85500009663200504083387742100000019148140804100000RAWSONPROPCONTRA7199                                                                                                        
020L92A855000095000096140804140804000001000001000001000000019148000000019148008139972311                                                                                                              
020L04A8551408041408041408041408040000977003BATCH     YY                                                                                                                                              
020L1063200504083387742A85500009763200504034663416200000369292140804880   RAWSONPROPRENT 16 VON BRAUN   P A D BEETS                   00000000000000000000                21                          
020L1263200504083387742A85500009863200504083387742100000369292140804100000RAWSONPROPCONTRA7200                                                                                                        
020L92A855000097000098140804140804000001000001000001000000369292000000369292008118051158                                                                                                              
020L04A8551408041408041408041408040000997004BATCH     YY                                                                                                                                              
020L1063200504083387742A85500009963200504057979167100001540502140804880   RAWSONPROPCOMMISSION          BAYPOINT TRADING 157 CC       00000000000000000000                21                          
020L1263200504083387742A85500010063200504083387742100001540502140804100000RAWSONPROPCONTRA7226                                                                                                        
020L92A855000099000100140804140804000001000001000001000001540502000001540502008141366909                                                                                                              
020L04A8551408041408041408041408040001017005BATCH     YY                                                                                                                                              
020L1063200504083387001A85500010163200504056584569100000020569140804880   RAWSONPROP209793213           CAPE TOWN ADMINISTRATION      00000000000000000000                21                          
020L1263200504083387001A85500010263200504083387001100000020569140804100000RAWSONPROPCONTRA7093                                                                                                        
020L92A855000101000102140804140804000001000001000001000000020569000000020569008139971570                                                                                                              
020L04A8551408041408041408041408040001037006BATCH     YY                                                                                                                                              
020L1063200504083387001A85500010305100100270069461100000540460140804880   RAWSONPROPRENT 8B GREYVILLE CLM C SOLOMON                   00000000000000000000                21                          
020L1263200504083387001A85500010463200504083387001100000540460140804100000RAWSONPROPCONTRA7098                                                                                                        
020L92A855000103000104140804140804000001000001000001000000540460000000540460004353456462                                                                                                              
020L04A8551408041408041408041408040001057007BATCH     YY                                                                                                                                              
020L1063200504083387001A85500010520160960232314398100000660070140804880   RAWSONPROPRENT 81 DANIEL      M.MPAMBANI                    00000000000000000000                21                          
020L1263200504083387001A85500010663200504083387001100000660070140804100000RAWSONPROPCONTRA7099                                                                                                        
020L92A855000105000106140804140804000001000001000001000000660070000000660070064315701399                                                                                                              
020L04A8551408041408041408041408040001077008BATCH     YY                                                                                                                                              
020L1063200504083387001A85500010763200504056584569100000017943140804880   RAWSONPROP1521224413          CAPE TOWN ADMINISTRATION      00000000000000000000                21                          
020L1263200504083387001A85500010863200504083387001100000017943140804100000RAWSONPROPCONTRA7100                                                                                                        
020L92A855000107000108140804140804000001000001000001000000017943000000017943008139971570                                                                                                              
020L04A8551408041408041408041408040001097009BATCH     YY                                                                                                                                              
020L1063200504083387001A85500010963200504056584569100000017572140804880   RAWSONPROP152122413           CAPE TOWN ADMINISTRATION      00000000000000000000                21                          
020L1263200504083387001A85500011063200504083387001100000017572140804100000RAWSONPROPCONTRA7101                                                                                                        
020L92A855000109000110140804140804000001000001000001000000017572000000017572008139971570                                                                                                              
020L04A8551408041408041408041408040001117010BATCH     YY                                                                                                                                              
020L1063200504083387001A85500011163200509190258443100000212640140804880   RAWSONPROPRENT KETTLEY        BEVAN ALEXANDER (L486) L613   00000000000000000000                21                          
020L1263200504083387001A85500011263200504083387001100000212640140804100000RAWSONPROPCONTRA7102                                                                                                        
020L92A855000111000112140804140804000001000001000001000000212640000000212640013273645444                                                                                                              
020L04A8551408041408041408041408040001137011BATCH     YY                                                                                                                                              
020L1063200504083387001A85500011305100100080110800100000221425140804880   RAWSONPROPRENT KETTLEY        R G ALEXANDER                 00000000000000000000                21                          
020L1263200504083387001A85500011463200504083387001100000221425140804100000RAWSONPROPCONTRA7103                                                                                                        
020L92A855000113000114140804140804000001000001000001000000221425000000221425004163497801                                                                                                              
020L04A8551408041408041408041408040001157012BATCH     YY                                                                                                                                              
020L1063200504083387001A85500011520160960232314398100000048187140804880   RAWSONPROPWATER DANIEL RD     M.MPAMBANI                    00000000000000000000                21                          
020L1263200504083387001A85500011663200504083387001100000048187140804100000RAWSONPROPCONTRA7104                                                                                                        
020L92A855000115000116140804140804000001000001000001000000048187000000048187064315701399                                                                                                              
020L04A8551408041408041408041408040001177013BATCH     YY                                                                                                                                              
020L1063200504083387001A85500011763200504056584569100000015500140804880   RAWSONPROP205934804           CAPE TOWN ADMINISTRATION      00000000000000000000                21                          
020L1263200504083387001A85500011863200504083387001100000015500140804100000RAWSONPROPCONTRA7105                                                                                                        
020L92A855000117000118140804140804000001000001000001000000015500000000015500008139971570                                                                                                              
020L04A8551408041408041408041408040001197014BATCH     YY                                                                                                                                              
020L1063200504083387001A85500011963200501014770018100000449765140804880   RAWSONPROPRENT LOANDA         C VAN DER MERWE               00000000000000000000                21                          
020L1263200504083387001A85500012063200504083387001100000449765140804100000RAWSONPROPCONTRA7106                                                                                                        
020L92A855000119000120140804140804000001000001000001000000449765000000449765005098157019                                                                                                              
020L04A8551408041408041408041408040001217015BATCH     YY                                                                                                                                              
020L1063200504083387001A85500012120160960232314398100000042933140804880   RAWSONPROPWATER DANIEL RD     M.MPAMBANI                    00000000000000000000                21                          
020L1263200504083387001A85500012263200504083387001100000042933140804100000RAWSONPROPCONTRA7107                                                                                                        
020L92A855000121000122140804140804000001000001000001000000042933000000042933064315701399                                                                                                              
020L04A8551408041408041408041408040001237016BATCH     YY                                                                                                                                              
020L1063200504083387001A85500012363200504056584569100000030470140804880   RAWSONPROP209793213           CAPE TOWN ADMINISTRATION      00000000000000000000                21                          
020L1263200504083387001A85500012463200504083387001100000030470140804100000RAWSONPROPCONTRA7108                                                                                                        
020L92A855000123000124140804140804000001000001000001000000030470000000030470008139971570                                                                                                              
020L04A8551408041408041408041408040001257017BATCH     YY                                                                                                                                              
020L1063200504083387001A85500012563200504083387001100000518850140804880   RAWSONPROPVD STAEL FLOAT      RENTAL CONNECT                00000000000000000000                21                          
020L1263200504083387001A85500012663200504083387001100000518850140804100000RAWSONPROPCONTRA7109                                                                                                        
020L92A855000125000126140804140804000001000001000001000000518850000000518850008166774002                                                                                                              
020L04A8551408041408041408041408040001277018BATCH     YY                                                                                                                                              
020L1063200504083387001A85500012763200504056584569100000035751140804880   RAWSONPROP209793213           CAPE TOWN ADMINISTRATION      00000000000000000000                21                          
020L1263200504083387001A85500012863200504083387001100000035751140804100000RAWSONPROPCONTRA7110                                                                                                        
020L92A855000127000128140804140804000001000001000001000000035751000000035751008139971570                                                                                                              
020L04A8551408041408041408041408040001297019BATCH     YY                                                                                                                                              
020L1063200504083387001A85500012963200504083387001100000513497140804880   RAWSONPROPFLOAT VD STAEL      RENTAL CONNECT                00000000000000000000                21                          
020L1263200504083387001A85500013063200504083387001100000513497140804100000RAWSONPROPCONTRA7111                                                                                                        
020L92A855000129000130140804140804000001000001000001000000513497000000513497008166774002                                                                                                              
020L04A8551408041408041408041408040001317020BATCH     YY                                                                                                                                              
020L1063200504083387001A85500013102220900271215771100000240000140804880   RAWSONPROPINV 2120 34 NICOBAR SHARKIES PLUMBING             00000000000000000000                21                          
020L1263200504083387001A85500013263200504083387001100000240000140804100000RAWSONPROPCONTRA7112                                                                                                        
020L92A855000131000132140804140804000001000001000001000000240000000000240000004354602772                                                                                                              
020L04A8551408041408041408041408040001337021BATCH     YY                                                                                                                                              
020L1063200504083387001A85500013363200504056584569100000036208140804880   RAWSONPROP209279845           CAPE TOWN ADMINISTRATION      00000000000000000000                21                          
020L1263200504083387001A85500013463200504083387001100000036208140804100000RAWSONPROPCONTRA7113                                                                                                        
020L92A855000133000134140804140804000001000001000001000000036208000000036208008139971570                                                                                                              
020L04A8551408041408041408041408040001357022BATCH     YY                                                                                                                                              
020L1063200504083387001A85500013563200504052560434100000263292140804880   RAWSONPROPRENT NICOBAR        KATHY EVANS                   00000000000000000000                21                          
020L1263200504083387001A85500013663200504083387001100000263292140804100000RAWSONPROPCONTRA7114                                                                                                        
020L92A855000135000136140804140804000001000001000001000000263292000000263292008135947435                                                                                                              
020L04A8551408041408041408041408040001377023BATCH     YY                                                                                                                                              
020L1063200504083387001A85500013763200504056584569100000010753140804880   RAWSONPROP209279845           CAPE TOWN ADMINISTRATION      00000000000000000000                21                          
020L1263200504083387001A85500013863200504083387001100000010753140804100000RAWSONPROPCONTRA7115                                                                                                        
020L92A855000137000138140804140804000001000001000001000000010753000000010753008139971570                                                                                                              
020L04A8551408041408041408041408040001397024BATCH     YY                                                                                                                                              
020L1063200504083387001A85500013963200504054491900100000065550140804880   RAWSONPROP700/065             ST GEORGES BODY CORPORATE     00000000000000000000                21                          
020L1263200504083387001A85500014063200504083387001100000065550140804100000RAWSONPROPCONTRA7116                                                                                                        
020L92A855000139000140140804140804000001000001000001000000065550000000065550008137878901                                                                                                              
020L04A8551408041408041408041408040001417025BATCH     YY                                                                                                                                              
020L1063200504083387001A85500014102650900272081868100000373020140804880   RAWSONPROPRENT ST GEORGE      G HARMSWORTH                  00000000000000000000                21                          
020L1263200504083387001A85500014263200504083387001100000373020140804100000RAWSONPROPCONTRA7117                                                                                                        
020L92A855000141000142140804140804000001000001000001000000373020000000373020004355468869                                                                                                              
020L04A8551408041408041408041408040001437026BATCH     YY                                                                                                                                              
020L1063200504083387001A85500014363200504049357072100000007500140804880   RAWSONPROPGATE MAY            J HOMEYR                      00000000000000000000                21                          
020L1263200504083387001A85500014463200504083387001100000007500140804100000RAWSONPROPCONTRA7118                                                                                                        
020L92A855000143000144140804140804000001000001000001000000007500000000007500008132744073                                                                                                              
020L04A8551408041408041408041408040001457027BATCH     YY                                                                                                                                              
020L1063200504083387001A85500014520160960232314398100000013880140804880   RAWSONPROPWATER 81 DANIEL     M.MPAMBANI                    00000000000000000000                21                          
020L1263200504083387001A85500014663200504083387001100000013880140804100000RAWSONPROPCONTRA7119                                                                                                        
020L92A855000145000146140804140804000001000001000001000000013880000000013880064315701399                                                                                                              
020L04A8551408041408041408041408040001477028BATCH     YY                                                                                                                                              
020L1063200504083387001A85500014719600501088097561100000067550140804880   RAWSONPROP6355 47 BUITENGRACHTPOOL DOCTOR                   00000000000000000000                21                          
020L1263200504083387001A85500014863200504083387001100000067550140804100000RAWSONPROPCONTRA7120                                                                                                        
020L92A855000147000148140804140804000001000001000001000000067550000000067550005171484562                                                                                                              
020L04A8551408041408041408041408040001497029BATCH     YY                                                                                                                                              
020L1063200504083387001A85500014925065552919011149100000493530140804880   RAWSONPROPRENT BUITENGRACHT   N MANESEN                     00000000000000000000                21                          
020L1263200504083387001A85500015063200504083387001100000493530140804100000RAWSONPROPCONTRA7121                                                                                                        
020L92A855000149000150140804140804000001000001000001000000493530000000493530057002398150                                                                                                              
020L04A8551408041408041408041408040001517030BATCH     YY                                                                                                                                              
020L1063200504083387001A85500015110711001071291246100000740696140804880   RAWSONPROPRENT 56             B PAUW                        00000000000000000000                21                          
020L1263200504083387001A85500015263200504083387001100000740696140804100000RAWSONPROPCONTRA7122                                                                                                        
020L92A855000151000152140804140804000001000001000001000000740696000000740696005154678247                                                                                                              
020L04A8551408041408041408041408040001537031BATCH     YY                                                                                                                                              
020L1063200504083387001A85500015310711001071291246100000052403140804880   RAWSONPROPWATER 56 LA CAMARGUEB PAUW                        00000000000000000000                21                          
020L1263200504083387001A85500015463200504083387001100000052403140804100000RAWSONPROPCONTRA7123                                                                                                        
020L92A855000153000154140804140804000001000001000001000000052403000000052403005154678247                                                                                                              
020L04A8551408041408041408041408040001557032BATCH     YY                                                                                                                                              
020L1063200504083387001A85500015563200504044066264100000170000140804880   RAWSONPROP0010                AMALGAMATED SKILLS & TECH (ASA00000000000000000000                21                          
020L1263200504083387001A85500015663200504083387001100000170000140804100000RAWSONPROPCONTRA7124                                                                                                        
020L92A855000155000156140804140804000001000001000001000000170000000000170000008127453265                                                                                                              
020L04A8551408041408041408041408040001577033BATCH     YY                                                                                                                                              
020L1063200504083387001A85500015763200504056584569100000016069140804880   RAWSONPROP207634638           CAPE TOWN ADMINISTRATION      00000000000000000000                21                          
020L1263200504083387001A85500015863200504083387001100000016069140804100000RAWSONPROPCONTRA7125                                                                                                        
020L92A855000157000158140804140804000001000001000001000000016069000000016069008139971570                                                                                                              
020L04A8551408041408041408041408040001597034BATCH     YY                                                                                                                                              
020L1063200504083387001A85500015963200504057318886100000109993140804880   RAWSONPROPLEVY 2B CHEPSTOWE   CHEPSTOWE BODY CORP           00000000000000000000                21                          
020L1263200504083387001A85500016063200504083387001100000109993140804100000RAWSONPROPCONTRA7126                                                                                                        
020L92A855000159000160140804140804000001000001000001000000109993000000109993008140705887                                                                                                              
020L04A8551408041408041408041408040001617035BATCH     YY                                                                                                                                              
020L1063200504083387001A85500016102650900272081868100000241678140804880   RAWSONPROPRENT 2B CHEP        G HARMSWORTH                  00000000000000000000                21                          
020L1263200504083387001A85500016263200504083387001100000241678140804100000RAWSONPROPCONTRA7127                                                                                                        
020L92A855000161000162140804140804000001000001000001000000241678000000241678004355468869                                                                                                              
020L04A8551408041408041408041408040001637036BATCH     YY                                                                                                                                              
020L1063200504083387001A85500016363200509122986050100000726520140804880   RAWSONPROP302 NEPTUNE RENT    GRAPEVINE PROPERTY INVESTMENT 00000000000000000000                21                          
020L1263200504083387001A85500016463200504083387001100000726520140804100000RAWSONPROPCONTRA7128                                                                                                        
020L92A855000163000164140804140804000001000001000001000000726520000000726520013206373051                                                                                                              
020L04A8551408041408041408041408040001657037BATCH     YY                                                                                                                                              
020L1063200504083387001A85500016563200504055905940100000417518140804880   RAWSONPROPCOMMISSION          BLUE PLATINUM VENTURES (BUSI. 00000000000000000000                21                          
020L1263200504083387001A85500016663200504083387001100000417518140804100000RAWSONPROPCONTRA7129                                                                                                        
020L92A855000165000166140804140804000001000001000001000000417518000000417518008139292941                                                                                                              
020L04A8551408041408041408041408040001677038BATCH     YY                                                                                                                                              
020L1063200504083387001A85500016719876501088058132100000090000140804880   RAWSONPROPINV 59              H WILHELM                     00000000000000000000                21                          
020L1263200504083387001A85500016863200504083387001100000090000140804100000RAWSONPROPCONTRA7130                                                                                                        
020L92A855000167000168140804140804000001000001000001000000090000000000090000005171445133                                                                                                              
020L04A8551408041408041408041408040001697039BATCH     YY                                                                                                                                              
020L1063200504083387001A85500016963200504077656333100000577920140804880   RAWSONPROPRENT 103 NATALIA    S SINNOTT                     00000000000000000000                21                          
020L1263200504083387001A85500017063200504083387001100000577920140804100000RAWSONPROPCONTRA7131                                                                                                        
020L92A855000169000170140804140804000001000001000001000000577920000000577920008161043334                                                                                                              
020L04A8551408041408041408041408040001717040BATCH     YY                                                                                                                                              
020L1063200504083387001A85500017163200504055905940100001018797140804880   RAWSONPROPCOMMISSION          BLUE PLATINUM VENTURES (BUSI. 00000000000000000000                21                          
020L1263200504083387001A85500017263200504083387001100001018797140804100000RAWSONPROPCONTRA7132                                                                                                        
020L92A855000171000172140804140804000001000001000001000001018797000001018797008139292941                                                                                                              
020L04A8551408041408041408041408040001737041BATCH     YY                                                                                                                                              
020L1063200504083387001A85500017363200504055905940100000864261140804880   RAWSONPROPCOMMISSION          BLUE PLATINUM VENTURES (BUSI. 00000000000000000000                21                          
020L1263200504083387001A85500017463200504083387001100000864261140804100000RAWSONPROPCONTRA7133                                                                                                        
020L92A855000173000174140804140804000001000001000001000000864261000000864261008139292941                                                                                                              
020L04A8551408041408041408041408040001757042BATCH     YY                                                                                                                                              
020L1063200504083387001A85500017525065562097993242100000040000140804880   RAWSONPROPLEVY 19 CORSAIR     CORSAIR HOME OWNER ASS        00000000000000000000                21                          
020L1263200504083387001A85500017663200504083387001100000040000140804100000RAWSONPROPCONTRA7134                                                                                                        
020L92A855000175000176140804140804000001000001000001000000040000000000040000066181380243                                                                                                              
020L04A8551408041408041408041408040001777043BATCH     YY                                                                                                                                              
020L1063200504083387001A85500017763200504056584569100000061486140804880   RAWSONPROP203889793           CAPE TOWN ADMINISTRATION      00000000000000000000                21                          
020L1263200504083387001A85500017863200504083387001100000061486140804100000RAWSONPROPCONTRA7135                                                                                                        
020L92A855000177000178140804140804000001000001000001000000061486000000061486008139971570                                                                                                              
020L04A8551408041408041408041408040001797044BATCH     YY                                                                                                                                              
020L1063200504083387001A85500017963200538198080095100000695914140804880   RAWSONPROPRENT 19 COSAIR      J.N.PILLAY                    00000000000000000000                21                          
020L1263200504083387001A85500018063200504083387001100000695914140804100000RAWSONPROPCONTRA7136                                                                                                        
020L92A855000179000180140804140804000001000001000001000000695914000000695914042281467096                                                                                                              
020L04A8551408041408041408041408040001817045BATCH     YY                                                                                                                                              
020L1063200504083387001A85500018163200504056584569100000029683140804880   RAWSONPROP203889793           CAPE TOWN ADMINISTRATION      00000000000000000000                21                          
020L1263200504083387001A85500018263200504083387001100000029683140804100000RAWSONPROPCONTRA7137                                                                                                        
020L92A855000181000182140804140804000001000001000001000000029683000000029683008139971570                                                                                                              
020L04A8551408041408041408041408040001837046BATCH     YY                                                                                                                                              
020L1063200504083387001A85500018363200504055905940100000704879140804880   RAWSONPROPCOMMISSION          BLUE PLATINUM VENTURES (BUSI. 00000000000000000000                21                          
020L1263200504083387001A85500018463200504083387001100000704879140804100000RAWSONPROPCONTRA7138                                                                                                        
020L92A855000183000184140804140804000001000001000001000000704879000000704879008139292941                                                                                                              
020L04A8551408041408041408041408040001857047BATCH     YY                                                                                                                                              
020L1063200504083387001A85500018563200504056584569100000044534140804880   RAWSONPROP203889793           CAPE TOWN ADMINISTRATION      00000000000000000000                21                          
020L1263200504083387001A85500018663200504083387001100000044534140804100000RAWSONPROPCONTRA7139                                                                                                        
020L92A855000185000186140804140804000001000001000001000000044534000000044534008139971570                                                                                                              
020L04A8551408041408041408041408040001877048BATCH     YY                                                                                                                                              
020L1063200504083387001A85500018763200504055905940100000945664140804880   RAWSONPROPCOMMISSION          BLUE PLATINUM VENTURES (BUSI. 00000000000000000000                21                          
020L1263200504083387001A85500018863200504083387001100000945664140804100000RAWSONPROPCONTRA7140                                                                                                        
020L92A855000187000188140804140804000001000001000001000000945664000000945664008139292941                                                                                                              
020L04A8551408041408041408041408040001897049BATCH     YY                                                                                                                                              
020L1063200504083387001A85500018963200504055905940100000711901140804880   RAWSONPROPCOMMISSION          BLUE PLATINUM VENTURES (BUSI. 00000000000000000000                21                          
020L1263200504083387001A85500019063200504083387001100000711901140804100000RAWSONPROPCONTRA7141                                                                                                        
020L92A855000189000190140804140804000001000001000001000000711901000000711901008139292941                                                                                                              
020L04A8551408041408041408041408040001917050BATCH     YY                                                                                                                                              
020L1063200504083387001A85500019163200504055905940100000852380140804880   RAWSONPROPCOMMISSION          BLUE PLATINUM VENTURES (BUSI. 00000000000000000000                21                          
020L1263200504083387001A85500019263200504083387001100000852380140804100000RAWSONPROPCONTRA7142                                                                                                        
020L92A855000191000192140804140804000001000001000001000000852380000000852380008139292941                                                                                                              
020L04A8551408041408041408041408040001937051BATCH     YY                                                                                                                                              
020L1063200504083387001A85500019363200504056584569100000055300140804880   RAWSONPROP218695673           CAPE TOWN ADMINISTRATION      00000000000000000000                21                          
020L1263200504083387001A85500019463200504083387001100000055300140804100000RAWSONPROPCONTRA7143                                                                                                        
020L92A855000193000194140804140804000001000001000001000000055300000000055300008139971570                                                                                                              
020L04A8551408041408041408041408040001957052BATCH     YY                                                                                                                                              
020L1063200504083387001A85500019502220900271215771100000397500140804880   RAWSONPROP305 LAGOON VIEW     SHARKIES PLUMBING             00000000000000000000                21                          
020L1263200504083387001A85500019663200504083387001100000397500140804100000RAWSONPROPCONTRA7144                                                                                                        
020L92A855000195000196140804140804000001000001000001000000397500000000397500004354602772                                                                                                              
020L04A8551408041408041408041408040001977053BATCH     YY                                                                                                                                              
020L1063200504083387001A85500019719600501018420258100000517006140804880   RAWSONPROPRENT 305 LAGOON VIEWGERALD TODD FAMILY TRUST      00000000000000000000                21                          
020L1263200504083387001A85500019863200504083387001100000517006140804100000RAWSONPROPCONTRA7145                                                                                                        
020L92A855000197000198140804140804000001000001000001000000517006000000517006005101807259                                                                                                              
020L04A8551408041408041408041408040001997054BATCH     YY                                                                                                                                              
020L1063200504083387001A85500019963200509067797623100000055860140804880   RAWSONPROPDEP RUSTENBURG      TOM VAN RIET                  00000000000000000000                21                          
020L1263200504083387001A85500020063200504083387001100000055860140804100000RAWSONPROPCONTRA7146                                                                                                        
020L92A855000199000200140804140804000001000001000001000000055860000000055860013151184624                                                                                                              
020L04A8551408041408041408041408040002017055BATCH     YY                                                                                                                                              
020L1063200504083387001A85500020163200509067797623100000206771140804880   RAWSONPROP34/49 1/2           TOM VAN RIET                  00000000000000000000                21                          
020L1263200504083387001A85500020263200504083387001100000206771140804100000RAWSONPROPCONTRA7148                                                                                                        
020L92A855000201000202140804140804000001000001000001000000206771000000206771013151184624                                                                                                              
020L04A8551408041408041408041408040002037056BATCH     YY                                                                                                                                              
020L1063200504083387001A85500020363200504056584569100000013234140804880   RAWSONPROP207634682           CAPE TOWN ADMINISTRATION      00000000000000000000                21                          
020L1263200504083387001A85500020463200504083387001100000013234140804100000RAWSONPROPCONTRA7149                                                                                                        
020L92A855000203000204140804140804000001000001000001000000013234000000013234008139971570                                                                                                              
020L04A8551408041408041408041408040002057057BATCH     YY                                                                                                                                              
020L1063200504083387001A85500020563200504057318886100000099009140804880   RAWSONPROPLEVY A05 CHEPSTOW   CHEPSTOWE BODY CORP           00000000000000000000                21                          
020L1263200504083387001A85500020663200504083387001100000099009140804100000RAWSONPROPCONTRA7150                                                                                                        
020L92A855000205000206140804140804000001000001000001000000099009000000099009008140705887                                                                                                              
020L04A8551408041408041408041408040002077058BATCH     YY                                                                                                                                              
020L1063200504083387001A85500020702650900272081868100000176260140804880   RAWSONPROPRENT 5A CHEPSTOWE   G HARMSWORTH                  00000000000000000000                21                          
020L1263200504083387001A85500020863200504083387001100000176260140804100000RAWSONPROPCONTRA7151                                                                                                        
020L92A855000207000208140804140804000001000001000001000000176260000000176260004355468869                                                                                                              
020L04A8551408041408041408041408040002097059BATCH     YY                                                                                                                                              
020L1063200504083387001A85500020947001001256424372100000160000140804880   RAWSONPROP10 ANNANDALE        CJ MOUTON                     00000000000000000000                21                          
020L1263200504083387001A85500021063200504083387001100000160000140804100000RAWSONPROPCONTRA7152                                                                                                        
020L92A855000209000210140804140804000001000001000001000000160000000000160000005339811373                                                                                                              
020L04A8551408041408041408041408040002117060BATCH     YY                                                                                                                                              
020L1063200504083387001A85500021119600501088097561100000162000140804880   RAWSONPROPINX3376             POOL DOCTOR                   00000000000000000000                21                          
020L1263200504083387001A85500021263200504083387001100000162000140804100000RAWSONPROPCONTRA7153                                                                                                        
020L92A855000211000212140804140804000001000001000001000000162000000000162000005171484562                                                                                                              
020L04A8551408041408041408041408040002137061BATCH     YY                                                                                                                                              
020L1063200504083387001A85500021302000900070035911100000253900140804880   RAWSONPROPRENT 10 ANNANDALE   L.V.MALEFANE                  00000000000000000000                21                          
020L1263200504083387001A85500021463200504083387001100000253900140804100000RAWSONPROPCONTRA7154                                                                                                        
020L92A855000213000214140804140804000001000001000001000000253900000000253900004153422912                                                                                                              
020L04A8551408041408041408041408040002157062BATCH     YY                                                                                                                                              
020L1063200504083387001A85500021563200509199616488100000080531140804880   RAWSONPROPUNIT-308            LA DAUPHINE BODY CORPORATE    00000000000000000000                21                          
020L1263200504083387001A85500021663200504083387001100000080531140804100000RAWSONPROPCONTRA7155                                                                                                        
020L92A855000215000216140804140804000001000001000001000000080531000000080531013283003489                                                                                                              
020L04A8551408041408041408041408040002177063BATCH     YY                                                                                                                                              
020L1063200504083387001A85500021763200504056584569100000015125140804880   RAWSONPROP207622970           CAPE TOWN ADMINISTRATION      00000000000000000000                21                          
020L1263200504083387001A85500021863200504083387001100000015125140804100000RAWSONPROPCONTRA7156                                                                                                        
020L92A855000217000218140804140804000001000001000001000000015125000000015125008139971570                                                                                                              
020L04A8551408041408041408041408040002197064BATCH     YY                                                                                                                                              
020L1063200504083387001A85500021905100100074736167100000258744140804880   RAWSONPROPRENT LA DAUP        S.D.MOREIRA                   00000000000000000000                21                          
020L1263200504083387001A85500022063200504083387001100000258744140804100000RAWSONPROPCONTRA7157                                                                                                        
020L92A855000219000220140804140804000001000001000001000000258744000000258744004158123168                                                                                                              
020L04A8551408041408041408041408040002217065BATCH     YY                                                                                                                                              
020L1063200504083387001A85500022105100100070022453100000460720140804880   RAWSONPROPRENT 3 NOTTINGHAM   LINDSAY WEST                  00000000000000000000                21                          
020L1263200504083387001A85500022263200504083387001100000460720140804100000RAWSONPROPCONTRA7158                                                                                                        
020L92A855000221000222140804140804000001000001000001000000460720000000460720004153409454                                                                                                              
020L04A8551408041408041408041408040002237066BATCH     YY                                                                                                                                              
020L1063200504083387001A85500022363200504056584569100000048455140804880   RAWSONPROP133123615           CAPE TOWN ADMINISTRATION      00000000000000000000                21                          
020L1263200504083387001A85500022463200504083387001100000048455140804100000RAWSONPROPCONTRA7159                                                                                                        
020L92A855000223000224140804140804000001000001000001000000048455000000048455008139971570                                                                                                              
020L04A8551408041408041408041408040002257067BATCH     YY                                                                                                                                              
020L1063200504083387001A85500022563200504056584569100000016553140804880   RAWSONPROP219797942           CAPE TOWN ADMINISTRATION      00000000000000000000                21                          
020L1263200504083387001A85500022663200504083387001100000016553140804100000RAWSONPROPCONTRA7162                                                                                                        
020L92A855000225000226140804140804000001000001000001000000016553000000016553008139971570                                                                                                              
020L04A8551408041408041408041408040002277068BATCH     YY                                                                                                                                              
020L1063200504083387001A85500022763200504056584569100000015135140804880   RAWSONPROP219797942           CAPE TOWN ADMINISTRATION      00000000000000000000                21                          
020L1263200504083387001A85500022863200504083387001100000015135140804100000RAWSONPROPCONTRA7163                                                                                                        
020L92A855000227000228140804140804000001000001000001000000015135000000015135008139971570                                                                                                              
020L04A8551408041408041408041408040002297069BATCH     YY                                                                                                                                              
020L1063200504083387001A85500022963200504083966124100000374749140804880   RAWSONPROPCOMM 13 TAILORS     A MILLS                       00000000000000000000                21                          
020L1263200504083387001A85500023063200504083387001100000374749140804100000RAWSONPROPCONTRA7164                                                                                                        
020L92A855000229000230140804140804000001000001000001000000374749000000374749008167353125                                                                                                              
020L04A8551408041408041408041408040002317070BATCH     YY                                                                                                                                              
020L1063200504083387001A85500023125065550051230461100000645674140804880   RAWSONPROPRENT KNIGHTSBRIDGE  DONOVAN ANDRE SIMPSON         00000000000000000000                21                          
020L1263200504083387001A85500023263200504083387001100000645674140804100000RAWSONPROPCONTRA7166                                                                                                        
020L92A855000231000232140804140804000001000001000001000000645674000000645674054134617462                                                                                                              
020L04A8551408041408041408041408040002337071BATCH     YY                                                                                                                                              
020L1063200504083387001A85500023363200504056584569100000001545140804880   RAWSONPROP133123615           CAPE TOWN ADMINISTRATION      00000000000000000000                21                          
020L1263200504083387001A85500023463200504083387001100000001545140804100000RAWSONPROPCONTRA7168                                                                                                        
020L92A855000233000234140804140804000001000001000001000000001545000000001545008139971570                                                                                                              
020L04A8551408041408041408041408040002357072BATCH     YY                                                                                                                                              
020L1063200504083387001A85500023563200504056584569100000036208140804880   RAWSONPROP207740412           CAPE TOWN ADMINISTRATION      00000000000000000000                21                          
020L1263200504083387001A85500023663200504083387001100000036208140804100000RAWSONPROPCONTRA7170                                                                                                        
020L92A855000235000236140804140804000001000001000001000000036208000000036208008139971570                                                                                                              
020L04A8551408041408041408041408040002377073BATCH     YY                                                                                                                                              
020L1063200504083387001A85500023725065562061140308200000611192140804880   RAWSONPROPRENT LEERDAM 14     R WILLIAMS                    00000000000000000000                21                          
020L1263200504083387001A85500023863200504083387001100000611192140804100000RAWSONPROPCONTRA7171                                                                                                        
020L92A855000237000238140804140804000001000001000001000000611192000000611192066144527309                                                                                                              
020L04A8551408041408041408041408040002397074BATCH     YY                                                                                                                                              
020L1063200504083387001A85500023963200504056584569100000020733140804880   RAWSONPROP219797942           CAPE TOWN ADMINISTRATION      00000000000000000000                21                          
020L1263200504083387001A85500024063200504083387001100000020733140804100000RAWSONPROPCONTRA7172                                                                                                        
020L92A855000239000240140804140804000001000001000001000000020733000000020733008139971570                                                                                                              
020L04A8551408041408041408041408040002417075BATCH     YY                                                                                                                                              
020L1063200504083387001A85500024163200504083966124100000014267140804880   RAWSONPROPL/F 13 TAILORS      A MILLS                       00000000000000000000                21                          
020L1263200504083387001A85500024263200504083387001100000014267140804100000RAWSONPROPCONTRA7174                                                                                                        
020L92A855000241000242140804140804000001000001000001000000014267000000014267008167353125                                                                                                              
020L04A8551408041408041408041408040002437076BATCH     YY                                                                                                                                              
020L1063200504083387001A85500024305100100006983405200000020000140804880   RAWSONPROPRENT NAHUM          MV TENGIMFENE                 00000000000000000000                21                          
020L1263200504083387001A85500024463200504083387001100000020000140804100000RAWSONPROPCONTRA7175                                                                                                        
020L92A855000243000244140804140804000001000001000001000000020000000000020000004090370406                                                                                                              
020L04A8551408041408041408041408040002457077BATCH     YY                                                                                                                                              
020L1063200504083387001A85500024563200504056584569100000020000140804880   RAWSONPROP210412953           CAPE TOWN ADMINISTRATION      00000000000000000000                21                          
020L1263200504083387001A85500024663200504083387001100000020000140804100000RAWSONPROPCONTRA7177                                                                                                        
020L92A855000245000246140804140804000001000001000001000000020000000000020000008139971570                                                                                                              
020L04A8551408041408041408041408040002477078BATCH     YY                                                                                                                                              
020L1063200504083387001A85500024705100100070195390100000389840140804880   RAWSONPROPRENT 6 THE TYGERHOF LA RENNIE                     00000000000000000000                21                          
020L1263200504083387001A85500024863200504083387001100000389840140804100000RAWSONPROPCONTRA7178                                                                                                        
020L92A855000247000248140804140804000001000001000001000000389840000000389840004153582391                                                                                                              
020L04A8551408041408041408041408040002497079BATCH     YY                                                                                                                                              
020L1063200504083387001A85500024925065562181319437200000411990140804880   RAWSONPROPRENT CORAH          J PLUKE                       00000000000000000000                21                          
020L1263200504083387001A85500025063200504083387001100000411990140804100000RAWSONPROPCONTRA7180                                                                                                        
020L92A855000249000250140804140804000001000001000001000000411990000000411990066264706438                                                                                                              
020L04A8551408041408041408041408040002517080BATCH     YY                                                                                                                                              
