000L2014080500000RENTAL CONNECT PTY LTD        000124804136                                                                                                                                           
010LA855000002709                                                                                                                                                                                     
011LA85563200500000040793225300120140804                                                                                                                                                              
013L1020140804000429101109000000002268874100001200000RAWSONPROPRENT 14 SURREY      02682502000429                PATRICIA JANE HARPUR                                                                 
013L1020140804000581101109000000002268874100001200000RAWSONPROPRENT 14 SURREY      02682502000581                PATRICIA JANE HARPUR                                                                 
014L0000000000000000020000000000453774820000000000000000000002400000                                                                                                                                  
011LA85533560900000040841662340120140804                                                                                                                                                              
013L1020140804000009000013000000128283408800000564000RAWSONPROP27 THE STRAIGHT     89982504000009                TRISHANA SINGH                                                                       
014L0000000000000000010000000012828340880000000000000000000000564000                                                                                                                                  
019L0000000000000000030000000013282115700000000000000000000002964000                                                                                                                                  
999L000000011                                                                                                                                                                                         