000L2014071204136RENTAL CONNECT PTY LTD        000034800000                                                                                                                       2349                
020L04A8551407121407121407121407120000016302BATCH     YY                                                                                                                                              
020L1063200504083414606A85500000100425500070285179100001725000140712880   RAWSONPROPDEPOSIT TO LL ALGOA THE SUNSET BEACH TRUST        00000000000000000000                21                          
020L1263200504083414606A85500000263200504083414606100001725000140712100000RAWSONPROPCONTRA6378                                                                                                        
020L92A855000001000002140712140712000001000001000001000001725000000001725000004153699785                                                                                                              
999L000000006                                                                                                                                                                                         