00000000000000000000P2015060110831RENTAL CONNECT PTY LTD        10831                                                                                                                                                                                                                                                                                                                                                                                                                                                              000001122                          
10000000004079058521011230000120150531                          +000000000000000+00000000010069389                                                                                    AA0A                                                                                                                                                                                                                                                                                                                                         000001122                          
2000000000407905852101123000012015053120150530000000000000007196-000000000072120+00000000009997269INTERNET BANK FEE    SETTLEMENT                   INET/MOB FEE/FOOI             FN71CGI +000000000 +000000000+000000000 000007196000000003000008857000000000000000000000000000000                             0700            000000000000000                                                                                                   0000000000000000                0000000000000000000                              0000011220707                      
10000000004079188514010790000120150531                          +000000000000000+00000000000018647                                                                                    AA0A                                                                                                                                                                                                                                                                                                                                         000001122                          
2000000000407918851401079000012015053120150531000000000000000000+000000000000000+00000000000018647GEEN/NO TRAN                                                                    AA9AAA9A+000000000 +000000000+000000000 000000000000000004000000000000000000000000000000000000000                                             000000000000000                                                                                                   0000000000000000                0000000000000000000                              0000011220000                      
10000000004079189120010790000120150531                          +000000000000000+00000000000107755                                                                                    AA0A                                                                                                                                                                                                                                                                                                                                         000001122                          
2000000000407918912001079000012015053120150531000000000000000000+000000000000000+00000000000107755GEEN/NO TRAN                                                                    AA9AAA9A+000000000 +000000000+000000000 000000000000000004000000000000000000000000000000000000000                                             000000000000000                                                                                                   0000000000000000                0000000000000000000                              0000011220000                      
10000000004079321932010450000120150531                          +000000000000000+00000000000297671                                                                                    AA0A                                                                                                                                                                                                                                                                                                                                         000001122                          
2000000000407932193201045000012015053120150531000000000000000000+000000000000000+00000000000297671GEEN/NO TRAN                                                                    AA9AAA9A+000000000 +000000000+000000000 000000000000000004000000000000000000000000000000000000000                                             000000000000000                                                                                                   0000000000000000                0000000000000000000                              0000011220000                      
10000000004079322019010440000120150531                          +000000000000000+00000000000000199                                                                                    AA0A                                                                                                                                                                                                                                                                                                                                         000001122                          
2000000000407932201901044000012015053120150531000000000000000000+000000000000000+00000000000000199GEEN/NO TRAN                                                                    AA9AAA9A+000000000 +000000000+000000000 000000000000000004000000000000000000000000000000000000000                                             000000000000000                                                                                                   0000000000000000                0000000000000000000                              0000011220000                      
10000000004079322530010450000120150531                          +000000000000000+00000000013203049                                                                                    AA0A                                                                                                                                                                                                                                                                                                                                         000001122                          
2000000000407932253001045000012015053120150531000000000000000000+000000000555000+00000000013758049STOP ORDER FROM      SETTLEMENT                   ABSA BANK MISS R COGILL       FN71SIC +000000000 +000000000+000000000 000005367000000003000000000000000000000000000000000000000                             3560            000000000000000                                                                                                   0000000000000000                0000000000000000000                              0000011225166                      
10000000004079323625010450000120150531                          +000000000000000+00000000008526821                                                                                    AA0A                                                                                                                                                                                                                                                                                                                                         000001122                          
2000000000407932362501045000012015053120150531000000000000000000+000000000830000+00000000009356821IBANK PAYMENT FROM   SETTLEMENT                   ABSA BANK 42 Liberte STB018   FN71BCC +000000000 +000000000+000000000 000004366000000003000000000000000000000000000000000000000                             0330            000000000000000                                                                                                   0000000000000000                0000000000000000000                              0000011225151                      
10000000004079323748010440000120150531                          +000000000000000+00000000004316240                                                                                    AA0A                                                                                                                                                                                                                                                                                                                                         000001122                          
2000000000407932374801044000012015053120150531000000000000000000+000000000000000+00000000004316240GEEN/NO TRAN                                                                    AA9AAA9A+000000000 +000000000+000000000 000000000000000004000000000000000000000000000000000000000                                             000000000000000                                                                                                   0000000000000000                0000000000000000000                              0000011220000                      
10000000004079323803010450000120150531                          +000000000000000+00000000000000000                                                                                    AA0A                                                                                                                                                                                                                                                                                                                                         000001122                          
2000000000407932380301045000012015053120150531000000000000000000+000000000000000+00000000000000000GEEN/NO TRAN                                                                    AA9AAA9A+000000000 +000000000+000000000 000000000000000004000000000000000000000000000000000000000                                             000000000000000                                                                                                   0000000000000000                0000000000000000000                              0000011220000                      
10000000004079323853010440000120150531                          +000000000000000+00000000011614355                                                                                    AA0A                                                                                                                                                                                                                                                                                                                                         000001122                          
2000000000407932385301044000012015053120150531000000000000000000+000000000600800+00000000012215155ATM PAYMENT FR       B/FELL ATM                   ABSA BANK RC160235937         FN71BCA +000000000 +000000000+000000000 000007960000000003000000000000000000000000000000000000000                             0300            000000000000000                                                                                                   0000000000000000                0000000000000000000                              0000011225151                      
2000000000407932385301044000012015053120150531000000000000000000+000000000480000+00000000012695155ATM PAYMENT FR       B/FELL ATM                   ABSA BANK RC160231138         FN71BCA +000000000 +000000000+000000000 000007961000000005000000000000000000000000000000000000000                             0300            000000000000000                                                                                                   0000000000000000                0000000000000000000                              0000011225151                      
2000000000407932385301044000012015053120150531000000000000000000+000000000510000+00000000013205155ATM PAYMENT FR       GOODWOOD A                   ABSA BANK BRA-6HIZR           FN71BCA +000000000 +000000000+000000000 000007962000000007000000000000000000000000000000000000000                             0300            000000000000000                                                                                                   0000000000000000                0000000000000000000                              0000011225151                      
2000000000407932385301044000012015053120150531000000000000000000+000000000325000+00000000013530155CARDLESS CASH DEP    B/FELL ATM                   rc160223976                   FN71CLAD+000000000 +000000000-000005237 000007963000000009000000000000000000000000000000000000000                             0011            000000000000000                                                                                                   0000000000000000                0000000000000000000                              0000011225151                      
2000000000407932385301044000012015053120150531000000000000000000+000000000410000+00000000013940155IBANK PAYMENT FROM   SETTLEMENT                   ABSA BANK BRA-PL3ZO           FN71BCC +000000000 +000000000+000000000 000007964000000011000000000000000000000000000000000000000                             0330            000000000000000                                                                                                   0000000000000000                0000000000000000000                              0000011225151                      
10000000004079328316010440000120150531                          +000000000000000+00000000029518738                                                                                    AA0A                                                                                                                                                                                                                                                                                                                                         000001122                          
2000000000407932831601044000012015053120150531000000000000000000+000000000000000+00000000029518738GEEN/NO TRAN                                                                    AA9AAA9A+000000000 +000000000+000000000 000000000000000004000000000000000000000000000000000000000                                             000000000000000                                                                                                   0000000000000000                0000000000000000000                              0000011220000                      
10000000004079328748010430000120150531                          +000000000000000+00000000019803178                                                                                    AA0A                                                                                                                                                                                                                                                                                                                                         000001122                          
2000000000407932874801043000012015053120150531000000000000000000+000000000000000+00000000019803178GEEN/NO TRAN                                                                    AA9AAA9A+000000000 +000000000+000000000 000000000000000004000000000000000000000000000000000000000                                             000000000000000                                                                                                   0000000000000000                0000000000000000000                              0000011220000                      
10000000004079329265010440000120150531                          +000000000000000+00000000004069645                                                                                    AA0A                                                                                                                                                                                                                                                                                                                                         000001122                          
2000000000407932926501044000012015053120150531000000000000000000+000000000000000+00000000004069645GEEN/NO TRAN                                                                    AA9AAA9A+000000000 +000000000+000000000 000000000000000004000000000000000000000000000000000000000                                             000000000000000                                                                                                   0000000000000000                0000000000000000000                              0000011220000                      
10000000004079329299010430000120150531                          +000000000000000+00000000056215808                                                                                    AA0A                                                                                                                                                                                                                                                                                                                                         000001122                          
2000000000407932929901043000012015053120150531000000000000000000+000000000000000+00000000056215808GEEN/NO TRAN                                                                    AA9AAA9A+000000000 +000000000+000000000 000000000000000004000000000000000000000000000000000000000                                             000000000000000                                                                                                   0000000000000000                0000000000000000000                              0000011220000                      
10000000004079329401010440000120150531                          +000000000000000+00000000060921789                                                                                    AA0A                                                                                                                                                                                                                                                                                                                                         000001122                          
2000000000407932940101044000012015053120150531000000000000000000+000000000000000+00000000060921789GEEN/NO TRAN                                                                    AA9AAA9A+000000000 +000000000+000000000 000000000000000004000000000000000000000000000000000000000                                             000000000000000                                                                                                   0000000000000000                0000000000000000000                              0000011220000                      
10000000004083386720003900000120150531                          +000000000000000+00000000008759556                                                                                    AA0A                                                                                                                                                                                                                                                                                                                                         000001122                          
2000000000408338672000390000012015053120150531000000000000000000+000000000000000+00000000008759556GEEN/NO TRAN                                                                    AA9AAA9A+000000000 +000000000+000000000 000000000000000004000000000000000000000000000000000000000                                             000000000000000                                                                                                   0000000000000000                0000000000000000000                              0000011220000                      
10000000004083387001003910000120150531                          +000000000000000+00000000049981696                                                                                    AA0A                                                                                                                                                                                                                                                                                                                                         000001122                          
2000000000408338700100391000012015053120150531000000000000000000+000000000675000+00000000050656696IBANK PAYMENT FROM   SETTLEMENT                   ABSA BANK RC162192150         FN71BCC +000000000 +000000000+000000000 000015817000000003000000000000000000000000000000000000000                             0330            000000000000000                                                                                                   0000000000000000                0000000000000000000                              0000011225151                      
2000000000408338700100391000012015053120150531000000000000000000+000000000596087+00000000051252783IBANK PAYMENT FROM   SETTLEMENT                   ABSA BANK 30 Rustenberg str RiFN71BCC +000000000 +000000000+000000000 000015818000000005000000000000000000000000000000000000000                             0330            000000000000000                                                                                                   0000000000000000                0000000000000000000                              0000011225151                      
10000000004083387093003910000120150531                          +000000000000000+00000000000368470                                                                                    AA0A                                                                                                                                                                                                                                                                                                                                         000001122                          
2000000000408338709300391000012015053120150531000000000000000000+000000000000000+00000000000368470GEEN/NO TRAN                                                                    AA9AAA9A+000000000 +000000000+000000000 000000000000000004000000000000000000000000000000000000000                                             000000000000000                                                                                                   0000000000000000                0000000000000000000                              0000011220000                      
10000000004083387441003910000120150531                          +000000000000000+00000000015234299                                                                                    AA0A                                                                                                                                                                                                                                                                                                                                         000001122                          
2000000000408338744100391000012015053120150531000000000000000000+000000000575000+00000000015809299IBANK PAYMENT FROM   SETTLEMENT                   ABSA BANK RC161744315         FN71BCC +000000000 +000000000+000000000 000005324000000003000000000000000000000000000000000000000                             0330            000000000000000                                                                                                   0000000000000000                0000000000000000000                              0000011225151                      
10000000004083387514003910000120150531                          +000000000000000+00000000012978545                                                                                    AA0A                                                                                                                                                                                                                                                                                                                                         000001122                          
2000000000408338751400391000012015053120150531000000000000000000+000000000900000+00000000013878545IMMEDIATE TRF CR     SETTLEMENT                   FIRSTRAND Meulstr 38 Junie    FN71VPRC+000000000 +000000000+000000000 000005357000000003000000000000000000000000000000000000000                             4300            000000000000000                                                                                                   0000000000000000                0000000000000000000                              0000011225151                      
10000000004083387572003910000120150531                          +000000000000000+00000000010505498                                                                                    AA0A                                                                                                                                                                                                                                                                                                                                         000001122                          
2000000000408338757200391000012015053120150531000000000000000000+000000000360000+00000000010865498CARDLESS CASH DEP    RASC R/BAY                   m101 woudsig                  FN71CLAD+000000000 +000000000-000005745 000005431000000003000000000000000000000000000000000000000                             0011            000000000000000                                                                                                   0000000000000000                0000000000000000000                              0000011225151                      
10000000004083387742003900000120150531                          +000000000000000+00000000017935341                                                                                    AA0A                                                                                                                                                                                                                                                                                                                                         000001122                          
2000000000408338774200390000012015053120150531000000000000000000+000000000420000+00000000018355341IBANK PAYMENT FROM   SETTLEMENT                   ABSA BANK 20 Carwell          FN71BCC +000000000 +000000000+000000000 000005288000000003000000000000000000000000000000000000000                             0330            000000000000000                                                                                                   0000000000000000                0000000000000000000                              0000011225151                      
2000000000408338774200390000012015053120150531000000000000000000+000000000517000+00000000018872341CARDLESS CASH DEP    B/FELL ATM                   kuid4c21                      FN71CLAD+000000000 +000000000-000008021 000005289000000005000000000000000000000000000000000000000                             0011            000000000000000                                                                                                   0000000000000000                0000000000000000000                              0000011225151                      
10000000004083387823003910000120150531                          +000000000000000+00000000008984530                                                                                    AA0A                                                                                                                                                                                                                                                                                                                                         000001122                          
2000000000408338782300391000012015053120150531000000000000000000+000000000000000+00000000008984530GEEN/NO TRAN                                                                    AA9AAA9A+000000000 +000000000+000000000 000000000000000004000000000000000000000000000000000000000                                             000000000000000                                                                                                   0000000000000000                0000000000000000000                              0000011220000                      
10000000004083387954003910000120150531                          +000000000000000+00000000000202977                                                                                    AA0A                                                                                                                                                                                                                                                                                                                                         000001122                          
2000000000408338795400391000012015053120150531000000000000000000+000000000000000+00000000000202977GEEN/NO TRAN                                                                    AA9AAA9A+000000000 +000000000+000000000 000000000000000004000000000000000000000000000000000000000                                             000000000000000                                                                                                   0000000000000000                0000000000000000000                              0000011220000                      
10000000004083388081003910000120150531                          +000000000000000+00000000001356862                                                                                    AA0A                                                                                                                                                                                                                                                                                                                                         000001122                          
2000000000408338808100391000012015053120150531000000000000000000+000000000000000+00000000001356862GEEN/NO TRAN                                                                    AA9AAA9A+000000000 +000000000+000000000 000000000000000004000000000000000000000000000000000000000                                             000000000000000                                                                                                   0000000000000000                0000000000000000000                              0000011220000                      
10000000004083414460003870000120150531                          +000000000000000+00000000039246139                                                                                    AA0A                                                                                                                                                                                                                                                                                                                                         000001122                          
2000000000408341446000387000012015053120150531000000000000000000+000000000000000+00000000039246139GEEN/NO TRAN                                                                    AA9AAA9A+000000000 +000000000+000000000 000000000000000004000000000000000000000000000000000000000                                             000000000000000                                                                                                   0000000000000000                0000000000000000000                              0000011220000                      
10000000004083414606003870000120150531                          +000000000000000+00000000085280710                                                                                    AA0A                                                                                                                                                                                                                                                                                                                                         000001122                          
2000000000408341460600387000012015053120150531000000000000000000+000000000000000+00000000085280710GEEN/NO TRAN                                                                    AA9AAA9A+000000000 +000000000+000000000 000000000000000004000000000000000000000000000000000000000                                             000000000000000                                                                                                   0000000000000000                0000000000000000000                              0000011220000                      
10000000004083414698003870000120150531                          +000000000000000+00000000000061779                                                                                    AA0A                                                                                                                                                                                                                                                                                                                                         000001122                          
2000000000408341469800387000012015053120150531000000000000000000+000000000000000+00000000000061779GEEN/NO TRAN                                                                    AA9AAA9A+000000000 +000000000+000000000 000000000000000004000000000000000000000000000000000000000                                             000000000000000                                                                                                   0000000000000000                0000000000000000000                              0000011220000                      
10000000004083414787003870000120150531                          +000000000000000+00000000013575132                                                                                    AA0A                                                                                                                                                                                                                                                                                                                                         000001122                          
2000000000408341478700387000012015053120150531000000000000000000+000000000000000+00000000013575132GEEN/NO TRAN                                                                    AA9AAA9A+000000000 +000000000+000000000 000000000000000004000000000000000000000000000000000000000                                             000000000000000                                                                                                   0000000000000000                0000000000000000000                              0000011220000                      
10000000004083414868003870000120150531                          +000000000000000+00000000034856997                                                                                    AA0A                                                                                                                                                                                                                                                                                                                                         000001122                          
2000000000408341486800387000012015053120150531000000000000000000+000000000000000+00000000034856997GEEN/NO TRAN                                                                    AA9AAA9A+000000000 +000000000+000000000 000000000000000004000000000000000000000000000000000000000                                             000000000000000                                                                                                   0000000000000000                0000000000000000000                              0000011220000                      
10000000004083414907003870000120150531                          +000000000000000+00000000024473722                                                                                    AA0A                                                                                                                                                                                                                                                                                                                                         000001122                          
2000000000408341490700387000012015053120150531000000000000000000+000000000000000+00000000024473722GEEN/NO TRAN                                                                    AA9AAA9A+000000000 +000000000+000000000 000000000000000004000000000000000000000000000000000000000                                             000000000000000                                                                                                   0000000000000000                0000000000000000000                              0000011220000                      
10000000004083415000003870000120150531                          +000000000000000+00000000037026279                                                                                    AA0A                                                                                                                                                                                                                                                                                                                                         000001122                          
2000000000408341500000387000012015053120150531000000000000000000+000000000000000+00000000037026279GEEN/NO TRAN                                                                    AA9AAA9A+000000000 +000000000+000000000 000000000000000004000000000000000000000000000000000000000                                             000000000000000                                                                                                   0000000000000000                0000000000000000000                              0000011220000                      
10000000004083415034003870000120150531                          +000000000000000+00000000020473246                                                                                    AA0A                                                                                                                                                                                                                                                                                                                                         000001122                          
2000000000408341503400387000012015053120150531000000000000000000+000000000000000+00000000020473246GEEN/NO TRAN                                                                    AA9AAA9A+000000000 +000000000+000000000 000000000000000004000000000000000000000000000000000000000                                             000000000000000                                                                                                   0000000000000000                0000000000000000000                              0000011220000                      
10000000004083415068003870000120150531                          +000000000000000+00000000000760926                                                                                    AA0A                                                                                                                                                                                                                                                                                                                                         000001122                          
2000000000408341506800387000012015053120150531000000000000000000+000000000000000+00000000000760926GEEN/NO TRAN                                                                    AA9AAA9A+000000000 +000000000+000000000 000000000000000004000000000000000000000000000000000000000                                             000000000000000                                                                                                   0000000000000000                0000000000000000000                              0000011220000                      
10000000004083415173003870000120150531                          +000000000000000+00000000000050136                                                                                    AA0A                                                                                                                                                                                                                                                                                                                                         000001122                          
2000000000408341517300387000012015053120150531000000000000000000+000000000000000+00000000000050136GEEN/NO TRAN                                                                    AA9AAA9A+000000000 +000000000+000000000 000000000000000004000000000000000000000000000000000000000                                             000000000000000                                                                                                   0000000000000000                0000000000000000000                              0000011220000                      
10000000004084166161003230000120150531                          +000000000000000+00000000000089600                                                                                    AA0A                                                                                                                                                                                                                                                                                                                                         000001122                          
2000000000408416616100323000012015053120150531000000000000000000+000000000000000+00000000000089600GEEN/NO TRAN                                                                    AA9AAA9A+000000000 +000000000+000000000 000000000000000004000000000000000000000000000000000000000                                             000000000000000                                                                                                   0000000000000000                0000000000000000000                              0000011220000                      
10000000004084166234003230000120150531                          +000000000000000+00000000000762646                                                                                    AA0A                                                                                                                                                                                                                                                                                                                                         000001122                          
2000000000408416623400323000012015053120150531000000000000000000+000000000000000+00000000000762646GEEN/NO TRAN                                                                    AA9AAA9A+000000000 +000000000+000000000 000000000000000004000000000000000000000000000000000000000                                             000000000000000                                                                                                   0000000000000000                0000000000000000000                              0000011220000                      
10000000004084166276003230000120150531                          +000000000000000+00000000002150525                                                                                    AA0A                                                                                                                                                                                                                                                                                                                                         000001122                          
2000000000408416627600323000012015053120150531000000000000000000+000000000000000+00000000002150525GEEN/NO TRAN                                                                    AA9AAA9A+000000000 +000000000+000000000 000000000000000004000000000000000000000000000000000000000                                             000000000000000                                                                                                   0000000000000000                0000000000000000000                              0000011220000                      
10000000004084166323003230000120150531                          +000000000000000+00000000007030412                                                                                    AA0A                                                                                                                                                                                                                                                                                                                                         000001122                          
2000000000408416632300323000012015053120150531000000000000000000+000000000000000+00000000007030412GEEN/NO TRAN                                                                    AA9AAA9A+000000000 +000000000+000000000 000000000000000004000000000000000000000000000000000000000                                             000000000000000                                                                                                   0000000000000000                0000000000000000000                              0000011220000                      
10000000004084166357003230000120150531                          +000000000000000+00000000027447327                                                                                    AA0A                                                                                                                                                                                                                                                                                                                                         000001122                          
2000000000408416635700323000012015053120150531000000000000000000+000000000000000+00000000027447327GEEN/NO TRAN                                                                    AA9AAA9A+000000000 +000000000+000000000 000000000000000004000000000000000000000000000000000000000                                             000000000000000                                                                                                   0000000000000000                0000000000000000000                              0000011220000                      
10000000004084166373003230000120150531                          +000000000000000+00000000006921125                                                                                    AA0A                                                                                                                                                                                                                                                                                                                                         000001122                          
2000000000408416637300323000012015053120150531000000000000000000+000000000000000+00000000006921125GEEN/NO TRAN                                                                    AA9AAA9A+000000000 +000000000+000000000 000000000000000004000000000000000000000000000000000000000                                             000000000000000                                                                                                   0000000000000000                0000000000000000000                              0000011220000                      
10000000004084166399003230000120150531                          +000000000000000+00000000000609666                                                                                    AA0A                                                                                                                                                                                                                                                                                                                                         000001122                          
2000000000408416639900323000012015053120150531000000000000000000+000000000000000+00000000000609666GEEN/NO TRAN                                                                    AA9AAA9A+000000000 +000000000+000000000 000000000000000004000000000000000000000000000000000000000                                             000000000000000                                                                                                   0000000000000000                0000000000000000000                              0000011220000                      
10000000004084166420003230000120150531                          +000000000000000+00000000001604052                                                                                    AA0A                                                                                                                                                                                                                                                                                                                                         000001122                          
2000000000408416642000323000012015053120150531000000000000000000+000000000000000+00000000001604052GEEN/NO TRAN                                                                    AA9AAA9A+000000000 +000000000+000000000 000000000000000004000000000000000000000000000000000000000                                             000000000000000                                                                                                   0000000000000000                0000000000000000000                              0000011220000                      
10000000004084166446003230000120150531                          +000000000000000+00000000002132821                                                                                    AA0A                                                                                                                                                                                                                                                                                                                                         000001122                          
2000000000408416644600323000012015053120150531000000000000000000+000000000000000+00000000002132821GEEN/NO TRAN                                                                    AA9AAA9A+000000000 +000000000+000000000 000000000000000004000000000000000000000000000000000000000                                             000000000000000                                                                                                   0000000000000000                0000000000000000000                              0000011220000                      
10000000004084166488003230000120150531                          +000000000000000+00000000006265136                                                                                    AA0A                                                                                                                                                                                                                                                                                                                                         000001122                          
2000000000408416648800323000012015053120150531000000000000000000+000000000370000+00000000006635136CARDLESS CASH DEP    GOODWOOD A                   39 sailfish                   FN71CLAD+000000000 +000000000-000005890 000003962000000003000000000000000000000000000000000000000                             0011            000000000000000                                                                                                   0000000000000000                0000000000000000000                              0000011225151                      
10000000004084166577003230000120150531                          +000000000000000+00000000000050696                                                                                    AA0A                                                                                                                                                                                                                                                                                                                                         000001122                          
2000000000408416657700323000012015053120150531000000000000000000+000000000000000+00000000000050696GEEN/NO TRAN                                                                    AA9AAA9A+000000000 +000000000+000000000 000000000000000004000000000000000000000000000000000000000                                             000000000000000                                                                                                   0000000000000000                0000000000000000000                              0000011220000                      
10000000004084166593003230000120150531                          +000000000000000+00000000020919687                                                                                    AA0A                                                                                                                                                                                                                                                                                                                                         000001122                          
2000000000408416659300323000012015053120150531000000000000000000+000000000000000+00000000020919687GEEN/NO TRAN                                                                    AA9AAA9A+000000000 +000000000+000000000 000000000000000004000000000000000000000000000000000000000                                             000000000000000                                                                                                   0000000000000000                0000000000000000000                              0000011220000                      
10000000004084166616003230000120150531                          +000000000000000+00000000012941722                                                                                    AA0A                                                                                                                                                                                                                                                                                                                                         000001122                          
2000000000408416661600323000012015053120150531000000000000000000+000000000000000+00000000012941722GEEN/NO TRAN                                                                    AA9AAA9A+000000000 +000000000+000000000 000000000000000004000000000000000000000000000000000000000                                             000000000000000                                                                                                   0000000000000000                0000000000000000000                              0000011220000                      
10000000004084166632003220000120150531                          +000000000000000+00000000001002921                                                                                    AA0A                                                                                                                                                                                                                                                                                                                                         000001122                          
2000000000408416663200322000012015053120150531000000000000000000+000000000000000+00000000001002921GEEN/NO TRAN                                                                    AA9AAA9A+000000000 +000000000+000000000 000000000000000004000000000000000000000000000000000000000                                             000000000000000                                                                                                   0000000000000000                0000000000000000000                              0000011220000                      
10000000004084166658003230000120150531                          +000000000000000+00000000063912393                                                                                    AA0A                                                                                                                                                                                                                                                                                                                                         000001122                          
2000000000408416665800323000012015053120150531000000000000000000+000000000000000+00000000063912393GEEN/NO TRAN                                                                    AA9AAA9A+000000000 +000000000+000000000 000000000000000004000000000000000000000000000000000000000                                             000000000000000                                                                                                   0000000000000000                0000000000000000000                              0000011220000                      
10000000004084166682003220000120150531                          +000000000000000+00000000010675648                                                                                    AA0A                                                                                                                                                                                                                                                                                                                                         000001122                          
2000000000408416668200322000012015053120150531000000000000000000+000000000000000+00000000010675648GEEN/NO TRAN                                                                    AA9AAA9A+000000000 +000000000+000000000 000000000000000004000000000000000000000000000000000000000                                             000000000000000                                                                                                   0000000000000000                0000000000000000000                              0000011220000                      
10000000004084166721003230000120150531                          +000000000000000+00000000000446451                                                                                    AA0A                                                                                                                                                                                                                                                                                                                                         000001122                          
2000000000408416672100323000012015053120150531000000000000000000+000000000000000+00000000000446451GEEN/NO TRAN                                                                    AA9AAA9A+000000000 +000000000+000000000 000000000000000004000000000000000000000000000000000000000                                             000000000000000                                                                                                   0000000000000000                0000000000000000000                              0000011220000                      
10000000004084166739003230000120150531                          +000000000000000+00000000004687168                                                                                    AA0A                                                                                                                                                                                                                                                                                                                                         000001122                          
2000000000408416673900323000012015053120150531000000000000000000+000000000000000+00000000004687168GEEN/NO TRAN                                                                    AA9AAA9A+000000000 +000000000+000000000 000000000000000004000000000000000000000000000000000000000                                             000000000000000                                                                                                   0000000000000000                0000000000000000000                              0000011220000                      
10000000004084166789003230000120150531                          +000000000000000+00000000004625884                                                                                    AA0A                                                                                                                                                                                                                                                                                                                                         000001122                          
2000000000408416678900323000012015053120150531000000000000000000+000000000000000+00000000004625884GEEN/NO TRAN                                                                    AA9AAA9A+000000000 +000000000+000000000 000000000000000004000000000000000000000000000000000000000                                             000000000000000                                                                                                   0000000000000000                0000000000000000000                              0000011220000                      
10000000004084166810003230000120150531                          +000000000000000+00000000022610864                                                                                    AA0A                                                                                                                                                                                                                                                                                                                                         000001122                          
2000000000408416681000323000012015053120150531000000000000000000+000000000000000+00000000022610864GEEN/NO TRAN                                                                    AA9AAA9A+000000000 +000000000+000000000 000000000000000004000000000000000000000000000000000000000                                             000000000000000                                                                                                   0000000000000000                0000000000000000000                              0000011220000                      
10000000004084267444003090000120150531                          +000000000000000+00000000003299632                                                                                    AA0A                                                                                                                                                                                                                                                                                                                                         000001122                          
2000000000408426744400309000012015053120150531000000000000000000+000000000000000+00000000003299632GEEN/NO TRAN                                                                    AA9AAA9A+000000000 +000000000+000000000 000000000000000004000000000000000000000000000000000000000                                             000000000000000                                                                                                   0000000000000000                0000000000000000000                              0000011220000                      
10000000004084267452003080000120150531                          +000000000000000+00000000000525100                                                                                    AA0A                                                                                                                                                                                                                                                                                                                                         000001122                          
2000000000408426745200308000012015053120150531000000000000000000+000000000000000+00000000000525100GEEN/NO TRAN                                                                    AA9AAA9A+000000000 +000000000+000000000 000000000000000004000000000000000000000000000000000000000                                             000000000000000                                                                                                   0000000000000000                0000000000000000000                              0000011220000                      
10000000004084267460003090000120150531                          +000000000000000+00000000000218676                                                                                    AA0A                                                                                                                                                                                                                                                                                                                                         000001122                          
2000000000408426746000309000012015053120150531000000000000000000+000000001000000+00000000001218676IBANK PAYMENT FROM   SETTLEMENT                   ABSA BANK 21 ASCOT            FN71BCC +000000000 +000000000+000000000 000002828000000003000000000000000000000000000000000000000                             0330            000000000000000                                                                                                   0000000000000000                0000000000000000000                              0000011225151                      
10000000004084267478003090000120150531                          +000000000000000+00000000007192913                                                                                    AA0A                                                                                                                                                                                                                                                                                                                                         000001122                          
2000000000408426747800309000012015053120150531000000000000000000+000000000510000+00000000007702913IBANK PAYMENT FROM   SETTLEMENT                   ABSA BANK WEL-MR26V           FN71BCC +000000000 +000000000+000000000 000003464000000003000000000000000000000000000000000000000                             0330            000000000000000                                                                                                   0000000000000000                0000000000000000000                              0000011225151                      
2000000000408426747800309000012015053120150531000000000000000000+000000000245000+00000000007947913IBANK PAYMENT FROM   SETTLEMENT                   ABSA BANK WEL-HIPBJ           FN71BCC +000000000 +000000000+000000000 000003465000000005000000000000000000000000000000000000000                             0330            000000000000000                                                                                                   0000000000000000                0000000000000000000                              0000011225151                      
10000000004084267486003090000120150531                          +000000000000000+00000000000041454                                                                                    AA0A                                                                                                                                                                                                                                                                                                                                         000001122                          
2000000000408426748600309000012015053120150531000000000000000000+000000000000000+00000000000041454GEEN/NO TRAN                                                                    AA9AAA9A+000000000 +000000000+000000000 000000000000000004000000000000000000000000000000000000000                                             000000000000000                                                                                                   0000000000000000                0000000000000000000                              0000011220000                      
10000000004084267494003090000120150531                          +000000000000000+00000000004801624                                                                                    AA0A                                                                                                                                                                                                                                                                                                                                         000001122                          
2000000000408426749400309000012015053120150531000000000000000000+000000000000000+00000000004801624GEEN/NO TRAN                                                                    AA9AAA9A+000000000 +000000000+000000000 000000000000000004000000000000000000000000000000000000000                                             000000000000000                                                                                                   0000000000000000                0000000000000000000                              0000011220000                      
10000000004084267509003090000120150531                          +000000000000000+00000000001308392                                                                                    AA0A                                                                                                                                                                                                                                                                                                                                         000001122                          
2000000000408426750900309000012015053120150531000000000000000000+000000000000000+00000000001308392GEEN/NO TRAN                                                                    AA9AAA9A+000000000 +000000000+000000000 000000000000000004000000000000000000000000000000000000000                                             000000000000000                                                                                                   0000000000000000                0000000000000000000                              0000011220000                      
10000000004084267517003090000120150531                          +000000000000000+00000000000000000                                                                                    AA0A                                                                                                                                                                                                                                                                                                                                         000001122                          
2000000000408426751700309000012015053120150531000000000000000000+000000000000000+00000000000000000GEEN/NO TRAN                                                                    AA9AAA9A+000000000 +000000000+000000000 000000000000000004000000000000000000000000000000000000000                                             000000000000000                                                                                                   0000000000000000                0000000000000000000                              0000011220000                      
10000000004084267525003090000120150531                          +000000000000000+00000000012472661                                                                                    AA0A                                                                                                                                                                                                                                                                                                                                         000001122                          
2000000000408426752500309000012015053120150531000000000000000000+000000000614866+00000000013087527ATM PAYMENT FR       ABSA BLUFF                   ABSA BANK 32 SCHOOL ROAD      FN71BCA +000000000 +000000000+000000000 000003389000000003000000000000000000000000000000000000000                             0300            000000000000000                                                                                                   0000000000000000                0000000000000000000                              0000011225151                      
10000000004084267533003090000120150531                          +000000000000000+00000000000000000                                                                                    AA0A                                                                                                                                                                                                                                                                                                                                         000001122                          
2000000000408426753300309000012015053120150531000000000000000000+000000000000000+00000000000000000GEEN/NO TRAN                                                                    AA9AAA9A+000000000 +000000000+000000000 000000000000000004000000000000000000000000000000000000000                                             000000000000000                                                                                                   0000000000000000                0000000000000000000                              0000011220000                      
10000000004084267541003090000120150531                          +000000000000000+00000000016864150                                                                                    AA0A                                                                                                                                                                                                                                                                                                                                         000001122                          
2000000000408426754100309000012015053120150531000000000000000000+000000000465000+00000000017329150IMMEDIATE TRF CR     SETTLEMENT                   FIRSTRAND 104 Rossdeel        FN71VPRC+000000000 +000000000+000000000 000003139000000003000000000000000000000000000000000000000                             4300            000000000000000                                                                                                   0000000000000000                0000000000000000000                              0000011225151                      
10000000004084267559003080000120150531                          +000000000000000+00000000005723824                                                                                    AA0A                                                                                                                                                                                                                                                                                                                                         000001122                          
2000000000408426755900308000012015053120150531000000000000000000+000000000000000+00000000005723824GEEN/NO TRAN                                                                    AA9AAA9A+000000000 +000000000+000000000 000000000000000004000000000000000000000000000000000000000                                             000000000000000                                                                                                   0000000000000000                0000000000000000000                              0000011220000                      
10000000004084267567003090000120150531                          +000000000000000+00000000004722278                                                                                    AA0A                                                                                                                                                                                                                                                                                                                                         000001122                          
2000000000408426756700309000012015053120150531000000000000000000+000000000000000+00000000004722278GEEN/NO TRAN                                                                    AA9AAA9A+000000000 +000000000+000000000 000000000000000004000000000000000000000000000000000000000                                             000000000000000                                                                                                   0000000000000000                0000000000000000000                              0000011220000                      
10000000004084267575003090000120150531                          +000000000000000+00000000005723444                                                                                    AA0A                                                                                                                                                                                                                                                                                                                                         000001122                          
2000000000408426757500309000012015053120150531000000000000000000+000000000000000+00000000005723444GEEN/NO TRAN                                                                    AA9AAA9A+000000000 +000000000+000000000 000000000000000004000000000000000000000000000000000000000                                             000000000000000                                                                                                   0000000000000000                0000000000000000000                              0000011220000                      
10000000004084267583003080000120150531                          +000000000000000+00000000001850000                                                                                    AA0A                                                                                                                                                                                                                                                                                                                                         000001122                          
2000000000408426758300308000012015053120150531000000000000000000+000000000000000+00000000001850000GEEN/NO TRAN                                                                    AA9AAA9A+000000000 +000000000+000000000 000000000000000004000000000000000000000000000000000000000                                             000000000000000                                                                                                   0000000000000000                0000000000000000000                              0000011220000                      
10000000004084267591003090000120150531                          +000000000000000+00000000000206340                                                                                    AA0A                                                                                                                                                                                                                                                                                                                                         000001122                          
2000000000408426759100309000012015053120150531000000000000000000+000000000000000+00000000000206340GEEN/NO TRAN                                                                    AA9AAA9A+000000000 +000000000+000000000 000000000000000004000000000000000000000000000000000000000                                             000000000000000                                                                                                   0000000000000000                0000000000000000000                              0000011220000                      
10000000004084267606003090000120150531                          +000000000000000+00000000004336374                                                                                    AA0A                                                                                                                                                                                                                                                                                                                                         000001122                          
2000000000408426760600309000012015053120150531000000000000000000+000000000000000+00000000004336374GEEN/NO TRAN                                                                    AA9AAA9A+000000000 +000000000+000000000 000000000000000004000000000000000000000000000000000000000                                             000000000000000                                                                                                   0000000000000000                0000000000000000000                              0000011220000                      
10000000004084267614003090000120150531                          +000000000000000+00000000000982491                                                                                    AA0A                                                                                                                                                                                                                                                                                                                                         000001122                          
2000000000408426761400309000012015053120150531000000000000000000+000000000000000+00000000000982491GEEN/NO TRAN                                                                    AA9AAA9A+000000000 +000000000+000000000 000000000000000004000000000000000000000000000000000000000                                             000000000000000                                                                                                   0000000000000000                0000000000000000000                              0000011220000                      
10000000004084267622003080000120150531                          +000000000000000+00000000007914118                                                                                    AA0A                                                                                                                                                                                                                                                                                                                                         000001122                          
2000000000408426762200308000012015053120150531000000000000000000+000000000250000+00000000008164118CARDLESS CASH DEP    ORMONDE AS                   rumbcm27                      FN71CLAD+000000000 +000000000+000000000 000003167000000003000000000000000000000000000000000000000                             0011            000000000000000                                                                                                   0000000000000000                0000000000000000000                              0000011225151                      
2000000000408426762200308000012015053120150531000000000000000000+000000000240000+00000000008404118CARDLESS CASH DEP    ORMONDE AS                   rumbcm27                      FN71CLAD+000000000 +000000000+000000000 000003168000000005000000000000000000000000000000000000000                             0011            000000000000000                                                                                                   0000000000000000                0000000000000000000                              0000011225151                      
2000000000408426762200308000012015053120150531000000000000000000+000000000010000+00000000008414118CARDLESS CASH DEP    ORMONDE AS                   rumbcm27                      FN71CLAD+000000000 +000000000+000000000 000003169000000007000000000000000000000000000000000000000                             0011            000000000000000                                                                                                   0000000000000000                0000000000000000000                              0000011225151                      
2000000000408426762200308000012015053120150531000000000000000000+000000002385387+00000000010799505IBANK PAYMENT FROM   SETTLEMENT                   ABSA BANK RUMKROCY            FN71BCC +000000000 +000000000+000000000 000003170000000009000000000000000000000000000000000000000                             0330            000000000000000                                                                                                   0000000000000000                0000000000000000000                              0000011225151                      
10000000004084267630003090000120150531                          +000000000000000+00000000023868408                                                                                    AA0A                                                                                                                                                                                                                                                                                                                                         000001122                          
2000000000408426763000309000012015053120150531000000000000000000+000000000800000+00000000024668408IBANK PAYMENT FROM   SETTLEMENT                   ABSA BANK 2 Silver Oak Close  FN71BCC +000000000 +000000000+000000000 000002904000000003000000000000000000000000000000000000000                             0330            000000000000000                                                                                                   0000000000000000                0000000000000000000                              0000011225151                      
10000000004084267648003090000120150531                          +000000000000000+00000000005200170                                                                                    AA0A                                                                                                                                                                                                                                                                                                                                         000001122                          
2000000000408426764800309000012015053120150531000000000000000000+000000000000000+00000000005200170GEEN/NO TRAN                                                                    AA9AAA9A+000000000 +000000000+000000000 000000000000000004000000000000000000000000000000000000000                                             000000000000000                                                                                                   0000000000000000                0000000000000000000                              0000011220000                      
10000000004084267664003090000120150531                          +000000000000000+00000000000006000                                                                                    AA0A                                                                                                                                                                                                                                                                                                                                         000001122                          
2000000000408426766400309000012015053120150531000000000000000000+000000000000000+00000000000006000GEEN/NO TRAN                                                                    AA9AAA9A+000000000 +000000000+000000000 000000000000000004000000000000000000000000000000000000000                                             000000000000000                                                                                                   0000000000000000                0000000000000000000                              0000011220000                      
10000000004084267672003080000120150531                          +000000000000000+00000000000006000                                                                                    AA0A                                                                                                                                                                                                                                                                                                                                         000001122                          
2000000000408426767200308000012015053120150531000000000000000000+000000000000000+00000000000006000GEEN/NO TRAN                                                                    AA9AAA9A+000000000 +000000000+000000000 000000000000000004000000000000000000000000000000000000000                                             000000000000000                                                                                                   0000000000000000                0000000000000000000                              0000011220000                      
10000000004084267680003090000120150531                          +000000000000000+00000000000000000                                                                                    AA0A                                                                                                                                                                                                                                                                                                                                         000001122                          
2000000000408426768000309000012015053120150531000000000000000000+000000000000000+00000000000000000GEEN/NO TRAN                                                                    AA9AAA9A+000000000 +000000000+000000000 000000000000000004000000000000000000000000000000000000000                                             000000000000000                                                                                                   0000000000000000                0000000000000000000                              0000011220000                      
10000000004084267698003080000120150531                          +000000000000000+00000000000400230                                                                                    AA0A                                                                                                                                                                                                                                                                                                                                         000001122                          
2000000000408426769800308000012015053120150531000000000000000000+000000000000000+00000000000400230GEEN/NO TRAN                                                                    AA9AAA9A+000000000 +000000000+000000000 000000000000000004000000000000000000000000000000000000000                                             000000000000000                                                                                                   0000000000000000                0000000000000000000                              0000011220000                      
10000000004084267703003090000120150531                          +000000000000000+00000000007501271                                                                                    AA0A                                                                                                                                                                                                                                                                                                                                         000001122                          
2000000000408426770300309000012015053120150531000000000000000000+000000000000000+00000000007501271GEEN/NO TRAN                                                                    AA9AAA9A+000000000 +000000000+000000000 000000000000000004000000000000000000000000000000000000000                                             000000000000000                                                                                                   0000000000000000                0000000000000000000                              0000011220000                      
10000000004084267711003090000120150531                          +000000000000000+00000000036994845                                                                                    AA0A                                                                                                                                                                                                                                                                                                                                         000001122                          
2000000000408426771100309000012015053120150529000000000000000000+000000000265800+00000000037260645ACB CONTRA           SETTLEMENT                   UNPAID    7, KORHAAN STREET, AFN71AKC +000000000 +000000000+000000000 000003384000000003000000000000000000000000000000000000000                             0190            000000000000000                                                                                                   0000000000000000                0000000000000000000                              0000011225151                      
2000000000408426771100309000012015053120150531000000000000000000+000000000530000+00000000037790645IBANK PAYMENT FROM   SETTLEMENT                   ABSA BANK GEO-5YVOX           FN71BCC +000000000 +000000000+000000000 000003385000000006000000000000000000000000000000000000000                             0330            000000000000000                                                                                                   0000000000000000                0000000000000000000                              0000011225151                      
2000000000408426771100309000012015053120150531000000000000000000+000000000450000+00000000038240645CARDLESS CASH DEP    GEORGE RAS                   geo zhbwn                     FN71CLAD+000000000 +000000000+000000000 000003386000000008000000000000000000000000000000000000000                             0011            000000000000000                                                                                                   0000000000000000                0000000000000000000                              0000011225151                      
2000000000408426771100309000012015053120150531000000000000000000+000000000687233+00000000038927878IBANK PAYMENT FROM   SETTLEMENT                   ABSA BANK GEO B7OWQ           FN71BCC +000000000 +000000000+000000000 000003388000000010000000000000000000000000000000000000000                             0330            000000000000000                                                                                                   0000000000000000                0000000000000000000                              0000011225151                      
2000000000408426771100309000012015053120150531000000000000000000+000000000280000+00000000039207878IBANK PAYMENT FROM   SETTLEMENT                   ABSA BANK GEO-5C12B           FN71BCC +000000000 +000000000+000000000 000003390000000012000000000000000000000000000000000000000                             0330            000000000000000                                                                                                   0000000000000000                0000000000000000000                              0000011225151                      
2000000000408426771100309000012015053120150531000000000000000000+000000000022122+00000000039230000IBANK PAYMENT FROM   SETTLEMENT                   ABSA BANK GEO-R0C0K           FN71BCC +000000000 +000000000+000000000 000003392000000014000000000000000000000000000000000000000                             0330            000000000000000                                                                                                   0000000000000000                0000000000000000000                              0000011225151                      
10000000004084267729003080000120150531                          +000000000000000+00000000000000000                                                                                    AA0A                                                                                                                                                                                                                                                                                                                                         000001122                          
