00000000000000000000P2012060510831RENTAL CONNECT PTY LTD        10831                                                                                                                                                                                                                                                                                                                                                                                                                                                              000000031                          
10000000004079058521000320000120120604                          +000000000000000+00000000000006941                                                                                    AA0A                                                                                                                                                                                                                                                                                                                                         000000031                          
2000000000407905852100032000012012060420120604000000000000000102-000000000005245+00000000000001696ABSA FEE             SETTLEMENT                   Business Integrator Fees      FN71CGW +000000000 +000000000+000000000 000000102000000004000000000000000000000000000000000000000                             0710            000000000000000                                                                                                   0000000000000000                0000000000000000000                              0000000310404                      
2000000000407905852100032000012012060420120604000000000000000104-000000000005860-00000000000004164ABSA FEE             SETTLEMENT                   Business Integrator Fees      FN71CGW +000000000 +000000000+000000000 000000104000000006000000000000000000000000000000000000000                             0710            000000000000000                                                                                                   0000000000000000                0000000000000000000                              0000000310404                      
2000000000407905852100032000012012060420120604000000000000000105-000000000005245-00000000000009409ABSA FEE             SETTLEMENT                   Business Integrator Fees      FN71CGW +000000000 +000000000+000000000 000000105000000008000000000000000000000000000000000000000                             0710            000000000000000                                                                                                   0000000000000000                0000000000000000000                              0000000310404                      
2000000000407905852100032000012012060420120604000000000000000106-000000000008446-00000000000017855ABSA FEE             SETTLEMENT                   Business Integrator Fees      FN71CGW +000000000 +000000000+000000000 000000106000000010000000000000000000000000000000000000000                             0710            000000000000000                                                                                                   0000000000000000                0000000000000000000                              0000000310404                      
2000000000407905852100032000012012060420120604000000000000000107-000000000005521-00000000000023376ABSA FEE             SETTLEMENT                   Business Integrator Fees      FN71CGW +000000000 +000000000+000000000 000000107000000012000000000000000000000000000000000000000                             0710            000000000000000                                                                                                   0000000000000000                0000000000000000000                              0000000310404                      
89999999999999999999                                            -00000000000030317                                                                                                           0000000007                                                                                                                                                                                                                                                                                                                            000000031                          
99999999999999999999P20120605                                                                                                                                                                0000000009                                                                                                                                                                                                                                                                                                                            000000031                          
