00000000000000000000P2012060210831RENTAL CONNECT PTY LTD        10831                                                                                                                                                                                                                                                                                                                                                                                                                                                              000000028                          
10000000004079058521000290000120120601                          +000000000000000+00000000000034862                                                                                    AA0A                                                                                                                                                                                                                                                                                                                                         000000028                          
2000000000407905852100029000012012060120120601000000000000000000-000000000006180+00000000000028682MIN SERVICE FEE      HEADOFFICE                                                 CG71SERM+000000000 +000000000+000000000 000000096000000003000003405000000000000000000000000000000                             3491            000000000000000                                                                                                   0000000000000000                0000000000000000000                              0000000280404                      
2000000000407905852100029000012012060120120601000000000000000000-000000000021600+00000000000007082ADMIN CHARGE         HEADOFFICE                                                 CG71ADMC+000000000 +000000000+000000000 000000096000000004000000000000000000000000000000000000000                             0100            000000000000000                                                                                                   0000000000000000                0000000000000000000                              0000000280505                      
2000000000407905852100029000012012060120120601000000000000000000-000000000000075+00000000000007007DEBIT INTEREST       HEADOFFICE                                                 IN71INDR+000000000 +000000000+000000000 000000097000000005000000000000000000000000000000000000000                             2160            000000000000000                                                                                                   0000000000000000                0000000000000000000                              0000000280808                      
2000000000407905852100029000012012060120120601000000000000000000-000000000000066+00000000000006941INT ON EXCESS AMNT   HEADOFFICE                                                 IN71PENI+000000000 +000000000+000000000 000000097000000006000000000000000000000000000000000000000                             2650            000000000000000                                                                                                   0000000000000000                0000000000000000000                              0000000280808                      
89999999999999999999                                            -00000000000027921                                                                                                           0000000006                                                                                                                                                                                                                                                                                                                            000000028                          
99999999999999999999P20120602                                                                                                                                                                0000000008                                                                                                                                                                                                                                                                                                                            000000028                          
