000L2012041012347TESTTEST                      000000100000                                                                                                                                           
020L0499991204101204111204111204110000010001BATCH                                                                                                                                                     
020L1025025504530495834999900000125065562097363670100000406700120411880   TESTTEST  260                 DOUGLAS ANDERSON              00000000000000000000                21                          
020L1025025504530495834999900000263200509076546281200000427300120411880   TESTTEST  261                 JEFFREY VAN ASWEGEN           00000000000000000000                21                          
020L1025025504530495834999900000302000900070440213100000418000120411880   TESTTEST  262                 PETER DE VILLIERS             00000000000000000000                21                          
020L1225025504530495834999900000425025504530495834100001252000120411100000TESTTEST  CONTRA03493                                                                                                       
020L929999000001000004120411120411000001000003000001000001252000000001252000075774845998                                                                                                              
999L000000008                                                                                                                                                                                         
