000L2015072905035RENTAL CONNECT PTY LTD        000018400000                                                                                                                       5386                
001L04B4901507291507311507311507310000010184TWO DAY   YY                                                                                                                                              
001L5063200504084166357B49000000105100100422057630100000626178150731440   RENTAL CON735                 IN2IT TECHNOLOGIES            00000000000000000000                21                          
001L5263200504084166357B49000000263200504084166357100000626178150731100000RENTAL CONCONTRAPAU-EY0KI                                                                                                   
001L5063200504084267494B49000000325400550260014101100000570000150731440   RENTAL CON732                 DW OPPERMAN                   00000000000000000000                21                          
001L5263200504084267494B49000000463200504084267494100000570000150731100000RENTAL CONCONTRAWOR-Z17T1                                                                                                   
001L5063200504084267525B49000000547001001266277739200000786480150731440   RENTAL CON757                 AC VANDEN BERG                00000000000000000000                21                          
001L5263200504084267525B49000000663200504084267525100000786480150731100000RENTAL CONCONTRABLU-JKFMT                                                                                                   
001L5063200504084267567B49000000705100100281703175100000390000150731440   RENTAL CON759                 DE SOUSA LV                   00000000000000000000                21                          
001L5263200504084267567B49000000863200504084267567100000390000150731100000RENTAL CONCONTRARUS-UHFWL                                                                                                   
001L5063200504084267711B49000000925400562128810761100000220000150731440   RENTAL CON741                 V. MARS                       00000000000000000000                21                          
001L5263200504084267711B49000001063200504084267711100000220000150731100000RENTAL CONCONTRAGEO-CGUSL                                                                                                   
001L92B490000001000010150731150731000005000005000005000002592658000002592658134780100060                                                                                                              
999L000000014                                                                                                                                                                                         