000L2012041012346TESTTEST                      000000100000                                                                                                                                           
001L0499991204101204111204111204110000010001TWO DAY                                                                                                                                                   
001L5025025504530495834999900000125065562097363670100000301400120411440   TESTTEST  544                 DOUGLAS ANDERSON              00000000000000000000                21                          
001L5025025504530495834999900000263200509076546281200000315000120411440   TESTTEST  545                 JEFFREY VAN ASWEGEN           00000000000000000000                21                          
001L5025025504530495834999900000302000900070440213100000279300120411440   TESTTEST  546                 PETER DE VILLIERS             00000000000000000000                21                          
001L5225025504530495834999900000425025504530495834100000895700120411100000TESTTEST  CONTRA19                                                                                                          
001L929999000001000004120411120411000003000001000001000000895700000000895700075774845998                                                                                                              
999L000000008                                                                                                                                                                                         
