000L2015053004136RENTAL CONNECT PTY LTD        000084600000                                                                                                                       4908                
020L04A8551505301505301505301505300000013446BATCH     YY                                                                                                                                              
020L1063200504079323748A85500000119876501983075795100000114984150530880   RAWSONPROP23FISHEAGLE UTILITY N VISAGIE                     00000000000000000000                21                          
020L1263200504079323748A85500000263200504079323748100000114984150530100000RAWSONPROPCONTRA33636                                                                                                       
020L92A855000001000002150530150530000001000001000001000000114984000000114984006062399543                                                                                                              
020L04A8551505301505301505301505300000033447BATCH     YY                                                                                                                                              
020L1063200504079323748A85500000325465562480444406100000080000150530880   RAWSONPROPCOMMISSION          RAWSON RENTALS GWR            00000000000000000000                21                          
020L1263200504079323748A85500000463200504079323748100000080000150530100000RAWSONPROPCONTRA33647                                                                                                       
020L92A855000003000004150530150530000001000001000001000000080000000000080000066559768154                                                                                                              
020L04A8551505301505301505301505300000053448BATCH     YY                                                                                                                                              
020L1063200504079323748A85500000525400562480444406100000034375150530880   RAWSONPROP17MISSISSIPPILATEFEERAWSON RENTALS GWR            00000000000000000000                21                          
020L1263200504079323748A85500000663200504079323748100000034375150530100000RAWSONPROPCONTRA33650                                                                                                       
020L92A855000005000006150530150530000001000001000001000000034375000000034375066559768154                                                                                                              
020L04A8551505301505301505301505300000073449BATCH     YY                                                                                                                                              
020L1063200504079323748A85500000725400562480444406100000006927150530880   RAWSONPROP20MOUNTAINVIEWCASHFERAWSON RENTALS GWR            00000000000000000000                21                          
020L1263200504079323748A85500000863200504079323748100000006927150530100000RAWSONPROPCONTRA33653                                                                                                       
020L92A855000007000008150530150530000001000001000001000000006927000000006927066559768154                                                                                                              
020L04A8551505301505301505301505300000093450BATCH     YY                                                                                                                                              
020L1063200504079323748A85500000925400562480444406100000127463150530880   RAWSONPROP57 EAGLE GROVE      RAWSON RENTALS GWR            00000000000000000000                21                          
020L1263200504079323748A85500001063200504079323748100000127463150530100000RAWSONPROPCONTRA33654                                                                                                       
020L92A855000009000010150530150530000001000001000001000000127463000000127463066559768154                                                                                                              
020L04A8551505301505301505301505300000113451BATCH     YY                                                                                                                                              
020L1063200504079323748A85500001163200504079328316100000005000150530880   RAWSONPROP2X8KF               RAWSON RENTALS GWR            00000000000000000000                21                          
020L1263200504079323748A85500001263200504079323748100000005000150530100000RAWSONPROPCONTRA33689                                                                                                       
020L92A855000011000012150530150530000001000001000001000000005000000000005000008158652064                                                                                                              
020L04A8551505301505301505301505300000133452BATCH     YY                                                                                                                                              
020L1063200504079323748A85500001300020500000165557100000337906150530880   RAWSONPROP552687914           CITY OF JOHANNESBURG          00000000000000000000                21                          
020L1263200504079323748A85500001463200504079323748100000337906150530100000RAWSONPROPCONTRA34008                                                                                                       
020L92A855000013000014150530150530000001000001000001000000337906000000337906004079489305                                                                                                              
020L04A8551505301505301505301505300000153453BATCH     YY                                                                                                                                              
020L1063200504079323748A85500001563200504046186298100000209452150530880   RAWSONPROP26CHELSEAPARTPAYRENTMC LORD                       00000000000000000000                21                          
020L1263200504079323748A85500001663200504079323748100000209452150530100000RAWSONPROPCONTRA34009                                                                                                       
020L92A855000015000016150530150530000001000001000001000000209452000000209452008125510046                                                                                                              
020L04A8551505301505301505301505300000173454BATCH     YY                                                                                                                                              
020L1063200504084166323A85500001725400562202987791100000312251150530880   RAWSONPROP00088204            1C BROOKWOOD RENPROP MANAGEMEN00000000000000000000                21                          
020L1263200504084166323A85500001863200504084166323100000312251150530100000RAWSONPROPCONTRA34054                                                                                                       
020L92A855000017000018150530150530000001000001000001000000312251000000312251066287154114                                                                                                              
020L04A8551505301505301505301505300000193455BATCH     YY                                                                                                                                              
020L1063200504084166323A85500001925345562300770098100000873689150530880   RAWSONPROP13 SANDOWN COURT, 13G SIDAKI                      00000000000000000000                21                          
020L1263200504084166323A85500002063200504084166323100000873689150530100000RAWSONPROPCONTRA34056                                                                                                       
020L92A855000019000020150530150530000001000001000001000000873689000000873689066384936421                                                                                                              
020L04A8551505301505301505301505300000213456BATCH     YY                                                                                                                                              
020L1063200504084166323A85500002119700501434009548100000704284150530880   RAWSONPROP1C BROOKWOOD, 1 KINGB RHEEDERS                    00000000000000000000                21                          
020L1263200504084166323A85500002263200504084166323100000704284150530100000RAWSONPROPCONTRA34208                                                                                                       
020L92A855000021000022150530150530000001000001000001000000704284000000704284005518175871                                                                                                              
020L04A8551505301505301505301505300000233457BATCH     YY                                                                                                                                              
020L1063200504084166323A85500002363200501238130031100000498649150530880   RAWSONPROPB202 MONTEGA, 95 KATA HAFFEJEE                    00000000000000000000                21                          
020L1263200504084166323A85500002463200504084166323100000498649150530100000RAWSONPROPCONTRA34209                                                                                                       
020L92A855000023000024150530150530000001000001000001000000498649000000498649005322296354                                                                                                              
020L04A8551505301505301505301505300000253458BATCH     YY                                                                                                                                              
020L1063200504084166323A85500002519876501955005982100000870450150530880   RAWSONPROP5 VIA ORVIETTO, 14 OA CARR                        00000000000000000000                21                          
020L1263200504084166323A85500002663200504084166323100000870450150530100000RAWSONPROPCONTRA34210                                                                                                       
020L92A855000025000026150530150530000001000001000001000000870450000000870450006039172305                                                                                                              
020L04A8551505301505301505301505300000273459BATCH     YY                                                                                                                                              
020L1063200504084166323A85500002705100100270739335100000426774150530880   RAWSONPROP32950022007         TRAFALGAR PROPERTY MANAGEMENT 00000000000000000000                21                          
020L1263200504084166323A85500002863200504084166323100000426774150530100000RAWSONPROPCONTRA34211                                                                                                       
020L92A855000027000028150530150530000001000001000001000000426774000000426774004354905658                                                                                                              
020L04A8551505301505301505301505300000293460BATCH     YY                                                                                                                                              
020L1063200504084166323A85500002905100100005833450100000811686150530880   RAWSONPROP22 MELROSE GARDENS, J NAIK                        00000000000000000000                21                          
020L1263200504084166323A85500003063200504084166323100000811686150530100000RAWSONPROPCONTRA34212                                                                                                       
020L92A855000029000030150530150530000001000001000001000000811686000000811686004089999773                                                                                                              
020L04A8551505301505301505301505300000313461BATCH     YY                                                                                                                                              
020L1063200504084166357A85500003119600501969197862100000300000150530880   RAWSONPROPISS                 GC DAVY                       00000000000000000000                21                          
020L1263200504084166357A85500003263200504084166357100000300000150530100000RAWSONPROPCONTRA34185                                                                                                       
020L92A855000031000032150530150530000001000001000001000000300000000000300000006053364219                                                                                                              
020L04A8551505301505301505301505300000333462BATCH     YY                                                                                                                                              
020L1063200504084267606A85500003325065560447260790100000717760150530880   RAWSONPROP75 OAKMONT, 1 , NORTDW HEDDING                    00000000000000000000                21                          
020L1263200504084267606A85500003463200504084267606100000717760150530100000RAWSONPROPCONTRA34186                                                                                                       
020L92A855000033000034150530150530000001000001000001000000717760000000717760064531528396                                                                                                              
020L04A8551505301505301505301505300000353463BATCH     YY                                                                                                                                              
020L1063200504084267606A85500003563200504082853366100000049792150530880   RAWSONPROPCOMMISSION          EXPERTPROP PTY LTD T/A RAWSON 00000000000000000000                21                          
020L1263200504084267606A85500003663200504084267606100000049792150530100000RAWSONPROPCONTRA34187                                                                                                       
020L92A855000035000036150530150530000001000001000001000000049792000000049792008167120972                                                                                                              
020L04A8551505301505301505301505300000373464BATCH     YY                                                                                                                                              
020L1063200504084267606A85500003763200504082853366100000540586150530880   RAWSONPROPCOMMISSION          EXPERTPROP PTY LTD T/A RAWSON 00000000000000000000                21                          
020L1263200504084267606A85500003863200504084267606100000540586150530100000RAWSONPROPCONTRA34188                                                                                                       
020L92A855000037000038150530150530000001000001000001000000540586000000540586008167120972                                                                                                              
020L04A8551505301505301505301505300000393465BATCH     YY                                                                                                                                              
020L1063200504084267737A85500003925400562114258587100000046500150530880   RAWSONPROPUNIT 17             MILANO BODY CORPORATE         00000000000000000000                21                          
020L1263200504084267737A85500004063200504084267737100000046500150530100000RAWSONPROPCONTRA34189                                                                                                       
020L92A855000039000040150530150530000001000001000001000000046500000000046500066198526324                                                                                                              
020L04A8551505301505301505301505300000413466BATCH     YY                                                                                                                                              
020L1063200504084267737A85500004105100100071995382100000343340150530880   RAWSONPROPMILANO 17, HYACINTH J. DANIELS                    00000000000000000000                21                          
020L1263200504084267737A85500004263200504084267737100000343340150530100000RAWSONPROPCONTRA34190                                                                                                       
020L92A855000041000042150530150530000001000001000001000000343340000000343340004156263119                                                                                                              
020L04A8551505301505301505301505300000433467BATCH     YY                                                                                                                                              
020L1063200504084267737A85500004319876501186019581100000086225150530880   RAWSONPROP700/077             HILLCREST BODY CORP           00000000000000000000                21                          
020L1263200504084267737A85500004463200504084267737100000086225150530100000RAWSONPROPCONTRA34191                                                                                                       
020L92A855000043000044150530150530000001000001000001000000086225000000086225005270287318                                                                                                              
020L04A8551505301505301505301505300000453468BATCH     YY                                                                                                                                              
020L1063200504084267737A85500004563200509305660980100000285895150530880   RAWSONPROPHILLCREST 77, HILLCRD. STEYN                      00000000000000000000                21                          
020L1263200504084267737A85500004663200504084267737100000285895150530100000RAWSONPROPCONTRA34192                                                                                                       
020L92A855000045000046150530150530000001000001000001000000285895000000285895013389928717                                                                                                              
020L04A8551505301505301505301505300000473469BATCH     YY                                                                                                                                              
020L1063200504084267737A85500004705100100072003197100000080000150530880   RAWSONPROPVILLAGE WALK 5, 31 CY. GUO                        00000000000000000000                21                          
020L1263200504084267737A85500004863200504084267737100000080000150530100000RAWSONPROPCONTRA34194                                                                                                       
020L92A855000047000048150530150530000001000001000001000000080000000000080000004156270934                                                                                                              
020L04A8551505301505301505301505300000493470BATCH     YY                                                                                                                                              
020L1063200504084267737A85500004919876501186047607100000039200150530880   RAWSONPROPOAK15A              WATCHPROP                     00000000000000000000                21                          
020L1263200504084267737A85500005063200504084267737100000039200150530100000RAWSONPROPCONTRA34195                                                                                                       
020L92A855000049000050150530150530000001000001000001000000039200000000039200005270315344                                                                                                              
020L04A8551505301505301505301505300000513471BATCH     YY                                                                                                                                              
020L1063200504084267737A85500005125014962480135526100000341780150530880   RAWSONPROPOAKTREE GARDENS 15, A.C. TILL                     00000000000000000000                21                          
020L1263200504084267737A85500005263200504084267737100000341780150530100000RAWSONPROPCONTRA34196                                                                                                       
020L92A855000051000052150530150530000001000001000001000000341780000000341780066564403263                                                                                                              
020L04A8551505301505301505301505300000533472BATCH     YY                                                                                                                                              
020L1063200504084267737A85500005363200504056584569100000012440150530880   RAWSONPROP207144766           CITY OF CAPE TOWN             00000000000000000000                21                          
020L1263200504084267737A85500005463200504084267737100000012440150530100000RAWSONPROPCONTRA34197                                                                                                       
020L92A855000053000054150530150530000001000001000001000000012440000000012440008140852306                                                                                                              
020L04A8551505301505301505301505300000553473BATCH     YY                                                                                                                                              
020L1063200504084267737A85500005563200504052886814100000096030150530880   RAWSONPROPIL BACARO 1, PARK STHENQUE 3186 CC                00000000000000000000                21                          
020L1263200504084267737A85500005663200504084267737100000096030150530100000RAWSONPROPCONTRA34198                                                                                                       
020L92A855000055000056150530150530000001000001000001000000096030000000096030008137154551                                                                                                              
020L04A8551505301505301505301505300000573474BATCH     YY                                                                                                                                              
020L1063200504084267737A85500005763200504052571302100000046500150530880   RAWSONPROP1                   IL BACARO BODY CORPORATE - OSR00000000000000000000                21                          
020L1263200504084267737A85500005863200504084267737100000046500150530100000RAWSONPROPCONTRA34199                                                                                                       
020L92A855000057000058150530150530000001000001000001000000046500000000046500008136839039                                                                                                              
020L04A8551505301505301505301505300000593475BATCH     YY                                                                                                                                              
020L1063200504084267737A85500005963200504075050587100000055339150530880   RAWSONPROPA2                  PARC DURMONTE BODY CORPORATE  00000000000000000000                21                          
020L1263200504084267737A85500006063200504084267737100000055339150530100000RAWSONPROPCONTRA34200                                                                                                       
020L92A855000059000060150530150530000001000001000001000000055339000000055339008159318324                                                                                                              
020L04A8551505301505301505301505300000613476BATCH     YY                                                                                                                                              
020L1063200504084267737A85500006163200504056584569100000020000150530880   RAWSONPROP221353008           CITY OF CAPE TOWN             00000000000000000000                21                          
020L1263200504084267737A85500006263200504084267737100000020000150530100000RAWSONPROPCONTRA34201                                                                                                       
020L92A855000061000062150530150530000001000001000001000000020000000000020000008140852306                                                                                                              
020L04A8551505301505301505301505300000633477BATCH     YY                                                                                                                                              
020L1063200504084267737A85500006325400562415516717100000303963150530880   RAWSONPROPPARC DURMONTE A2, DUM.D. MABASO                   00000000000000000000                21                          
020L1263200504084267737A85500006463200504084267737100000303963150530100000RAWSONPROPCONTRA34202                                                                                                       
020L92A855000063000064150530150530000001000001000001000000303963000000303963066499784454                                                                                                              
020L04A8551505301505301505301505300000653478BATCH     YY                                                                                                                                              
020L1063200504084267737A85500006517030500000000000100000394713150530880   RAWSONPROPDE OUDE PASTORIE 106A. PEDRO                      00000008145583477001                21                          
020L1263200504084267737A85500006663200504084267737100000394713150530100000RAWSONPROPCONTRA34203                                                                                                       
020L92A855000065000066150530150530000001000001000001000000394713000000394713149667744738                                                                                                              
020L04A8551505301505301505301505300000673479BATCH     YY                                                                                                                                              
020L1063200504084267737A85500006720040962530128778100000886000150530880   RAWSONPROPTIJGER VILLAS 40, OLM.A. FREEMAN                  00000000000000000000                21                          
020L1263200504084267737A85500006863200504084267737100000886000150530100000RAWSONPROPCONTRA34204                                                                                                       
020L92A855000067000068150530150530000001000001000001000000886000000000886000066614396515                                                                                                              
020L04A8551505301505301505301505300000693480BATCH     YY                                                                                                                                              
020L1063200504084267737A85500006925065562072695996100000425280150530880   RAWSONPROPSERENGETI 8, SABIE SA.R. SCHILDER                 00000000000000000000                21                          
020L1263200504084267737A85500007063200504084267737100000425280150530100000RAWSONPROPCONTRA34205                                                                                                       
020L92A855000069000070150530150530000001000001000001000000425280000000425280066156963733                                                                                                              
020L04A8551505301505301505301505300000713481BATCH     YY                                                                                                                                              
020L1063200504084267737A85500007105100110036911990100001063200150530880   RAWSONPROPSTELLENVILLAS 21, KRC.G. LEE                      00000000000000000000                21                          
020L1263200504084267737A85500007263200504084267737100001063200150530100000RAWSONPROPCONTRA34206                                                                                                       
020L92A855000071000072150530150530000001000001000001000001063200000001063200014121179727                                                                                                              
020L04A8551505301505301505301505300000733482BATCH     YY                                                                                                                                              
020L1063200504084267737A85500007305100110036911990100000070000150530880   RAWSONPROPSTELLENVILLAS 21, KRC.G. LEE                      00000000000000000000                21                          
020L1263200504084267737A85500007463200504084267737100000070000150530100000RAWSONPROPCONTRA34207                                                                                                       
020L92A855000073000074150530150530000001000001000001000000070000000000070000014121179727                                                                                                              
020L04A8551505301505301505301505300000753483BATCH     YY                                                                                                                                              
020L1063200504079323853A85500007563200504056584569100000081555150530880   RAWSONPROP212433033           CITY OF CAPE TOWN MUNICIPALITY00000000000000000000                21                          
020L1263200504079323853A85500007663200504079323853100000081555150530100000RAWSONPROPCONTRA34193                                                                                                       
020L92A855000075000076150530150530000001000001000001000000081555000000081555008135908422                                                                                                              
020L04A8551505301505301505301505300000773484BATCH     YY                                                                                                                                              
020L1063200504084267630A85500007700610500227371984100000450000150530880   RAWSONPROPMANATOKA HEIGHTS 3, B NAGEL                       00000000000000000000                21                          
020L1263200504084267630A85500007863200504084267630100000450000150530100000RAWSONPROPCONTRA34213                                                                                                       
020L92A855000077000078150530150530000001000001000001000000450000000000450000004311639614                                                                                                              
020L04A8551505301505301505301505300000793485BATCH     YY                                                                                                                                              
020L1063200504084267575A85500007963200504073717042100000207689150530880   RAWSONPROPSAN0019C            SECOND AVENUE BODY CORPORATE  00000000000000000000                21                          
020L1263200504084267575A85500008063200504084267575100000207689150530100000RAWSONPROPCONTRA34214                                                                                                       
020L92A855000079000080150530150530000001000001000001000000207689000000207689008157984617                                                                                                              
020L04A8551505301505301505301505300000813486BATCH     YY                                                                                                                                              
020L1063200504084267575A85500008100020500000165557100000043400150530880   RAWSONPROP552728092           CITY OF JOHANNESBURG          00000000000000000000                21                          
020L1263200504084267575A85500008263200504084267575100000043400150530100000RAWSONPROPCONTRA34215                                                                                                       
020L92A855000081000082150530150530000001000001000001000000043400000000043400004084433132                                                                                                              
020L04A8551505301505301505301505300000833487BATCH     YY                                                                                                                                              
020L1063200504084267575A85500008327144462343848258100000686472150530880   RAWSONPROP19 SECOND AVENUE, 2NL.M SARMAN                    00000000000000000000                21                          
020L1263200504084267575A85500008463200504084267575100000686472150530100000RAWSONPROPCONTRA34216                                                                                                       
020L92A855000083000084150530150530000001000001000001000000686472000000686472066428115833                                                                                                              
020L04A8551505301505301505301505300000853488BATCH     YY                                                                                                                                              
020L1063200504084267575A85500008505100100220723249100000036000150530880   RAWSONPROPCOMMISSION          DTC PROPERTIES TRADING AS RAWS00000000000000000000                21                          
020L1263200504084267575A85500008663200504084267575100000036000150530100000RAWSONPROPCONTRA34217                                                                                                       
020L92A855000085000086150530150530000001000001000001000000036000000000036000004304990824                                                                                                              
999L000000174                                                                                                                                                                                         
