000L2015071704136RENTAL CONNECT PTY LTD        000093100000                                                                                                                       5291                
020L04A8551507171507171507171507170000439681BATCH     YY                                                                                                                                              
020L1063200504083387572A85500004322312652940045141100000035000150717880   RAWSONPROPSOI ADTSECUREJULY201P NAVAMONEY                   00000000000000000000                21                          
020L1263200504083387572A85500004463200504083387572100000035000150717100000RAWSONPROPCONTRA40390                                                                                                       
020L92A855000043000044150717150717000001000001000001000000035000000000035000057023432713                                                                                                              
020L04A8551507171507171507171507170000459682BATCH     YY                                                                                                                                              
020L1063200504083387572A85500004505803000636754650200000450000150717880   RAWSONPROPD2O 55 CENTRAL VILLAM MKHIZE                      00000000000000000000                21                          
020L1263200504083387572A85500004663200504083387572100000450000150717100000RAWSONPROPCONTRA40510                                                                                                       
020L92A855000045000046150717150717000001000001000001000000450000000000450000004720142222                                                                                                              
020L04A8551507171507171507171507170000479683BATCH     YY                                                                                                                                              
020L1063200504083414907A85500004722083062068947286100000050000150717880   RAWSONPROPKRG RENTALJULY2015  T. MBUYAZI                    00000000000000000000                21                          
020L1263200504083414907A85500004863200504083414907100000050000150717100000RAWSONPROPCONTRA40397                                                                                                       
020L92A855000047000048150717150717000001000001000001000000050000000000050000066152362193                                                                                                              
020L04A8551507171507171507171507170000499684BATCH     YY                                                                                                                                              
020L1063200504083414907A85500004922083062068947286100000050000150717880   RAWSONPROPPHG RENTALJUNE2015  T. MBUYAZI                    00000000000000000000                21                          
020L1263200504083414907A85500005063200504083414907100000050000150717100000RAWSONPROPCONTRA40461                                                                                                       
020L92A855000049000050150717150717000001000001000001000000050000000000050000066152362193                                                                                                              
020L04A8551507171507171507171507170000519685BATCH     YY                                                                                                                                              
020L1063200504084166373A85500005125114562524534121100000033562150717880   RAWSONPROP6QP COMMISSION      RAWSON WATERKLOOF             00000000000000000000                21                          
020L1263200504084166373A85500005263200504084166373100000033562150717100000RAWSONPROPCONTRA40500                                                                                                       
020L92A855000051000052150717150717000001000001000001000000033562000000033562066608700494                                                                                                              
020L04A8551507171507171507171507170000539686BATCH     YY                                                                                                                                              
020L1063200504084166373A85500005325114562524534121100000070150150717880   RAWSONPROP3OY COMMISSION      RAWSON WATERKLOOF             00000000000000000000                21                          
020L1263200504084166373A85500005463200504084166373100000070150150717100000RAWSONPROPCONTRA40501                                                                                                       
020L92A855000053000054150717150717000001000001000001000000070150000000070150066608700494                                                                                                              
020L04A8551507171507171507171507170000559687BATCH     YY                                                                                                                                              
020L1063200504084166373A85500005525114562524534121100000089604150717880   RAWSONPROPF59 COMMISSION      RAWSON WATERKLOOF             00000000000000000000                21                          
020L1263200504084166373A85500005663200504084166373100000089604150717100000RAWSONPROPCONTRA40502                                                                                                       
020L92A855000055000056150717150717000001000001000001000000089604000000089604066608700494                                                                                                              
020L04A8551507171507171507171507170000579688BATCH     YY                                                                                                                                              
020L1063200504084166373A85500005725114562524534121100000051090150717880   RAWSONPROP26Y COMMISSION      RAWSON WATERKLOOF             00000000000000000000                21                          
020L1263200504084166373A85500005863200504084166373100000051090150717100000RAWSONPROPCONTRA40503                                                                                                       
020L92A855000057000058150717150717000001000001000001000000051090000000051090066608700494                                                                                                              
020L04A8551507171507171507171507170000599689BATCH     YY                                                                                                                                              
020L1063200504084166373A85500005925114562524534121100000017292150717880   RAWSONPROPUVN COMMISSION      RAWSON WATERKLOOF             00000000000000000000                21                          
020L1263200504084166373A85500006063200504084166373100000017292150717100000RAWSONPROPCONTRA40504                                                                                                       
020L92A855000059000060150717150717000001000001000001000000017292000000017292066608700494                                                                                                              
020L04A8551507171507171507171507170000619690BATCH     YY                                                                                                                                              
020L1063200504084166373A85500006125114562524534121100000042444150717880   RAWSONPROP2KH COMMISSION      RAWSON WATERKLOOF             00000000000000000000                21                          
020L1263200504084166373A85500006263200504084166373100000042444150717100000RAWSONPROPCONTRA40505                                                                                                       
020L92A855000061000062150717150717000001000001000001000000042444000000042444066608700494                                                                                                              
020L04A8551507171507171507171507170000639691BATCH     YY                                                                                                                                              
020L1063200504084166373A85500006325114562524534121100000113970150717880   RAWSONPROP5OY COMMISSION      RAWSON WATERKLOOF             00000000000000000000                21                          
020L1263200504084166373A85500006463200504084166373100000113970150717100000RAWSONPROPCONTRA40506                                                                                                       
020L92A855000063000064150717150717000001000001000001000000113970000000113970066608700494                                                                                                              
020L04A8551507171507171507171507170000659692BATCH     YY                                                                                                                                              
020L1063200504084166373A85500006525114562524534121100000062880150717880   RAWSONPROPUPI COMMISSION      RAWSON WATERKLOOF             00000000000000000000                21                          
020L1263200504084166373A85500006663200504084166373100000062880150717100000RAWSONPROPCONTRA40507                                                                                                       
020L92A855000065000066150717150717000001000001000001000000062880000000062880066608700494                                                                                                              
020L04A8551507171507171507171507170000679693BATCH     YY                                                                                                                                              
020L1063200504084166373A85500006725114562524534121100000015720150717880   RAWSONPROP9YD COMMISSION      RAWSON WATERKLOOF             00000000000000000000                21                          
020L1263200504084166373A85500006863200504084166373100000015720150717100000RAWSONPROPCONTRA40508                                                                                                       
020L92A855000067000068150717150717000001000001000001000000015720000000015720066608700494                                                                                                              
020L04A8551507171507171507171507170000699694BATCH     YY                                                                                                                                              
020L1063200504084166373A85500006925114562524534121100000039300150717880   RAWSONPROPNT0 COMMISSION      RAWSON WATERKLOOF             00000000000000000000                21                          
020L1263200504084166373A85500007063200504084166373100000039300150717100000RAWSONPROPCONTRA40509                                                                                                       
020L92A855000069000070150717150717000001000001000001000000039300000000039300066608700494                                                                                                              
020L04A8551507171507171507171507170000719695BATCH     YY                                                                                                                                              
020L1063200504083387514A85500007105100100374720983200000360000150717880   RAWSONPROPCR6 RENT TARENTAAL 2SM FORTUIN                    00000000000000000000                21                          
020L1263200504083387514A85500007263200504083387514100000360000150717100000RAWSONPROPCONTRA40512                                                                                                       
020L92A855000071000072150717150717000001000001000001000000360000000000360000004458108497                                                                                                              
020L04A8551507171507171507171507170000739696BATCH     YY                                                                                                                                              
020L1063200504083387441A85500007363200504042374277200000104169150717880   RAWSONPROP3LA 39 BUCK ROAD "LOGERALD TIMM                   00000000000000000000                21                          
020L1263200504083387441A85500007463200504083387441100000104169150717100000RAWSONPROPCONTRA40513                                                                                                       
020L92A855000073000074150717150717000001000001000001000000104169000000104169008125761718                                                                                                              
020L04A8551507171507171507171507170000759697BATCH     YY                                                                                                                                              
020L1063200504083387441A85500007563200509286113012100000007074150717880   RAWSONPROPR2O COMMISSION      CELESTE & LORENZO JARDINE     00000000000000000000                21                          
020L1263200504083387441A85500007663200504083387441100000007074150717100000RAWSONPROPCONTRA40514                                                                                                       
020L92A855000075000076150717150717000001000001000001000000007074000000007074013369500453                                                                                                              
020L04A8551507171507171507171507170000779698BATCH     YY                                                                                                                                              
020L1063200504083387441A85500007725065562329354873100000016000150717880   RAWSONPROPNKO 44, LOERIEROAD, MS KAMALDIEN                  00000000000000000000                21                          
020L1263200504083387441A85500007863200504083387441100000016000150717100000RAWSONPROPCONTRA40515                                                                                                       
020L92A855000077000078150717150717000001000001000001000000016000000000016000066412742314                                                                                                              
020L04A8551507171507171507171507170000799699BATCH     YY                                                                                                                                              
020L1063200504083387441A85500007963200504083414787100000015000150717880   RAWSONPROPGVN 19MW1           GRASSY PARK                   00000000000000000000                21                          
020L1263200504083387441A85500008063200504083387441100000015000150717100000RAWSONPROPCONTRA40517                                                                                                       
020L92A855000079000080150717150717000001000001000001000000015000000000015000008166802228                                                                                                              
020L04A8551507171507171507171507170000819700BATCH     YY                                                                                                                                              
020L1063200504084267525A85500008163200504071787148100000575900150717880   RAWSONPROPN63 106 ISLAND VIEW RAUL DIAZ                     00000000000000000000                21                          
020L1263200504084267525A85500008263200504084267525100000575900150717100000RAWSONPROPCONTRA40516                                                                                                       
020L92A855000081000082150717150717000001000001000001000000575900000000575900008156054673                                                                                                              
020L04A8551507171507171507171507170000839701BATCH     YY                                                                                                                                              
020L1063200504084267931A85500008363200504084267525100000450000150717880   RAWSONPROPZHJ M NEL 30 PRICE RRAWSON PROPERTIES BLUFF       00000000000000000000                21                          
020L1263200504084267931A85500008463200504084267931100000450000150717100000RAWSONPROPCONTRA40520                                                                                                       
020L92A855000083000084150717150717000001000001000001000000450000000000450000008168535456                                                                                                              
020L04A8551507171507171507171507170000859702BATCH     YY                                                                                                                                              
020L1063200504079323853A85500008505100100073167118100000360000150717880   RAWSONPROP27L SUIKERKANT RENT JA LOUBSER                    00000000000000000000                21                          
020L1263200504079323853A85500008663200504079323853100000360000150717100000RAWSONPROPCONTRA40521                                                                                                       
020L92A855000085000086150717150717000001000001000001000000360000000000360000004152490971                                                                                                              
020L04A8551507171507171507171507170000879703BATCH     YY                                                                                                                                              
020L1063200504084166399A85500008763200504084166721100000750000150717880   RAWSONPROPH9G SW686           BE FREE TRADING (PTY) LTD     00000000000000000000                21                          
020L1263200504084166399A85500008863200504084166399100000750000150717100000RAWSONPROPCONTRA40523                                                                                                       
020L92A855000087000088150717150717000001000001000001000000750000000000750000008168333120                                                                                                              
020L04A8551507171507171507171507170000899704BATCH     YY                                                                                                                                              
020L1063200504084166399A85500008905100100251437094100000260720150717880   RAWSONPROP08T 46 SUNBIRD ESTATMALANI NAICKER                00000000000000000000                21                          
020L1263200504084166399A85500009063200504084166399100000260720150717100000RAWSONPROPCONTRA40524                                                                                                       
020L92A855000089000090150717150717000001000001000001000000260720000000260720004335603493                                                                                                              
020L04A8551507171507171507171507170000919705BATCH     YY                                                                                                                                              
020L1063200504084166399A85500009163200504076169008100000099023150717880   RAWSONPROPGPN COMMISSION      BE FREE TRADING (PTY) LTD     00000000000000000000                21                          
020L1263200504084166399A85500009263200504084166399100000099023150717100000RAWSONPROPCONTRA40525                                                                                                       
020L92A855000091000092150717150717000001000001000001000000099023000000099023008160335407                                                                                                              
020L04A8551507171507171507171507170000939706BATCH     YY                                                                                                                                              
020L1063200504084267559A85500009305100100050134116100000037568150717880   RAWSONPROPSRY 83442709945     ETHEKWENI MUNICIPALITY        00000000000000000000                21                          
020L1263200504084267559A85500009463200504084267559100000037568150717100000RAWSONPROPCONTRA40526                                                                                                       
020L92A855000093000094150717150717000001000001000001000000037568000000037568004134401675                                                                                                              
020L04A8551507171507171507171507170000959707BATCH     YY                                                                                                                                              
020L1063200504084267559A85500009513802601058937340100000038432150717880   RAWSONPROP3BC 4 SUNLAWNS, 27 HBETELGEUSE TRUST              00000000000000000000                21                          
020L1263200504084267559A85500009663200504084267559100000038432150717100000RAWSONPROPCONTRA40527                                                                                                       
020L92A855000095000096150717150717000001000001000001000000038432000000038432005143204899                                                                                                              
020L04A8551507171507171507171507170000979708BATCH     YY                                                                                                                                              
020L1063200504084267559A85500009704272600051303167200000510400150717880   RAWSONPROPUXA 207 SUTTONMERE, M. DHANASIR                   00000000000000000000                21                          
020L1263200504084267559A85500009863200504084267559100000510400150717100000RAWSONPROPCONTRA40538                                                                                                       
020L92A855000097000098150717150717000001000001000001000000510400000000510400004135570726                                                                                                              
020L04A8551507171507171507171507170000999709BATCH     YY                                                                                                                                              
020L1063200504084267559A85500009913802601020416246100000039680150717880   RAWSONPROPC6F COMMISSION      RAWSON DURBAN/KAMIKAZE C.C.   00000000000000000000                21                          
020L1263200504084267559A85500010063200504084267559100000039680150717100000RAWSONPROPCONTRA40539                                                                                                       
020L92A855000099000100150717150717000001000001000001000000039680000000039680005104683805                                                                                                              
020L04A8551507171507171507171507170001019710BATCH     YY                                                                                                                                              
020L1063200504084267559A85500010105100100050134116100000109135150717880   RAWSONPROP7N5 83298094510     ETHEKWENI MUNICIPALITY        00000000000000000000                21                          
020L1263200504084267559A85500010263200504084267559100000109135150717100000RAWSONPROPCONTRA40540                                                                                                       
020L92A855000101000102150717150717000001000001000001000000109135000000109135004134401675                                                                                                              
020L04A8551507171507171507171507170001039711BATCH     YY                                                                                                                                              
020L1063200504083387742A85500010363200504083387742100000640000150717880   RAWSONPROPWQ4 36 WINCHESTER   BAYPOINT TRADING 157CC        00000000000000000000                21                          
020L1263200504083387742A85500010463200504083387742100000640000150717100000RAWSONPROPCONTRA40528                                                                                                       
020L92A855000103000104150717150717000001000001000001000000640000000000640000008166775484                                                                                                              
020L04A8551507171507171507171507170001059712BATCH     YY                                                                                                                                              
020L1063200504084267737A85500010563200504076497700100000103814150717880   RAWSONPROPLVE ELECTRICITY & WAR.D.M. ADAMS                  00000000000000000000                21                          
020L1263200504084267737A85500010663200504084267737100000103814150717100000RAWSONPROPCONTRA40529                                                                                                       
020L92A855000105000106150717150717000001000001000001000000103814000000103814008160765437                                                                                                              
020L04A8551507171507171507171507170001079713BATCH     YY                                                                                                                                              
020L1063200504084267737A85500010763200504075073450100002016554150717880   RAWSONPROPY33 COMMISSION      DRIVE WORLD CC T/A RAWSON PROP00000000000000000000                21                          
020L1263200504084267737A85500010863200504084267737100002016554150717100000RAWSONPROPCONTRA40530                                                                                                       
020L92A855000107000108150717150717000001000001000001000002016554000002016554008159341187                                                                                                              
020L04A8551507171507171507171507170001099714BATCH     YY                                                                                                                                              
020L1063200504083386720A85500010963200500360147533100000180000150717880   RAWSONPROPLC3 33 1ST CRESCENT P CHARILAOU                   00000000000000000000                21                          
020L1263200504083386720A85500011063200504083386720100000180000150717100000RAWSONPROPCONTRA40531                                                                                                       
020L92A855000109000110150717150717000001000001000001000000180000000000180000004443534253                                                                                                              
020L04A8551507171507171507171507170001119715BATCH     YY                                                                                                                                              
020L1063200504083387001A85500011163200504056584569100000041242150717880   RAWSONPROPC0X 133228448       CAPE TOWN ADMINISTRATION      00000000000000000000                21                          
020L1263200504083387001A85500011263200504083387001100000041242150717100000RAWSONPROPCONTRA40532                                                                                                       
020L92A855000111000112150717150717000001000001000001000000041242000000041242008139971570                                                                                                              
020L04A8551507171507171507171507170001139716BATCH     YY                                                                                                                                              
020L1063200504083387001A85500011305100100072709502100001210398150717880   RAWSONPROPU8D RIETVLEI AVENUE CA WILSON                     00000000000000000000                21                          
020L1263200504083387001A85500011463200504083387001100001210398150717100000RAWSONPROPCONTRA40533                                                                                                       
020L92A855000113000114150717150717000001000001000001000001210398000001210398004156096503                                                                                                              
020L04A8551507171507171507171507170001159717BATCH     YY                                                                                                                                              
020L1063200504083387001A85500011525400562090825880100000637200150717880   RAWSONPROPSTP HOLLAND AVE 38, NOMFUNDO PRINCESS DOUW-JACK   00000000000000000000                21                          
020L1263200504083387001A85500011663200504083387001100000637200150717100000RAWSONPROPCONTRA40534                                                                                                       
020L92A855000115000116150717150717000001000001000001000000637200000000637200066174212881                                                                                                              
020L04A8551507171507171507171507170001179718BATCH     YY                                                                                                                                              
020L1063200504083387001A85500011763200504055905940100000123120150717880   RAWSONPROPGOC COMMISSION      BLUE PLATINUM VENTURES (BUSI. 00000000000000000000                21                          
020L1263200504083387001A85500011863200504083387001100000123120150717100000RAWSONPROPCONTRA40535                                                                                                       
020L92A855000117000118150717150717000001000001000001000000123120000000123120008139292941                                                                                                              
020L04A8551507171507171507171507170001199719BATCH     YY                                                                                                                                              
020L1063200504083387001A85500011963200504056584569100000034954150717880   RAWSONPROPMXO 133123638       CAPE TOWN ADMINISTRATION      00000000000000000000                21                          
020L1263200504083387001A85500012063200504083387001100000034954150717100000RAWSONPROPCONTRA40541                                                                                                       
020L92A855000119000120150717150717000001000001000001000000034954000000034954008139971570                                                                                                              
020L04A8551507171507171507171507170001219720BATCH     YY                                                                                                                                              
020L1063200504083387001A85500012163200500712069228100000576386150717880   RAWSONPROP9IX NEDERBERG ROAD 4M.A.PURNELL                   00000000000000000000                21                          
020L1263200504083387001A85500012263200504083387001100000576386150717100000RAWSONPROPCONTRA40542                                                                                                       
020L92A855000121000122150717150717000001000001000001000000576386000000576386004795456229                                                                                                              
020L04A8551507171507171507171507170001239721BATCH     YY                                                                                                                                              
020L1063200504083387001A85500012363200504055905940100000249318150717880   RAWSONPROP8DG COMMISSION      BLUE PLATINUM VENTURES (BUSI. 00000000000000000000                21                          
020L1263200504083387001A85500012463200504083387001100000249318150717100000RAWSONPROPCONTRA40556                                                                                                       
020L92A855000123000124150717150717000001000001000001000000249318000000249318008139292941                                                                                                              
020L04A8551507171507171507171507170001259722BATCH     YY                                                                                                                                              
020L1063200504083414606A85500012563200504060002769100000000003150717880   RAWSONPROP2PY DEP 27 BOLM TRFDPAYPROP                       00000000000000000000                21                          
020L1263200504083414606A85500012663200504083414606100000000003150717100000RAWSONPROPCONTRA40537                                                                                                       
020L92A855000125000126150717150717000001000001000001000000000003000000000003008143417375                                                                                                              
020L04A8551507171507171507171507170001279723BATCH     YY                                                                                                                                              
020L1063200504083414606A85500012700000001028241399100000050000150717880   RAWSONPROP1TZ TENANT PARKING FCATHRINE O'BRIEN WOODHALL     00000000000000000000                21                          
020L1263200504083414606A85500012863200504083414606100000050000150717100000RAWSONPROPCONTRA40543                                                                                                       
020L92A855000127000128150717150717000001000001000001000000050000000000050000005111656005                                                                                                              
020L04A8551507171507171507171507170001299724BATCH     YY                                                                                                                                              
020L1063200504083414606A85500012963200504055905940100000150000150717880   RAWSONPROP7I6 CANCEL 2 STELLENBLUE PLATINUM BUSINESS ACCOUNT00000000000000000000                21                          
020L1263200504083414606A85500013063200504083414606100000150000150717100000RAWSONPROPCONTRA40544                                                                                                       
020L92A855000129000130150717150717000001000001000001000000150000000000150000008139320546                                                                                                              
020L04A8551507171507171507171507170001319725BATCH     YY                                                                                                                                              
020L1063200504083414606A85500013163200504085209326100000025000150717880   RAWSONPROP8YH 2 STELLEN CLEAN L TOLKEN                      00000000000000000000                21                          
020L1263200504083414606A85500013263200504083414606100000025000150717100000RAWSONPROPCONTRA40546                                                                                                       
020L92A855000131000132150717150717000001000001000001000000025000000000025000008168623932                                                                                                              
020L04A8551507171507171507171507170001339726BATCH     YY                                                                                                                                              
020L1063200504083414606A85500013363200504055905940100000011125150717880   RAWSONPROPULW CDF 2 STELLENHOFBLUE PLATINUM BUSINESS ACCOUNT00000000000000000000                21                          
020L1263200504083414606A85500013463200504083414606100000011125150717100000RAWSONPROPCONTRA40547                                                                                                       
020L92A855000133000134150717150717000001000001000001000000011125000000011125008139320546                                                                                                              
020L04A8551507171507171507171507170001359727BATCH     YY                                                                                                                                              
020L1063200504083414606A85500013563200504055905940100000021090150717880   RAWSONPROP7LO COM 2 STELLENHOFBLUE PLATINUM BUSINESS ACCOUNT00000000000000000000                21                          
020L1263200504083414606A85500013663200504083414606100000021090150717100000RAWSONPROPCONTRA40554                                                                                                       
020L92A855000135000136150717150717000001000001000001000000021090000000021090008139320546                                                                                                              
020L04A8551507171507171507171507170001379728BATCH     YY                                                                                                                                              
020L1063200504083414606A85500013705100100078230136200000279530150717880   RAWSONPROPKOY DEPOSIT 2 STELLEBASSAM MOH'D                  00000000000000000000                21                          
020L1263200504083414606A85500013863200504083414606100000279530150717100000RAWSONPROPCONTRA40555                                                                                                       
020L92A855000137000138150717150717000001000001000001000000279530000000279530004161644742                                                                                                              
020L04A8551507171507171507171507170001399729BATCH     YY                                                                                                                                              
020L1063200504084166488A85500013925065562391175546100000372120150717880   RAWSONPROPV9E SAILFISH ROAD 11VINOLA JACOBS                 00000000000000000000                21                          
020L1263200504084166488A85500014063200504084166488100000372120150717100000RAWSONPROPCONTRA40548                                                                                                       
020L92A855000139000140150717150717000001000001000001000000372120000000372120066475342034                                                                                                              
020L04A8551507171507171507171507170001419730BATCH     YY                                                                                                                                              
020L1063200504084166446A85500014125400562472199358100001100000150717880   RAWSONPROPO4L COST VOLSTRUIS  RAWSON KRUGERSDORP            00000000000000000000                21                          
020L1263200504084166446A85500014263200504084166446100001100000150717100000RAWSONPROPCONTRA40550                                                                                                       
020L92A855000141000142150717150717000001000001000001000001100000000001100000066556365804                                                                                                              
020L04A8551507171507171507171507170001439731BATCH     YY                                                                                                                                              
020L1063200504084166446A85500014325400562472199358100000150000150717880   RAWSONPROP4MC COST LOCK       RAWSON KRUGERSDORP            00000000000000000000                21                          
020L1263200504084166446A85500014463200504084166446100000150000150717100000RAWSONPROPCONTRA40551                                                                                                       
020L92A855000143000144150717150717000001000001000001000000150000000000150000066556365804                                                                                                              
020L04A8551507171507171507171507170001459732BATCH     YY                                                                                                                                              
020L1063200504084267622A85500014519876501627021868100000397600150717880   RAWSONPROP7JL REFUND          GOLDEN MILE TRADING 543 CC    00000000000000000000                21                          
020L1263200504084267622A85500014663200504084267622100000397600150717100000RAWSONPROPCONTRA40552                                                                                                       
020L92A855000145000146150717150717000001000001000001000000397600000000397600005711289490                                                                                                              
020L04A8551507171507171507171507170001479733BATCH     YY                                                                                                                                              
020L1063200504084267509A85500014725065562391150225100000075000150717880   RAWSONPROPVV7 BOBBY LOCK 6,  UR.R. APPELGRYN                00000000000000000000                21                          
020L1263200504084267509A85500014863200504084267509100000075000150717100000RAWSONPROPCONTRA40553                                                                                                       
020L92A855000147000148150717150717000001000001000001000000075000000000075000066475417734                                                                                                              
020L04A8551507171507171507171507170001499734BATCH     YY                                                                                                                                              
020L1063200504084267567A85500014963200504062656437100000080000150717880   RAWSONPROPMVX COMMISSION      RAWSON PROPERTIES RUSTENBURG  00000000000000000000                21                          
020L1263200504084267567A85500015063200504084267567100000080000150717100000RAWSONPROPCONTRA40557                                                                                                       
020L92A855000149000150150717150717000001000001000001000000080000000000080000008146924004                                                                                                              
020L04A8551507171507171507171507170001519735BATCH     YY                                                                                                                                              
020L1063200504079328316A85500015105100100370466039100000617806150717880   RAWSONPROPLNP 40 CARAWAY DEPOSJ FOUCHE                      00000000000000000000                21                          
020L1263200504079328316A85500015263200504079328316100000617806150717100000RAWSONPROPCONTRA40558                                                                                                       
020L92A855000151000152150717150717000001000001000001000000617806000000617806004449794355                                                                                                              
999L000000222      